:020000022000DC
:10600000384C0120292303009FE90500FD220300ED
:10601000FD220300FD220300FD220300000000001A
:106020000000000000000000000000004D240300FC
:10603000FD22030000000000B9230300FD2203003D
:106040006D2603007D7204006D2603006D2603009B
:106050006D2603006D2603006D2603006D260300E8
:106060006D2603006D2603006D2603006D260300D8
:106070006D2603006D2603006D2603006D260300C8
:106080006D2603006D2603006D2603006D260300B8
:106090006D2603006D2603006D2603006D260300A8
:1060A0006D2603006D2603006D2603006D26030098
:1060B0006D2603006D2603006D2603006D26030088
:1060C0006D2603006D2603006D2603006D26030078
:1060D0006D2603006D2603006D2603006D26030068
:1060E0006D2603006D2603006D2603006D26030058
:1060F0006D2603006D2603006D2603006D26030048
:106100004FEA4102B2F1E04324BFB3F5001CDCF1D9
:10611000FE5C0DD901F0004C4FEAC0024CEA507011
:10612000B2F1004F40EB830008BF20F00100704740
:1061300011F0804F21D113F13872BCBF01F0004043
:10614000704741F480114FEA5252C2F11802C2F175
:10615000200C10FA0CF320FA02F018BF40F00100F6
:106160004FEAC1234FEAD32303FA0CFC40EA0C00A8
:1061700023FA02F34FEA4303CCE77FEA625307D1E5
:1061800050EA01331EBF4FF0FE4040F4400070471C
:1061900001F0004040F0FE4040F40000704700BFB6
:1061A00053B94AB9002908BF00281CBF4FF0FF317E
:1061B0004FF0FF3000F00CB8ADF1080C6DE904CEE3
:1061C00000F008F8DDF804E0DDE9022304B07047D0
:1061D000704700BF2DE9F04786468C460846089E6A
:1061E000154674461946002B40F0C2808542B2FA2B
:1061F00082F245D94AB1C2F1200300FA02FC2EFA1C
:1062000003F3954043EA0C0C94404FEA154EA8B2B4
:10621000BCFBFEF8230C0EFB18CC08FB00F943EA8C
:106220000C43994528D9EB1808F1FF3704D299455A
:1062300002D9A8F102072B44A3EB0903A4B2B3FBD4
:10624000FEFC0EFB1C330CFB00F044EA0344A042AE
:1062500014D92C190CF1FF3304D2A04202D9ACF1AD
:1062600002032C44241A43EA07401EB1D440002301
:1062700034607360BDE8F0874746DDE76346F1E7C9
:1062800092BB431B01214FEA154EAFB2B3FBFEFC9C
:10629000200C0EFB1C330CFB07F840EA0343984527
:1062A00062D9EB180CF1FF3004D2984502D9ACF159
:1062B00002002B44A3EB0803A4B2B3FBFEFC0EFBCD
:1062C0001C330CFB07F744EA0344A7424ED92C19B0
:1062D0000CF1FF3304D2A74202D9ACF102032C44E3
:1062E000E41B43EA0040C0E7C2F1200320FA03F1B7
:1062F000954090402EFA03F303434FEA154EAFB298
:10630000B1FBFEFC0EFB1C10190C0CFB07F841EA5C
:106310000041884504FA02F422D969180CF1FF30D3
:1063200004D2884502D9ACF102002944A1EB08014E
:106330009BB2B1FBFEFC0EFB1C110CFB07F743EA02
:1063400001439F420ED9EB180CF1FF3104D29F425A
:1063500002D9ACF102012B44DB1B41EA004192E778
:106360006046E3E76146F7E76046A3E76346B7E7C1
:10637000834206D916B9002108467BE7C6E900E04A
:10638000F9E7B3FA83F78FB9834201D3724508D88E
:10639000BEEB020460EB030301209C461EB9002102
:1063A00068E73846FAE7C6E9004CF8E7C7F1200C81
:1063B000BB4022FA0CF41C432EFA0CF120FA0CF329
:1063C000B84001434FEA14490EFA07F5B3FBF9F858
:1063D0001FFA84FE09FB18300B0C08FB0EFA43EA87
:1063E00000439A4502FA07F240D9E31808F1FF305A
:1063F00004D29A4502D9A8F102002344A3EB0A0370
:1064000089B2B3FBF9F809FB183308FB0EFE41EA29
:1064100003418E452CD9611808F1FF3304D28E4513
:1064200002D9A8F10203214443EA0040A0FB0298EC
:10643000A1EB0E014145CE46434602D306D14D4560
:1064400004D2B9EB020E68EB04030138002EA6D08B
:10645000B5EB0E0261EB030101FA0CFC22FA07F323
:106460004CEA0303F940C6E9003198E74046C5E726
:106470004346D9E710F8012B11F8013B012A28BF48
:106480009A42F7D0D01A7047034611F8012B03F84F
:10649000012B002AF9D17047034613F8012B002A7B
:1064A000FBD1181A01387047F7B5B44DD5F85C31F7
:1064B000996811F0010124D101AA40F603400DF0C2
:1064C00003F9044600286DD1019CE3681B78ABB941
:1064D0000EF0B2FBBFF35B8FD5F8D430BFF35B8F08
:1064E00005F1D40203F00903BFF35B8F52E8001FEC
:1064F00042E800300028F9D1BFF35B8F204624F03A
:10650000ADF901AA002141F203000DF0DDF80446C7
:10651000002847D1019B9A4EDA68D2F80100D2F8E0
:10652000051003C6184624F099F9214601AA41F244
:1065300001000DF0C9F80446A0BB0198C3685A7861
:1065400085F870205A88A5F872201A7985F871208C
:10655000B3F80720A5F87420B3F80530A5F8763015
:1065600024F07CF9214601AA41F202000DF0ACF8BA
:106570000446B8B9019FFA68531C4132186859683B
:10658000344603C4083393422646F7D17D4838F099
:10659000E3FA384624F062F995F87C305F0604D4BB
:1065A0006FF01204204603B0F0BD01AA002142F2B0
:1065B00003000DF089F804460028F3D1019B724EC8
:1065C000DA68D2F80100D2F8051003C6184624F0A4
:1065D00045F9214601AA42F202000DF075F8044681
:1065E0000028DFD1019CE368B3F8012091B249B1E2
:1065F000D97839B1A5F80421DA78114606F12800D6
:1066000047F063FC204624F029F995F87C6016F0E9
:10661000200618D1022140F66D400CF0F9FF044627
:10662000002800F0A28002210C303CF0E7FC01239E
:10663000037046702146324640F66D400DF044F836
:1066400004460028AED195F89C301E0712D501AA49
:10665000002142F21C000DF037F804460028A1D1B9
:106660000198C368D3F80120D3F80530C5E9382371
:1066700024F0F4F895F8D8305C060FD501AA002173
:1066800042F22A000DF020F8044600288AD1019831
:10669000C3685B7885F8203124F0E0F8082142F2E5
:1066A00001000CF0B5FF044600285ED008210C3034
:1066B0003CF0A4FC95F8D81011F0400F024640F2CF
:1066C000022308BF032388074CBF43F02C0043F08C
:1066D0000C0095F8D9308F0648BF40F0400013F009
:1066E000090F95F8A23018BF40F4006003F00603CC
:1066F000CE0748BF40F01000062B08BF40F4C07022
:10670000002138F0CBFB2146002242F201000CF0C0
:10671000DBFF044600287FF445AF95F87C30B5F8E0
:106720000411980624D4C9B901AA41F205000CF05D
:10673000CBFF044600287FF435AFB5F80431019C47
:106740004BB9E368B3F80120A5F804219A880F48F3
:10675000114647F0BAFB204624F080F8082140F6A5
:1067600001400CF055FF044690B96FF0680419E73A
:106770000029F3D16FF0040414E700BF00010020EA
:106780007801002080010020D801002008020020AC
:1067900008210C303CF032FC95F8D830D90702467D
:1067A00053BF4FF000512CA1D1E90001284838F027
:1067B00075FB2146002240F601400CF085FF04469F
:1067C00000287FF4EFAE014601AA4FF601400CF01D
:1067D0007BFF044620BB019824F040F8214601AA23
:1067E0004FF602400CF070FF0446C8B90198C36828
:1067F000B3F80130A5F8C13024F030F895F8C13075
:106800005B070DD501AA21464FF603400CF05CFF53
:1068100030B90198C3685B7885F8C03024F01EF861
:1068200038F00EFF044600287FF4BCAE0FF054FC95
:10683000044600287FF4B6AEEB79002B3FF4B2AEED
:106840000821044838F080FA0DF0CCFAAAE600BF1F
:1068500010880002D40100209088000200800020EF
:106860002DE9F843D0E90C35D0F82C805C19303490
:10687000A0450F46164619D81D4DA3FB05011AA3C6
:10688000D3E90023FFF78CFC0346A4EB0800A0FB30
:10689000050123F07F4414A3D3E90023FFF780FC14
:1068A00020F07F403C603060BDE8F883DFF8409026
:1068B0000DA3D3E90023A8FB0901FFF771FC0446EF
:1068C00005F1300008A3D3E90023A0FB0901FFF77D
:1068D00067FC24F07F4420F07F403C603060BDE8DE
:1068E000F88300BFAFF300808D49FD1A0700000058
:1068F00000CA9A3B000000009FED0D7B124B134A2B
:106900001348144910B483ED007B9FED0B7B82ED9F
:10691000007B9FED0B7B104B4FF0FF34002281ED8D
:10692000007B04601A605DF8044B16F0ADBC00BF3C
:10693000FFFFFFFFFF1F000000000000000000003D
:106940001F0000000000000080020020905F002077
:106950007CD000207802002074D0002000000000CD
:10696000002800F05F812DE9F04FB54C94F86A20C3
:1069700012F001058DB040F0A78194F82500FF23A7
:1069800000F0030084F826301FF058FF94F86A00E6
:10699000420727D494F8292094F8353004EB82027A
:1069A00004EB8303D66AD3F8388086B1A448314615
:1069B00018F0EEFB33785B0605D5062113F092FB49
:1069C000002800F083819E48414618F0E1FB3378AF
:1069D00013F00E0F40F0B780236A93B10C200DB076
:1069E000BDE8F08F2A4604F16B01C0F3C00020F02F
:1069F000C1F8FF2884F82600CCD028461FF064FF99
:106A0000C8E715F06BFD8146002800F0718115F094
:106A100071FD8246002800F0688118F0E7FF054606
:106A2000002800F06781D0F888004FF6FF732B85AF
:106A300005F11C0B002800F04F8105F1780105F1EC
:106A40007C0213F05BFBB5F876307E4A23F4EF63EB
:106A500023F0070343F4887343F00103A5F876306D
:106A60001346D2F80120C5F89B21C5F8A12113F8DF
:106A7000012B9B88A5F89F31A5F8A53195F89A318F
:106A800002F0010262F3000362F3410385F89A31D8
:106A900095F8393003F03F0363F07F0385F8393010
:106AA00095F88E3023F0070385F88E3095F83C304A
:106AB00023F00703002785F83C304FF4C023C5F8C6
:106AC00088312846C5E91277C5F88870A5F88C701A
:106AD0006F86C5F82E7085F83B702F65A5F88E710E
:106AE000A5F884711BF028FD85F85071C5F8549104
:106AF00019F01AFA95F8943160F3020385F894318D
:106B000019F018FA95F8943160F3C50385F89431BB
:106B100095F8803167F3410385F8803101212846DB
:106B200019F068FE05F1D4001BF08EFAC4E9189A3A
:106B3000C4F820B0C5E905772F70ED6121F04CF95C
:106B4000002840F0C58094F824300121C3F34203AB
:106B50000DF12B008DF82B3013F06EFC024600284F
:106B600062D098F80110304618F0D4F83123364935
:106B7000A360364BB4F86870A0FB01010025C01873
:106B800041F107012CA3D3E90023C4E90555257081
:106B90006560E560FFF704FB206114F081FF00F100
:106BA00009083FB9357805F00F05A5F10105B5FADB
:106BB00085F56D0994F82400236965F3000010F051
:106BC000010584F824004BD0214A0992002010606E
:106BD0000225204A204F04930BAE01930592032116
:106BE000CDE90200069443460090089607972A468E
:106BF0000B9514F0F3FD314615F036FDA0B9174999
:106C000005914AF2D8330093CDE90300CDE90100A4
:106C10000797089606944346012203210B9514F02A
:106C2000A9FD43E017F0C2BF236A002B3FF4D6AEA4
:106C300017F07AFFD2E600BF8D49FD1A0700000069
:106C400034D1002050A0070000CA9A3B8C49FD1A9D
:106C500028D1002091ED030031BC0300A5E803001A
:106C60002B4A2C48049303F2471306940295912172
:106C70001360A7FB000301FB0731274B0793274B4A
:106C800005934FF6FF730992022703930BAE1EA3E1
:106C9000D3E900230B970896FFF782FA4346CDE924
:106CA00000503A462846032114F098FD314615F06D
:106CB000DBFC0028B8D194F86A3043F0010384F873
:106CC0006A3018F087FC60B1002088E6122086E662
:106CD00017F02AFF032082E605F18000C5F888003E
:106CE000ABE601201FF08CFDEEE7484615F0FCFBFB
:106CF000072074E6504615F003FC484615F0F4FBF7
:106D0000F6E700BFAFF300808D49FD1A07000000D1
:106D100028D10020002AE78431BC030091ED030054
:106D200070B590F824308AB0C3F342030D46044690
:106D300001210DF1230016468DF8233013F07CFB62
:106D400071780246284617F0E5FF1F491F4AA0FB4D
:106D50000131981841F1070119A3D3E90023FFF786
:106D60001FFA23699842054621D21B1A002201927C
:106D7000174A0293174BA21AA3FB0232022192096F
:106D800000230A4409AE099113490591CDE9033363
:106D90000321D2B206960093184614F07FFD3146C7
:106DA00015F062FC38B9256100200AB070BDFBD92E
:106DB000C21A0023DBE70C200AB070BDAFF30080DD
:106DC0008D49FD1A0700000000CA9A3B8C49FD1A44
:106DD00034D100208988888831BC0300000000007D
:106DE00038B5194C9DF810E094F848C01CF0010526
:106DF00023D163F3420C400194F83230A1874FEA6B
:106E0000CE0E0EF0180E00F0200040EA0E0023F027
:106E1000380303430D4884F832309121A2FB00036C
:106E200084F848C001FB023105A3D3E90023FFF732
:106E3000B7F9C4E91000284638BD0C25284638BDEE
:106E40008D49FD1A07000000985F0020002AE784A2
:106E500010B504469DF8080022844FEA411CC0008A
:106E6000A17D00F018000CF0200C4CEA000C0C483E
:106E700021F038014CEA010CA3FB0002912184F8B7
:106E800016C001FB032104A3D3E90023FFF788F90F
:106E9000606210BDAFF300808D49FD1A070000004D
:106EA000002AE784000000002DE9F047044600F1C5
:106EB000350190F8480094F832305B4DDFF880815E
:106EC000C0F3400060F386138CB084F8323014F0C5
:106ED0003BFE94F83220A38F5448E46102F079021B
:106EE000002784F832209121A3FB0002C4E9057732
:106EF000277001FB03214AA3D3E90023FFF750F9D0
:106F0000651B626C4A4B6760AD08A3FB053502F157
:106F10000903984298BF3A46C5F3470522644FF0EB
:106F200031028CBF19460146A26005EB4502E760BD
:106F3000216148F82210064614F0B2FD236A00F1E0
:106F400009074FEA450A002B4AD00DF12C09AA4443
:106F500008EB8A030993CDF820900694A38F334859
:106F60004FF00008A3FB0002CDF80C80912101FB3B
:106F70000321236904932F4B07932F4B05934FF065
:106F8000020A27A3D3E90023CDF82CA0FFF708F9C4
:106F9000104619464FF47A720023FFF701F90435C1
:106FA000EDB2CDE9016003213B462A46CDF80080D1
:106FB000404614F013FC494615F056FB60B994F8AE
:106FC000483043F0010384F8483018F0B7F808B3AC
:106FD00000200CB0BDE8F0870C200CB0BDE8F087B5
:106FE0000DF12C09CDE90A3321694B460AAA032089
:106FF00001F096F90028AAD10B99104808A3D3E90B
:107000000023A1FB0001FFF7CBF80A9B20F07F478C
:107010001F449CE750461FF0F3FBD9E7AFF3008015
:107020008D49FD1A07000000985F0020002AE784C0
:10703000BD86F21A31BC0300C5F3030000CA9A3BB7
:10704000C4D10020000000002DE9F04F05468BB0B0
:107050008B46012002219A46144623F061F9002252
:1070600002218146012013F099F83B494FF4D47274
:10707000284613F023F8461DF6B2384B00953246E9
:107080000121002014F022FC10F0FD0F0CD0344A36
:107090003449354840F62F0335F090FD404080F3E9
:1070A00011884FF0030002DF304BA4FB0348204659
:1070B00027A3D3E900234146FFF772F82C4B20F0B9
:1070C0007F47A7FB03310722E01A02FB071168EB99
:1070D00001014FF47A720023FFF762F8CDE90170E5
:1070E000CDF800B008950695296995F939402148F1
:1070F0000491214931EA240128BF014605911F4C22
:1071000007944FF6FE710391534632460121002049
:1071100014F030FB10F0FD0F0CD0114A1149124849
:1071200040F6440335F04AFD404080F311884FF0AB
:10713000030002DFB9F1000F02D10BB0BDE8F08F00
:107140000122022110460BB0BDE8F04F13F026B823
:107150008D49FD1A07000000E85F002095F9030043
:107160005C72070020730700F86C070000CA9A3BA6
:107170008D49FD1A71590400195B04003DF90300A3
:107180002DE9F043C469228D4FF6FF739A428DB00A
:1071900000F08880054620461BF0A0FC95F82830BA
:1071A000012B00F00F81022B00F00281002B00F078
:1071B000E18094F85071002F40F0FD80E68DB4F826
:1071C0003080002E71D1AA8C08F101060023CDE990
:1071D0000A33B6B2002A70D094F93930002BC0F2CD
:1071E00048810023A4F88A3195F82630D90740F168
:1071F000EF800023A4F88E310DF12702314620469E
:107200001BF0D6F9743000F04681B4F888312BB108
:10721000B34240F20D819B1BA4F88831B4F884314D
:107220002BB1B34240F2FB809B1BA4F88431258E26
:1072300017B9A84500F0EA800135ADB294F8D13015
:1072400013F001065AD1DDE90A130A46002B40F07B
:10725000ED80002900F0DC801E461846228DE4698E
:107260000694CDE903570532A74D0290CDE90016EB
:10727000D2B201210020059514F010FB10F0FD0F93
:1072800010D015F01BFA84420CD0A04AA049A148A6
:1072900040F2155335F092FC404080F311884FF0D6
:1072A000030002DF0DB0BDE8F083AA8C4644002342
:1072B000CDE90A33B6B2002A8ED195F82630DA0726
:1072C00097D4B4F88A31002B00F08280B34240F2A8
:1072D000FA809B1BA4F88A31B4F88E31002B8BD036
:1072E0009E4280F0DE809B1B9BB20022062BA4F8FE
:1072F0008E31228600F2AC8001277DE794F9392097
:107300006FF30003002A84F8D13077DB94F876001D
:10731000C0F3C00100F0070020F0C4FBB4F86E20F9
:10732000B4F86C30134403F2D51303447A4A7B4813
:107330000721E3FB0021104671A3D3E90023FEF7E8
:107340002FFFDDE90A1320F07F422069226190427D
:1073500035BF161A801A002000260A46002B7FF43B
:107360007DAF56EA010C7FF479AF002850D0194662
:107370001E4673E794F88E3003F01803182B7FF441
:1073800018AFA18DB4F886218B1D9A42C4BF931FFC
:107390005B1AB4F88211CCBF9BB21346994200F03D
:1073A0008C80A4F88231A4F88431A4F8882100E705
:1073B0003D2784F85071394620460DB0BDE8F043B2
:1073C00018F0D6BE0023A4F88831A4F88431F0E682
:1073D000B4F88E31002B83D1628DB4F88C3140F239
:1073E000E24101FB02F242F2107101FB0323013B77
:1073F000B3FBF2F39BB2A4F88E316FE794F87700F9
:10740000012100F0070020F04FFB87E73D4615E71C
:10741000002D4BD000261146304633461EE7002390
:10742000A4F8843120461BF063F900E7304615E7E5
:1074300015F0ACF8014600283BD00023A4F88831B1
:10744000238DC3801B230371006815F069F8E5E6FE
:1074500094F939309342BFF6CFAEB8F1000F7FF404
:107460004BAFD4F878315A08DB0743D4C4F87821FD
:10747000C2E628460AAA0BA904F1D409FFF7F0F9DD
:1074800048461AF023FE18B348461AF01FFE18B3F8
:1074900000232386A5E69DF82710204618F068FEF5
:1074A00000E70821204618F063FEFBE6002FB1D16B
:1074B000F8E60123A4F88831B0E6B4F88811002971
:1074C0007FF477AE6FE73E21204618F051FEE9E6E3
:1074D000FF2018F005FED7E70246D4E91E0112F09E
:1074E00025FE0028D4D194F83C30580744BFA38D22
:1074F000238676E642F00042C4F87821FCE600BF1D
:107500008D49FD1A07000000FDF803005C720700BA
:107510006C730700F86C07008C49FD1A00CA9A3B8F
:107520002DE9F04F87B0CDE90432BDF8442003784F
:107530000292BDF84820BDF84080BDF84C50468E00
:10754000B0F82E90B0F814B1019104460392002BCC
:1075500000F0CB80013EB6B2A368D4F80C71721B68
:1075600092B2002B009209DAE168626823F00043CE
:1075700091422CBF7F18BF18A360FF1A009A638D39
:1075800013FB02F39BB2B3FBF8F218FB02F080B2DC
:1075900083421FFA82FA80F09780C01A40F2E242DA
:1075A0005D4902FB00F0A0FB010159A3D3E90023D0
:1075B000FEF7F6FD20F07F400744D94494F83930B7
:1075C0004D44AD1B554440F2E246DB09E58506FB20
:1075D00008F500F08E80226C0099A36CDFF838B1BA
:1075E00002FB1133A36420F049FC814694F8740136
:1075F000C0F3420020F044FC059B814406FB03F3EA
:1076000005FB09F9236509F57429444B09F23F2963
:10761000A3FB09394FEA994303FB0AF02364A5EB66
:107620000309A36C6A080344963A934228BF1346A1
:10763000C4E911230023C4F87C31A0FB0B0134A35F
:10764000D3E90023FEF7ACFD049B3F1A3448A0FBAE
:107650000330800A06FB00F02DA3D3E90023A0FB32
:107660000B01FEF79DFD20F07F46029BA385039B47
:10767000A4F88C3129462046A4F82A801AF0D4FFB9
:10768000284BA18D2B44881DB3FBF5F39AB2904291
:10769000A4F8862102D2521A063A92B2019BA4F8AB
:1076A000822113B10023A4F88E313B464A4631466D
:1076B0002046FFF7C9FC94F8803143F0010384F8B9
:1076C000803107B0BDE8F08F08FB1231124840F25C
:1076D000E24389B203FB01F1A1FB00010CA3D3E952
:1076E0000023FEF75DFD3F1A67E74E445E44B6B2E5
:1076F00032E7049B0848A3FB000105A3D3E900235C
:10770000FEF74EFD20F07F46A9460136ADE700BFEB
:107710008D49FD1A0700000000CA9A3B83DE1B4317
:107720005917B7D17FC3C9012DE9F04F04460B6843
:10773000077F1668D3F800A0638CD0F81E0095B0C0
:1077400015464A7CADF84C30FF2AC7F380138946B2
:107750000D9212908DF83F3072D198461A4612ABB6
:1077600093E803000DF1400B1090ADF84410F809B8
:107770000AF1710127680A915B460C900B9718F08B
:10778000DFFB0A99002843D196F89A310C9A0A90A7
:1077900068F3410362F3000386F89A311098BBF84E
:1077A0000430C6F8A101A6F8A531DAF87130C6F8A0
:1077B0009B318B88A6F89F31E38D94F83010A97225
:1077C0002B81D4F82A306B60D4F83A30AB6105F1E4
:1077D000180094F83E300371052112F02DFE6B7FE6
:1077E00000F03F0060F305036B7794F83F30C3F37C
:1077F0000401A977A18EE981012803F01F0389B252
:1078000006D91B3303F01F030B2B01D80A9A59BB6F
:107810000022CAF8142095F820300B9862F3000378
:1078200085F82030E56801262146267114F06EFEA9
:1078300028682E71294614F073FE15B0BDE8F08F4C
:107840000DF1400B10460DF13F015A461EF04EFD62
:107850009DF83F80277F08F102085FFA88F88DF8CD
:107860003F8008F0010282E7D9F800305A60E38EC9
:107870002B82EB8940F2E24808FB03F71146638E46
:107880000A9330461AF0E4FE94F83F3096F87421DB
:107890005B0963F3430286F8742120F0EFFA0C9041
:1078A00096F87401C0F3420020F0EAFA0C9B1844E9
:1078B00007FB00F0BA4B00F5742000F23F20A3FB59
:1078C00000307B08800C963B6862AB6294F83130E4
:1078D00008FB03F3AB63238FA6F88C31394630469F
:1078E0001AF0A2FEAF4BB04AC6F890213B44B3FB5E
:1078F000F7F39AB2A6F88621298A881D824204DD10
:10790000C1F57F41FA310A4492B2A6F882216B6830
:10791000C6F87831234613F81C2FC2F34018DA0753
:1079200000F104814FF48073A3839AF826001FF0BE
:1079300037FA04F12B03002800F0EE80626AC4F8E5
:107940002B20228D9A800D9BFF2B00F0E980BDF843
:107950004C301298A4F82930C4F82500BBF8043044
:10796000A4F8233010989DF83F30C4F81F00A37787
:10797000EB8963862B8AA386B6F88C31E38696F86A
:107980007431C3F3420384F83830304618F03AF8C3
:10799000A881E08021460B98D9F8044014F0B6FD88
:1079A000AB89E3801C23D4F800B02371B8F1000F39
:1079B00040F0D18084F81C802146584614F0B0FD78
:1079C00095F85B00B5F85080B5F85240012100F001
:1079D000070020F069F8444404F2D514DFF8D4819C
:1079E0000444834671480721E4FB08013123002445
:1079F000B360746068A3D3E90023F460FEF7D0FBA2
:107A000020F07F4030616D6A0A9A7D1BD9F80C70B6
:107A100040F2E24303FB027702212246012012F0EA
:107A2000BDFB504617F070FB07F2B2470246A7EBCA
:107A30000B07A7FB0801174657A3D3E90023FEF75E
:107A4000AFFBCDF804A0D9F808305949009120F0D7
:107A50007F48BA1C3A3BD2B220464344012113F07E
:107A600077FF012800F082809AF82430DB076AD47F
:107A7000304617F0C7FF4F4BA5FB035A044646A3F9
:107A8000D3E9002328465146FEF78AFBD9F808308F
:107A9000494A0792A3F13A09484B069620F07F47DE
:107AA000A7FB0331E81A464B059340F2D113089324
:107AB00033694FF0000BCDE903B34FF0070303FB2D
:107AC00007116AEB01014FF47A720023FEF768FB9D
:107AD0000534E4B2CDE90170CDF800804B46224672
:107AE0000121584613F046FE10F0FD0F0CD0354A28
:107AF000354936484FF4E97335F060F8404080F37B
:107B000011884FF0030002DF01220221104612F01B
:107B100045FB15B0BDE8F08FC4F82B00988012E744
:107B20000022C4F82520A4F8292017E7254A28496F
:107B30002648F82335F042F8404080F311884FF092
:107B4000030002DFEEE600230122009318461146EF
:107B500013F0BCFE8CE76B7F43F040036B77281D6E
:107B60001EF0BCF94FF00108E88323E714F0A6FDEE
:107B700082453FF479AF134A1649144840F27923FD
:107B800035F01CF8404080F311884FF0030002DF0D
:107B90006AE700BFAFF300808D49FD1A07000000BF
:107BA00083DE1B437FC3C901404B4C008C49FD1A47
:107BB0003559040000CA9A3B055904008D49FD1A45
:107BC000715904000C78070020730700F86C070057
:107BD000BC6F0700687807002DE9F04F8DB01F4695
:107BE000BDF860300793CDE90501BDF868309DF818
:107BF0005C90BDF864B004930020164617F0F8FCC2
:107C0000002800F0658109F001080446404613F0A1
:107C10008BFF0390B8F1000F6DD1169B03993A4684
:107C2000404618F08DF9002840F06381236A04F182
:107C30001C020892002B65D0D4F820A0DAF800507E
:107C400007F0010B9AF85A00C0F3C00100F00700DA
:107C50001FF028FFBAF85210BAF8502000F2D513DE
:107C60000A441344CC48CD4A0721E3FB00211046C7
:107C7000C7A3D3E90023FEF793FA20F07F402861E1
:107C800030461EF0FDFD94F833306FF3410384F865
:107C90003330FF2384F83430002E00F01D81A9F129
:107CA0000203012B40F2298194F84810089869F3E7
:107CB000420184F8481094F833106BF30001DDE9B9
:107CC000052384F83310169909686162169989882A
:107CD00021850499218600960021FFF7B9F8606498
:107CE00020F07AF8002840F013812046FFF7DCF8F6
:107CF0000DB0BDE8F08F062112F0F4F900288CD108
:107D00001220F5E714F0EAFB0990002800F07381D7
:107D100017F06CFE0546002800F06A81203012F052
:107D20009FFB05F11C0A002840F01D81032105F18D
:107D300024001FF06BFD079BD5F888006B854FF67C
:107D4000FF73A5F82CB02B85002800F0198105F1F0
:107D50007C0205F1780112F0D1F9B5F8763023F400
:107D6000EF6323F0070343F4887343F00103A5F89E
:107D7000763095F88E304FF0000B23F0070385F82E
:107D80008E300121C5F888B0A5F88CB0284618F0CF
:107D900031FDC5F82EB0A5F832B005F134001EF063
:107DA00047F895F8393060F30503012185F839303B
:107DB0000DF12F001FF02AFD049B9DF82F20A5F840
:107DC0008C31774B85F83BB0A3FB0213DB0803EB48
:107DD0004303A2EB830295F83930A98DA5F88EB143
:107DE00003F03F0385F8393095F83C30A5F884B1AD
:107DF000053223F0030385F83A20079A85F83C30D2
:107E000040F2E24B674B0BFB02FB4FF4C0225B449A
:107E1000C5F88821881DB3FBFBF39AB28242A5F80E
:107E2000862102DD063A521A92B2A5F8822128462E
:107E30001AF082FB594628461AF0F6FB099BC5F852
:107E40005431002385F8503118F06EF895F89421DC
:107E500060F3020285F8942118F06CF895F89421EB
:107E600060F3C50285F8942195F88021002363F31F
:107E7000410285F8802105F1D4001AF0E5F895F863
:107E80009A21169907F0010B6BF3410285F89A21AC
:107E90003122AA600023169A6B60EB601268C5F865
:107EA000A12195F89A218988A5F8A51169F3000206
:107EB000039985F89A210A68C5F89B218A88A5F854
:107EC0009F21C4F820A0C5E905332B70ED61B9E608
:107ED0000C200DB0BDE8F08F1FF012F900283FF420
:107EE000DEAE1699384632461EF044FE84F8340061
:107EF000D5E60B200DB0BDE8F08F00201EF0E4FCAD
:107F000094F8333043F00203C14684F83330CBE6B3
:107F1000256AEB6E63B1244A2449254840F21D438B
:107F200034F04CFE404080F311884FF0030002DF34
:107F300005F1600105F15C0012F0E4F80646002846
:107F40003AD02F68EE66D7F85451002D42D028461B
:107F500014F0CAFA384617F04FFD002303202362BD
:107F60000DB0BDE8F08F104A12491148C12334F01A
:107F700025FE404080F311884FF0030002DFD5E674
:107F800005F18000C5F88800E1E600BFAFF300808E
:107F90008D49FD1A0700000000CA9A3B8C49FD1A62
:107FA000ABAAAAAA7FC3C90198780700507107003D
:107FB000F86C0700546D0700104A1149114840F24F
:107FC0001F4334F0FBFD404080F311884FF0030065
:107FD00002DFB6E7094A0A490A4840F2264334F06C
:107FE000EDFD404080F311884FF0030002DFAEE763
:107FF000099814F079FA07207AE600BF987807000C
:10800000AC720700F86C07002DE9F04F04468DB004
:1080100090F81C80238D406AADF82C30E307C8F33C
:10802000C0170E461546C8F340180A9000F10D819E
:108030000023A383B37C707C13F001031CBFD4F82E
:108040001E30C4F82B3004F12B0214BF638CC4F82B
:108050002B30FF28938004F1250904F11F0240F022
:10806000E5800023BDF82C100A98C4F82530A9F843
:108070000430A777C4F81F0091803368D3F80090CC
:10808000EB8963862B8AA386B9F83030E3861FF02C
:10809000F3FE84F838002F68384617F0B3FC00214F
:1080A000A881E08038461AF0D3FAD6F804A02068F8
:1080B000214614F02BFAAB89AAF806301C23DAF813
:1080C00000408AF80430B8F1000F40F0CC808AF804
:1080D0001C805146204614F023FABB687A6895F854
:1080E0005A00B5F80E80F568674C934238BF1346C6
:1080F000C0F3C00103F1090A00F0070040F2E243B7
:1081000003FB08F81FF0CEFC002202212D1A0120EB
:1081100012F044F8484617F041FAA5FB044558A36D
:10812000D3E90023834629462046FEF739F8CDF8E7
:108130000490B3685549009120F07F490BF1040287
:10814000A3EB0A03D2B24B440121002013F000FC40
:1081500010F0FD0F0CD04E4A4E494F4840F23D33CF
:1081600034F02CFD404080F311884FF0030002DF13
:108170004FF0000B5B4603220121CDF800B05846BA
:1081800013F0A4FB384617F03DFCB36806463E48A2
:10819000A3EB0A0AA8FB000139A3D3E90023FDF7EA
:1081A000FFFF19463D4B08933D4B069340F26D335C
:1081B000079709933B698046CDE904B31046002335
:1081C0004FF47A72FDF7ECFF364B0722A9FB03311F
:1081D000CDE9028002FB0911E01A65EB01014FF4C1
:1081E0007A720023FDF7DCFF0536F6B2CDE9009088
:1081F000534632460121584613F0D8FA10F0FD0FCD
:108200000CD0234A2349244840F26E3334F0D6FC84
:10821000404080F311884FF0030002DF0122022169
:1082200010460DB0BDE8F04F11F0B8BF04F11E01CB
:108230001EF05CF8A37FBDF82C200A98C4F8250036
:108240000233A377A9F8042017E7114A1649124808
:1082500040F2BD2334F0B2FC404080F311884FF06F
:10826000030002DFE4E66B7F43F040036B77281DD9
:108270001DF034FE4FF00108E88328E7AFF30080DB
:108280008D49FD1A0700000000CA9A3BE55A040018
:108290009878070020730700F86C0700E95A04007B
:1082A000195B04008D49FD1ABC6F07000000000037
:1082B0000538C3B2052B0CD870B580B20D4617F047
:1082C000A9FB044618B190F93930002B03DA0020DD
:1082D00070BD0020704790F876000F4EC0F3C001CB
:1082E00000F007001FF0DEFB0C4A00F2B55007213A
:1082F000E0FB0621104606A3D3E90023FDF750FF5B
:1083000020F07F402860204670BD00BFAFF30080A2
:108310008D49FD1A0700000000CA9A3B8C49FD1ADE
:108320002DE9F04F93B0FF240B930B1D0A9300230C
:10833000CDE90E33054616468DF837409B464FF083
:10834000040A1F469946984610AB0693564B059370
:10835000564B03930FAB01930EAB00200093022307
:1083600010930490029033460DF13702294613F022
:1083700033FB022815D0109BCBB9FF2C26D03368D5
:10838000BB4223D0BAF1000F40D00AF1FF3AFF24DC
:108390005FFA8AFA8DF83740D6E72946002013F0B5
:1083A00067FB109B022BF8D0109B002BE5D0404AB6
:1083B000404941484FF4F77334F000FC404080F3EB
:1083C00011884FF0030002DFFF2CD8D19DF8370051
:1083D000FF2829D011A9FFF76BFF0028B4D0FF2C8C
:1083E0000E9F119B0AD041463846099313F05AFB61
:1083F0000A9B03EB09029042099B17D8B8469DF8E7
:1084000037403768DDF83CB099469DE72B49284A4C
:1084100029484FF4FB7334F0D1FB404080F31188BE
:108420004FF0030002DFB0E7FF2C34D024480721CF
:10843000A9FB000301FB093119A3D3E90023FDF7D0
:10844000AFFE044600B140341E4AABF57423A3F5D9
:108450001073934216D81A480721A8FB000301FBAA
:1084600008310FA3D3E90023FDF79AFE164BA3FBB7
:108470000B2304EB93440B9B044400201C6013B0BB
:10848000BDE8F08F0BF1E87B0BF5D43B08F1FF382A
:108490000BF5A57BDFE76FF0090013B0BDE8F08FA7
:1084A00000CA9A3B00000000F55D0400F95D04007D
:1084B000E478070028790700F86C07003079070096
:1084C0008D49FD1ABFBDF07F83DE1B430000000015
:1084D0002DE9F043C668476873683D491A68D0F8CB
:1084E0000090A7F57423A3F510738B4283B08046E8
:1084F00007D907F1E87707F5D43709F1FF3907F510
:10850000A57773681169DD89CDF8049006F1100331
:1085100001AA0220FFF704FF00284ED10199A1EB28
:1085200009031B0237D40846494613F0BBFA034639
:1085300028480721A3FB000201FB032122A3D3E962
:108540000023FDF72DFE34690444002C346109DB5F
:1085500040F2E24305FB03F3A3422FD2E41AA34205
:10856000FCD33461D8F800301A48A3EB0903A3FB0D
:108570000002072101FB032113A3D3E90023FDF728
:108580000FFE154BA3FB0737A0EB9740204430614B
:1085900003B0BDE8F083484613F084FA03460D4863
:1085A0000721A3FB000201FB032107A3D3E900235A
:1085B000FDF7F6FD3469241AC7E73469002CD1D1E0
:1085C00003B0BDE8F08300BF00CA9A3B0000000082
:1085D000BFBDF07F8D49FD1A83DE1B430000000004
:1085E00010B5334C3349002304F1FF3C14F8332019
:1085F000072A02EB820E05D811F83E206FF34512D0
:1086000001F83E201CF833206FF300020CF83320F1
:108610000133082BEAD1284A284C002313700A782A
:1086200063F300020A7091F8282063F3000281F8D6
:10863000282091F8502063F3000281F8502091F82F
:10864000782063F3000281F8782091F8A02063F38A
:10865000000281F8A02091F8C82063F3000281F89D
:10866000C82091F8F02063F3000281F8F02091F81F
:10867000182163F3000281F81821114A9FED0A7B4B
:108680001370104B83ED007B0F4B236028B1BDE8C6
:1086900010400E490E4845F0DFBCBDE810400C48C4
:1086A00045F0E8BCAFF30080FFFFFFFFFFFFFFFFD7
:1086B00001E40020C0E2002069FC0020D0E100209D
:1086C00068FC0020086A0020A0BB0D00B56A040009
:1086D000D8690020000000002DE9F04F8FB00DF1A7
:1086E00037010446DFF8E0A0DFF8E0800DF1360046
:1086F00013F094FF9DF836309DF837B00B9313F0CC
:10870000CFF9DAF80060A6FB085629A3D3E90023C5
:108710000027814631462846FDF742FDCDE907771F
:10872000069420F07F44DAF80400234B0593A0FB65
:1087300008011FA3D3E90023FDF732FD1F4B20F0F2
:108740007F40A4FB0331072202FB0411CDE9037033
:10875000E81A66EB01014FF47A720023FDF720FD61
:108760000097CDE901404B460B985A46032113F080
:1087700001F810F0FD0404D06FF08B000FB0BDE8DD
:10878000F08F0F480F4A002330F0A0FB20B9DAF831
:108790000C000FB0BDE8F08F9DF837209DF8360033
:1087A00000942346032113F091F86FF07300E5E77E
:1087B0008D49FD1A07000000057204008D49FD1A5D
:1087C00074E40020447B0B008CE4002000CA9A3B38
:1087D00038B50F4D044613F063F9A96813F062F938
:1087E000696803460B48B3FBF4F4A1FB00011C4489
:1087F00005A3D3E90023FDF7D3FC20F07F4084429A
:1088000094BF0020012038BD8D49FD1A07000000EB
:108810008CE4002000CA9A3BF0B5C468636883B05A
:108820000546002B63D121F0C1F8082021F0E4F8BF
:108830000021084621F0D2F800222521082021F04D
:1088400011F9454B019301A821F0F4F8434940F296
:108850005B6021F09FF9237AC3F3420262F30613AF
:10886000204623721FF02AFD1EF04AFC58BB637A93
:108870009B071FD127682E6838461FF0B1F80644C1
:108880006A6806F10901012021F0DEFA21F0CAFB35
:10889000204616F045FC811C3246C9B238461FF00E
:1088A000ADF8054670BB20461FF034F888B90020AB
:1088B00003B0F0BD01201DF097FF4178821C0078C5
:1088C00021F062FAD6E7607A10F0030018BF0120A9
:1088D000F1E7234A2349244840F22C4334F06EF94F
:1088E000404080F311884FF0030002DFDFE793F888
:1088F00020309A0797D01D48214621F015F821F025
:1089000003F9D4E7164A1A49174840F2144334F0E1
:1089100055F9184B0721A5FB030301FB05310CA3F7
:10892000D3E90023FDF73CFC13490246134834F019
:1089300045F9404080F311884FF0030002DF1048F2
:10894000214620F0F1FF21F0DFF86FF08B00AFE758
:1089500000CA9A3B00000000D6BE898E55555500CE
:10896000DC7C0700646E0700F86C0700857B040060
:10897000786D07008D49FD1A8C7D0700607D07002A
:108980008D7E0400000000002DE9F041C46894F9D8
:108990001630002B8CB0C0F2FF80636805460E468F
:1089A000002B40F0EE80A37D6FF30003A37520F051
:1089B000FDFF082021F020F80021084621F00EF8E4
:1089C00000222521082021F04DF8012013F028FF76
:1089D0000746002800F0C78007F11C0021F06CF862
:1089E000874B0B930BA821F025F8864940F25B607A
:1089F00021F0D0F8A07DC0F3410025301FF010F821
:108A00008148214620F090FFA37D9B0603D4636834
:108A1000002B00F0A580962021F00AFA00231A46C8
:108A20001946184621F01CF91EF06AFB002838D1BF
:108A3000A37D13F0180F59D1D4F800802F68404659
:108A40001EF0CEFF07446A6807F10901002021F0FB
:108A5000FBF921F0E7FA21F073F9204616F0ACFD9E
:108A6000011DC9B240463A461EF0C8FF80460028A4
:108A700040F0998016B9636A002B4ED1636843B108
:108A8000624B0122022100209D6011F0BDFB0028F5
:108A900035D120461EF03EFFD0B900200CB0BDE815
:108AA000F081A07DC0F3C0001DF09EFE07460DF1D1
:108AB0002B001EF09DF979788046BA1C387821F099
:108AC00063F99DF82B000022414621F07BFBB3E7C0
:108AD0004F4A5049504840F20B2334F06FF8404061
:108AE00080F311884FF0030002DFD6E701201DF06C
:108AF0007BFE4178821C007821F046F99CE7444ACD
:108B00004649454840F2062334F058F8404080F387
:108B100011884FF0030002DFBBE7414A0792414A48
:108B2000059240F2F31200930892CDE90366CDE975
:108B3000016606943B463146032212F01BFE10F0FC
:108B4000FD0F9BD0324A384933484FF4FA7334F062
:108B500035F8404080F311884FF0030002DF8DE7C5
:108B600021F0DEF860E72A4A30492B484FF4C573FC
:108B700034F024F8404080F311884FF0030002DF06
:108B80002AE7636893F82030D90705D4636893F81F
:108B900020309A077FF507AF2548214620F0C4FE14
:108BA00020F0B2FF79E71A4A22491B4840F2E51348
:108BB00034F004F8204B0721A8FB030301FB083124
:108BC0000DA3D3E90023FDF7EBFA1C4902461C482C
:108BD00033F0F4FF404080F311884FF0030002DFD0
:108BE0001848214620F0A0FE20F08EFF6FF08B0089
:108BF00054E700BFAFF3008000CA9A3B00000000BA
:108C0000D6BE898E55555500E98C02003C230020C4
:108C1000987D0700646E0700F86C07006C6E070013
:108C2000058A0400A58A04009C700700287D0700BF
:108C3000857B0400786D07008D49FD1AE47D0700EF
:108C4000607D0700E188040038B504461FF0F8FD98
:108C5000A37DA27DC3F34103013303F00303032B80
:108C600008BF002363F3420214BF03F1250025204F
:108C7000A2751EF0D5FE63680BB123694BB912F0E3
:108C80000FFFC11C002021F053F9BDE8384021F04E
:108C9000C9B921F07BF9054612F002FFC11C002082
:108CA00021F046F921F0BEF921F070F9294612F0C1
:108CB000F9FE0B4A03460721A0FB020201FB032138
:108CC00005A3D3E90023FDF76BFA23691B1A23617F
:108CD00038BD00BFAFF3008000CA9A3B000000001F
:108CE0008D49FD1A000000002DE9F0478AB00446C6
:108CF00020F03CFFC0B250B91EF0EAFEC448214645
:108D000020F012FE0AB0BDE8F04720F0FDBE20F0D2
:108D10004DFF054621F06CF8074621F073F88146B7
:108D200021F0AAFA064621F089FA824621F022F8BB
:108D3000EDB2804621F002F81EF0CAFE002DDDD013
:108D4000012013F06DFD0546002800F04D8117F05D
:108D5000FF07F6B240F0E380002E40F0DA804FF0DB
:108D6000FF093A464B46314620461FF08FFF002848
:108D7000C4D02A7F616800238DF823305FFA88F71A
:108D800002F00F03002900F0EC80616891F82010D8
:108D9000880700F1E680072BB0D0A17D090740F1DC
:108DA0004381002B40F0C4806B7F063B1F2BA5D86E
:108DB000042013F035FD0028A0D021F03BF9636AB0
:108DC000074643B9238C40F2712202FB03F3B0FB48
:108DD000F3F203FB120723681A698E4B0721A2FBEB
:108DE000030301FB023188A3D3E90023FDF7D8F97F
:108DF0006FF44A7C00EB0C03BB42FFF47FAF20F022
:108E00008FFF484663681DF0D9FFE37D99078046D0
:108E100040F1E581002800F0E2818246012720F040
:108E2000D3FECDE9027A09AB049305F11E03019349
:108E30002B7FC3F3801301460746009300220123D2
:108E400020461FF03DFF384620F03CFE20F084FE17
:108E5000002840F0CA817048214620F065FD626814
:108E600092F8203043F0010382F82030A37D43F0D4
:108E70008003A37513F0F6FC172202714FF6FF7200
:108E8000C28095F81CC082463B46CCF3401C00F1E2
:108E90001C0207F1200E1D6858689968DF68D760CA
:108EA0001033734515605060916002F11002F2D1E9
:108EB0001B6813609AF81C30CAF808406CF345131D
:108EC0008AF81C3021F062F8002ECAF81000099BC5
:108ED000CAF8143008BF4FF0FF098AF81990E37DF3
:108EE00013F0020303D0B8F1000318BF01239AF86E
:108EF0001A2063F300028AF81A2013F0B3FCCAF8B0
:108F00000C00DAF8000051460AB0BDE8F04713F053
:108F1000D7BC5FFA8AF01DF0DFFF814621E7A07D14
:108F20005FFA89F1C0F3C0001DF06CFF814618E7BD
:108F3000012B40F089806A7F0C2A7FF4DFAE2A7F04
:108F4000CDF80090194600230193D20905F12403BE
:108F500020461FF0EFFD00287FF42AAF2B7F03F09F
:108F60000F03002B70D16B7F052B7FF6C7AE252B2F
:108F70003FF6C4AEA27D02F02102202A09D1626828
:108F8000002A00F0C180052B7FF6B8AE252B3FF6F6
:108F9000B5AE63682BB12B7F03F00F03072B7FF473
:108FA000ADAE03209DF8238013F03AFC054600285F
:108FB0003FF4A4AE13F056FC4FF6FF73EB8005238D
:108FC0002B71002F3CD17F20AB7E2876002E08BF6E
:108FD0004FF0FF0968F34103286885F81990AB76D4
:108FE000294613F06DFC89E60C4A0D490D4840F204
:108FF000C72333F0E3FD404080F311884FF00300B6
:1090000002DFA4E6AFF3008000CA9A3B0000000034
:10901000F98804008D49FD1AE98A0400987D07004B
:10902000287D0700F86C0700B9F1FF0F8DF8249038
:10903000C2F380184BD0227E91453FF4B2AE90E748
:1090400020F088FEC0B2BFE7062B8CD04521D94066
:1090500011F0010139D1012B10D16B7F0C2B7FF462
:109060004DAE2A7FCDF800900DF123030193D20974
:1090700005F1240320461FF05DFD08BB2B7F03F0A4
:109080000F03042B7FF43AAE6B7F063B1F2B3FF69A
:1090900035AEA37DDB077FF531AE20F095FD2B7F4C
:1090A0000278C3F38013B3EBD21F7FF427AE0830EE
:1090B000062205F11E0145F0F1FC00287FF41EAEEA
:1090C0006B7F002B7FF465AF18E66B7F5BE705F1E4
:1090D0001E0A09AA514640461DF0B4FF00283FF47D
:1090E0003DAFE37D03F0010343457FF437AF5146C5
:1090F000062204F1080045F0D1FC00287FF42EAFD1
:109100002B7F03F00F034CE69620079220F090FE91
:10911000079A104620F05CFD032013F081FB804687
:1091200000283FF4EBAD13F09DFB4FF6FF73A8F85A
:109130000630052388F80430002F64D17F23002EE9
:1091400088F8183014BF4B46FF2388F8193098F878
:109150001A30D8F800006FF3410388F81A304146FE
:1091600013F0AEFB20F030FD06460322337862F3A5
:10917000030333702B7F3278C3F3801363F3C7127A
:109180000C233270484673701DF018FEE27D920782
:109190003DD500283BD03178324641F0400102F8FD
:1091A000021B0168C6F8021083889380D5F81E3030
:1091B000B3606B8CB381304620F084FC20F0CCFC93
:1091C000002835D120F02EFFA37D204843F0010375
:1091D0002146A3750AB0BDE8F04720F0A5BBA77DE6
:1091E00004F1190AC7F3801719E6194A19491A48F0
:1091F00040F2A44333F0E2FC404080F311884FF08A
:10920000030002DF27E620F0A5FDC3B297E7A37DA8
:109210003278C3F3801363F38612334603F8022BCC
:10922000D4F81920C6F80220B4F81D209A80BDE7B2
:10923000074A084908484FF4A56333F0BFFC404093
:1092400080F311884FF0030002DFBBE70D890400B3
:10925000987D0700307D0700F86C070000000000D3
:109260002DE9F041C468A2894FF6FF739A4282B09B
:1092700000F0C78005461FF027FE2B89628AE08A2E
:109280001A4492B21044637FA28280B2411CE182F0
:109290005E064FF00001618204F1180100F18C803C
:1092A00003F03F000B46A17F009004F11F001CF06B
:1092B000CDFD0646D4E90B231344D4E90D02002169
:1092C0000244E1626163A16AA26394F872208B4256
:1092D00028BF0B4612F00402236377D020F066FB10
:1092E000082020F089FB201D20F0A4FB2389A17A0F
:1092F00040F25B6043EA014120F04CFC30461EF036
:109300008FFB2146584820F00FFB962020F090FD5F
:1093100094F85A2094F85B00C2F3C003002102F0D5
:10932000070200F0070020F09BFC20461FF02EFEF5
:1093300027682E6838461EF053FB06446A6806F11B
:109340000901002020F080FD804620F03FFE002033
:1093500020F056FE236B94F85B0003F13002A36B00
:1093600000F00700012103EB420520F0B9FB454462
:10937000054494F85B0000F00700022824D004287C
:109380000CBF4FF4BC73282301211D4420F0AAFB1D
:10939000284420F00DFEA18905313246C9B2384675
:1093A0001EF02CFB054698BB20461EF0B3FAD0B940
:1093B000002002B0BDE8F0810A4603F03F03E18BD4
:1093C0001CF090FD064675E71823DDE7D4E9170188
:1093D00010F0ACFE002881D194F8723043F0040301
:1093E00084F872307AE7214A2149224840F2551325
:1093F00033F0E4FB404080F311884FF0030002DFBC
:10940000D6E71D48214620F08FFA20F07DFBCFE7FC
:10941000164A1A49174840F24B1333F0CFFB184B4A
:109420000721A5FB030301FB05310DA3D3E90023AD
:10943000FCF7B6FE13490246134833F0BFFB404029
:1094400080F311884FF0030002DF1048214620F01E
:109450006BFA20F059FB6FF08B00AAE7AFF30080A6
:1094600000CA9A3B00000000E5910400647E0700FA
:10947000646E0700F86C0700857B0400786D0700B8
:109480008D49FD1AB87E0700607D0700617B0400EE
:10949000F0B5C468A2894FF6FF739A4285B000F018
:1094A0008B8005461FF010FD2B89628AE08A1A44E2
:1094B00092B21044637FA28280B2411CE1825E06B8
:1094C0004FF00001618204F118015FD403F03F0006
:1094D0000B46A17F009004F11F001CF0B7FC06466C
:1094E000204603A91FF020FE039B94F872101A78FF
:1094F00061F3C3021A70039A94F872301178C3F3BF
:10950000400363F38201117020F050FA082020F02C
:1095100073FA201D20F08EFA2389A17A40F25B6055
:1095200043EA014120F036FB30461EF079FA0399F8
:1095300020461FF0CDFD2146374820F0F5F9962052
:1095400020F076FC94F85B0000F0070020F040FB70
:1095500027682E6838461EF043FA06446A6806F10A
:109560000901012020F070FC20F05CFDA18905318B
:109570003246C9B238461EF041FA054618BB2046AD
:109580001EF0C8F950B9002005B0F0BD0A4603F03E
:109590003F03E18B1CF0A6FC0646A1E71F4A2049C9
:1095A000204840F2031333F009FB404080F3118858
:1095B0004FF0030002DFE6E71B48214620F0B4F934
:1095C00020F0A2FADFE7154A18491648F92333F0CC
:1095D000F5FA174B0721A5FB030301FB05310CA38B
:1095E000D3E90023FCF7DCFD12490246124833F0B0
:1095F000E5FA404080F311884FF0030002DF0F4886
:10960000214620F091F920F07FFA6FF08B00BBE744
:1096100000CA9A3B0000000019900400C47E0700B5
:10962000646E0700F86C0700857B0400786D070006
:109630008D49FD1A147F0700607D0700617B0400DF
:109640002DE9F0472DED028B9FED498B4A4E84B0FA
:1096500004464FF02003EFF3118783F31288BFF322
:109660006F8FD4F8C8508DB9022104F1E00044F0A6
:109670003CFC002843D100238DED008B029304F1C4
:10968000D00239463D4830F0FFF8E2E7D4F8CC206C
:109690002B68C4F8C830954208BFC4F8CC30D4F861
:1096A000E03043F00203C4F8E030EB6823F0040339
:1096B00043F00103EB606B6887F31188BFF36F8F92
:1096C000284698474FF02003EFF3118983F312885F
:1096D000BFF36F8FEB68990723F0010219D4EA609A
:1096E000D4F8E03023F00203C4F8E03089F31188A5
:1096F000BFF36F8FDB05ACD42FF0A6FFA9E704F111
:10970000D80500220121284644F0F5FD0028F8D1B3
:10971000B1E7306823F00303EB600028E0D00027B6
:10972000D0F80080BA460028DAD042689542014657
:109730000BD1016897B972683160824200D17160C3
:1097400040F808AB2FF09CFB3946B8F1000F0BD066
:10975000D8F8002040460F469046E4E7396072682A
:10976000824208BF7760EBE74246F3E7AFF3008041
:10977000FFFFFFFFFFFFFFFF6CF9002096FD0020B9
:10978000F8B510EE904A34F000472DED048B10EE42
:10979000103AB0EE609A0DD183F480035B0013F5AC
:1097A000000F40F2098230EE098AB0EE480ABDECA3
:1097B000048BF8BD23F00040B0F1FF4F02D8B7F1A1
:1097C000FF4F08D9B3F17E5FEDD184F480046400CB
:1097D00014F5000FE5E7002B01462DDAB7F1974F9E
:1097E0000CD3B7F1FF4F2AD00225B4F17C5F41D1F1
:1097F000002BC0F28F80B1EEC08AD6E7B7F17E5F52
:1098000031D3FA15C2F1960247FA02F505FA02F2CF
:10981000BA423DD1B7F17E5F4AD1002C80F2D281AD
:10982000B5EE400AF1EE10FA50D1D80FBDEC048B22
:10983000BDE8F84030F0B0BEB7F1FF4F3DD1B0F118
:109840007E5F00F0B98108D9DFED977A002CB4BFB4
:10985000B0EE678AB0EE498AA7E7002C80F2AF81AC
:10986000B1EE498AA1E7B4F1804F34D0B4F17C5F06
:109870005CD0002523F04042B2F17E5FB0EEC08A9A
:109880003FD1002CBCBFB7EE007A87EE088A29E0F2
:10989000B7F17E5FC1D00025B4F1804FEAD1B0F1BD
:1098A000BF4F1AD2B0F1D05F29D920EE008A7CE7F1
:1098B00005F00105C5F10205EEE7B7F17E5FACD01A
:1098C000B4F1804F4FF00005E9D08EE7B7EE007A93
:1098D00087EE008A69E70025E1E7B0F1FF4FB0EEBF
:1098E000C08A35D1002BBFF660AFA0F17E5028436F
:1098F00016D1BDEC048BBDE8F84030F05BBEB0EE95
:10990000C08A28BB002C1EDA002B8FDA6B1E58424F
:1099100058418BE7B0F1FF4FB0EEC08A40F055815F
:10992000012D7FF442AFB1EE488A3EE7B0F1FF4F20
:10993000B0EEC08A3FF439AFB0F17E5FD9D00028D5
:109940003FF433AFD5E7012D08BFB0EE408A2CE7D6
:10995000DE0F013E55EA0602CBD0B7F19A4F40F236
:109960004081524B984208D8002C0BDA0020BDEC05
:10997000048BBDE8F84030F001BE4D4B984208D949
:10998000002CF3DC0020BDEC048BBDE8F84030F087
:10999000E7BDB7EE007A38EE478ADFED467ADFEDB5
:1099A000469A3FA1D1E9000168EE278AFCF7A8FB9F
:1099B00007EE900AB5EE007A48EE477AB6EE007AE6
:1099C00007EEC87A68EE087ADFED3C6A27EE277A60
:1099D000F0EE687A47EE667A68EE299A39EEA77A51
:1099E00017EE103A23F47F6323F00F0307EE103ACB
:1099F00077EE699A77EEE97A013D24F47F64354386
:109A0000B7EE007A24F00F04BFEE008A18BFB0EE64
:109A1000478A07EE104A67EE890A39EE477A07EE61
:109A2000903A47EE270A07EE104A67EE877A30EE43
:109A3000A77A17EE101A002921F000431ADDB3F1BE
:109A4000864F09D9B5EEC08AF1EE10FA4CBF01205D
:109A500000208CE70120E5E036D1DFED196A37EE12
:109A6000677A70EEA66AF4EEC76AF1EE10FAE9DCE6
:109A700086232DE0134A934207D9B5EEC08AF1EE52
:109A800010FA4CBF012000207DE71DD137EE677A28
:109A9000B4EEE07AF1EE10FAEADBEEE7AFF3008025
:109AA000E13D55555555D53F00000000F3FF7F3F80
:109AB0000700803F70A5EC3600AAB83F3BAAB83F2C
:109AC0003CAA383300001643B3F17C5F6FD9DB1535
:109AD0007E3B4FF4000018410844C0F3C753A04A2E
:109AE0007F3B1A41024007EE102AC0F3160040F4F3
:109AF0000000C3F117031841002977EEC77AB8BFF9
:109B0000404237EEA07ADFED976ADFED975A9FED7E
:109B1000976A17EE103A23F47F6323F00F0307EEE2
:109B2000103A77EE677A67EE266A70EEE70ADFEDA5
:109B3000907A67EE277A9FED8F7A40EE877AB7EEBC
:109B4000000A36EEA77A77EE666A77EEE67A67EE77
:109B5000076A47EE277A16EEA56ADFED875A46EECA
:109B6000265A9FED866A15EEA66ADFED855A46EE07
:109B7000265AB0EE476A05EEE66AF0EE006A67EE36
:109B8000065A36EE666AC5EE866A76EEE77A77EEB4
:109B9000C77A30EE670A10EE103A03EBC053B3F504
:109BA000000F06DA30F096FC20EE088AFDE5002072
:109BB000A7E700EE103AF7E7B7EE008AF5E59FED6C
:109BC000718AF2E5B0EE408AEFE5B0F17E5F3FF4D6
:109BD0008CAE00283FF4B7AE002D3FF48AAE0225CC
:109BE000002613F0FF4F08BF9FED677A674802BF5A
:109BF00068EE077A6FF0170317EE901A4FEAE152FA
:109C000018BF00237F3A1A44C1F31603834243F07E
:109C10007E5106DD5E4883427FF71CAF0132A1F51D
:109C2000000100205B4B03EB8003D3ED005A5A4B3D
:109C300006EE101A75EE867AF7EE006AC6EEA74AAF
:109C4000491041F0005101F5802101EB405136EE01
:109C5000657A07EE901A27EE245A15EE107A1F4007
:109C600006EE907A06EEE77A77EEE57ADFED4B5A6C
:109C700036EE676A65EE057A06EE667A9FED486A0B
:109C800047EE865A9FED476A05EEA76ADFED465A12
:109C900046EE275A9FED456A05EEA76ADFED445A66
:109CA00046EE275A27EE247A36EE856A67EEA77AC3
:109CB00026EE076A05EEA76A66EEA64AF0EE085A97
:109CC00074EEA57A77EE867A17EE901A194007EEB1
:109CD000901A77EEE55A27EE277A75EEE45A66EE8B
:109CE000A76A36EE656A06EE057A9FED326A76EE71
:109CF000877A17EE901A194007EE901A77EEE66A07
:109D000027EE866A37EE667ADFED2B6A2B4967EE1F
:109D1000A67ADFED2B6A47EE267A01EB800191ED02
:109D2000007A77EE877A07EE102A264A02EB800245
:109D3000D2ED005A76EE276AB8EEC77A76EEA56ABB
:109D400076EE876A16EE902A134006EE903A36EECB
:109D5000C77A37EE657A37EE467A77EEC77A4BE602
:109D6000000080FF0072313F4CBB31330EEADD351D
:109D70008CBEBF351872313F55B38A38610B363B04
:109D8000ABAA2A3E000000000000804B71C41C00FA
:109D9000D6B35D00948E070000F0FFFF55326C3E95
:109DA00042F1533E05A38B3EABAAAA3EB76DDB3E04
:109DB0009A99193F0038763FA0C39D36848E0700DC
:109DC0004F38763F8C8E070001482FF05BB900BFFB
:109DD0009803002001482FF055B900BF88030020E8
:109DE00007B544F0C5FA4FF47A72A0FB020302FBF8
:109DF0000131C00B074A40EA4140106000234FF494
:109E000000420548CDE900232FF01CFF002003B0DD
:109E10005DF804FB007F0020402A0020014B1878E9
:109E200000F090BBAEFA0020044B1A78824202D0B8
:109E30001870FFF7F3BF0020704700BFAEFA002094
:109E400008B544F095FA4FF47A72A0FB020302FBC6
:109E50000131084AC30B126843EA41439B1A47F297
:109E60003052934204DDBDE808400120FFF7DCBF1B
:109E700008BD00BF007F002008B544F079FA4FF418
:109E80007A72A0FB020302FB0131C00B044A40EAD4
:109E900041401060BDE808400020FFF7C5BF00BF8B
:109EA000007F0020014B1878704700BFAEFA0020F9
:109EB000F0B5174C174E184D184F91B0B44202D35D
:109EC000002011B0F0BDA388FBB92068E8B1036899
:109ED000DBB143F05DFEC0B12A88013292B2A280AC
:109EE000394668462A802FF0B1FF23680C4A1B6868
:109EF00020210DEB01002FF07DFF08A8FCF7CCFA24
:109F000008A90246684607F053FD0834D6E700BFAB
:109F100034300020C432002084F90020A6920700CB
:109F2000099E07002DE9F04F83B000AF0D4616469D
:109F300020493A469A4633F0F3FA80B1386870B156
:109F40000A22391D30F01AF87B6893F800B0E84611
:109F50000446BBF1000F06D06FF01500C5460C3764
:109F6000BD46BDE8F08F3F2DF6D805F1080323F07C
:109F70000703ADEB030D2A4669465046B04700285B
:109F8000E946EBDD0DF805B00B4E0C4DB542E3D2C2
:109F90002B6848461968FCF76DFA40B9084BA2B225
:109FA0001C88AA80944238BF14461C80D6E7083526
:109FB000ECE700BFBB920700C43200203430002021
:109FC00084F90020F8B5044610B900252846F8BDEC
:109FD0000378002BF9D00F4E0F4FBE420FD30D4E1A
:109FE000BE42F2D2306843F0D3FD30B1356821462D
:109FF0002868FCF73FFA0028E8D00836F0E7306818
:10A0000043F0C6FD18B135682B68A342DED0083690
:10A01000E3E700BFC0390800503C080070B50546B2
:10A0200098B94FF6FF7070BD0834B442F9D2206879
:10A0300043F0AEFD0028F7D0236829461868FCF7E6
:10A0400019FA0028F0D1A088EDE7014C014EECE7A9
:10A0500034300020C432002070B5094C094E05464A
:10A06000B44201D3002008E0206843F091FD28B1FC
:10A07000A388AB4202D12368186870BD0834EFE7AB
:10A0800034300020C432002070B5194C194D8CB00A
:10A090000022002303A920462EF0AEFD08B10CB02B
:10A0A00070BD2B68059E5868DDE9031230F032FC64
:10A0B0000028EDDBFF238DF81830B6FA86F35B0934
:10A0C00007908DF8203044F053F94FF47A72A0FBDA
:10A0D000020302FB0131C00B40EA4140C90B8DE88D
:10A0E000030006ABCDE90A010FCB00F045FACFE73C
:10A0F000682C0020B07F00201FB50A4C2468A4689B
:10A1000084420DD183F00103CDE901120393064887
:10A110000022002301A92EF019FD04482EF0B2FF01
:10A1200004B010BDB07F0020682C0020A07F00206C
:10A130001FB50023CDE90233044B8DF80C0001A8B4
:10A14000019330F010FC05B05DF804FB90FE0600B2
:10A150000268034B9A420CBF08300020704700BFD2
:10A1600090FE0600014B03600120704778FE060058
:10A17000014B036027207047047F0020044B1A68BE
:10A18000044B9A4214BF6FF012000020704700BFCA
:10A19000B07F00207CFE060008B5074B93F9001045
:10A1A000002906DBFFF7EAFFC0B2401A18BF012002
:10A1B00008BD0020FCE700BF5627002007B5FFF7C9
:10A1C000DDFF0DF107018DF807000122024807F0BD
:10A1D000EFFB03B05DF804FBCD92070038B50446F1
:10A1E00000282FD0194D2B68834229D053B198688D
:10A1F00040B183685B6803B198472B680021986879
:10A2000006F0D0F91249134B8C4214BFED21002106
:10A210002722002030F098FB002812DBA0682C6079
:10A2200070B1012106F0BEF92B68986883680A496D
:10A230001B6898472B68986883689B6803B19847A8
:10A24000002038BD6FF01200FBE700BFB07F002098
:10A250007CFE0600047F0020F9A0020038B5054608
:10A2600048B90648FFF7BAFF041E02DB2846FFF78D
:10A270005FFF204638BD6FF01504FAE77CFE06004C
:10A28000F7B50C4615460D4901AA1E4633F048F9AC
:10A2900068B1019B6BB9012C0DD1094F224639469B
:10A2A0003046A847002802DD3878FFF7D7FF03B013
:10A2B000F0BD0020FBE76FF01500F8E7DE92070025
:10A2C000562700200148FFF789BF00BF7CFE06002B
:10A2D00008B50B480B4943F07BFE0B4832F052FFA8
:10A2E00018B10948012132F02AFF084A002342F838
:10A2F000043B0133272BFAD1BDE80840FFF7E2BF4A
:10A30000A07F002089A00200BCF80600047F002086
:10A31000F8B50F4D0F4E761B07460C4605EBC105F1
:10A32000C6F3C706A64201DC00200CE02A683B68A1
:10A330009A4209D13C716B6838461B68984718B13E
:10A34000431E012BF0D9F8BD01340835EAE700BF00
:10A3500000060800D806080070B40D4B0D4CE41A36
:10A360000022C4F3C704944203DC6FF0150070BCF4
:10A3700070471E680568AE4202F1010206D15D68B1
:10A380008D4203D170BCD1B2FFF7C2BF0833EAE7F8
:10A3900000060800D80608000D4B0E4AD21A70B409
:10A3A000C2F3C7020024A24203DC6FF0150070BCA8
:10A3B00070471E680568AE4206D15D688D4203D1C4
:10A3C000E1B270BCFFF7A4BF01340833EBE700BF74
:10A3D00000060800D806080000B58BB0064B074AF7
:10A3E000282168462FF006FD05490122684607F03E
:10A3F000DFFA0BB05DF804FB2693070030930700EB
:10A40000AFFA00202DE9F8434768044600254FF0D5
:10A4100001087B68AB420DD82149224843F01CFE5D
:10A42000A3681B680BB120469847398939BB0020C7
:10A43000BDE8F8833A6802EBC50352F83500197994
:10A44000DB88D0F810C0D0F80890DCF80060DA079C
:10A4500054BF43F4B01383F4D01323F4801208FAEA
:10A4600001FEDB074CBF46EA0E0626EA0E06CCF8D4
:10A470000060D9F80030984770B90135C9E740F25B
:10A48000E7304FF47A72002300EBC1300021FBF774
:10A4900087FE2FF05BF9CAE76FF00400C8E700BF42
:10A4A000D9A30200E832002008B5074B5A784AB910
:10A4B00001221A700548002200232EF04BFE0448AA
:10A4C00030F06CFA002008BDAFFA0020E83200201E
:10A4D0008CF8060008B54FF4F012002302482EF065
:10A4E0006DFE00EAE07008BDE8320020F7B50C46CA
:10A4F0001646114901AA1F4633F012F8B0B1019B6C
:10A50000A3B9012C15D10D4D224629463846B04736
:10A51000002806DB2B780A486C7023B130F03EFA35
:10A52000002003B0F0BD30F055FAF9E76FF00100FC
:10A53000F7E76FF01500F4E726930700AFFA002065
:10A540008CF806001FB50023CDE90233044B8DF8CB
:10A550000C0001A8019330F006FA05B05DF804FB89
:10A56000B4FE06000268034B9A420CBF083000207C
:10A57000704700BFB4FE060084B030B589B00CACA3
:10A5800084E80F00002301930CAD084B00930FCD1E
:10A5900002AC0FC495E8030084E80300684630F07D
:10A5A000E2F909B0BDE8304004B07047B8FE0600DB
:10A5B0000268034B9A420CBF08300020704700BF6E
:10A5C000B8FE060084B030B58BB00EAC84E80F0046
:10A5D000002301930EAD084B00930FCD02AC0FC4C6
:10A5E00095E80F0084E80F00684630F0BCF90BB026
:10A5F000BDE8304004B07047BCFE06001FB5002324
:10A60000CDE90233044B8DF80C0001A8019330F022
:10A61000AAF905B05DF804FBC0FE060082B038B5AB
:10A6200004A981E80C00054611482EF04BF80446B9
:10A63000A0B1AB68012B0CD0022B05D0A3B9BDE8AB
:10A64000384002B030F010BA30F015FA0028204639
:10A65000F5DCBDE8384002B030F0FFB96FF004001F
:10A66000BDE8384002B070476FF08500F8E700BFE2
:10A670002693070082B010B502A981E80C000446B9
:10A680000B482EF01FF878B1A368022B04D00020ED
:10A69000BDE8104002B0704730F0EDF90028CCBFA3
:10A6A00000200120A060F2E76FF00400F0E700BF97
:10A6B0002693070002460249024830F034BA00BF30
:10A6C00010040020DCFF060002460249024830F078
:10A6D0002ABA00BFB47F0020CCFF06000246024920
:10A6E000024830F020BA00BFE80300207CFF0600DB
:10A6F00002460249024830F016BA00BFB8030020F3
:10A700000CFF0600014B1878704700BFB4FA002018
:10A710000D4A52F82030013342F820300B4A012311
:10A72000117883400B430A490978DBB2137023EA9E
:10A7300001030849084A097850780B43181A5370E6
:10A7400018BF0120704700BFE07F0020B4FA00204E
:10A75000B2FA0020B3FA00206E27002010B5114A8B
:10A7600052F82030002B19DD013B42F820300E4A10
:10A770002BB913780121814023EA010313700B48A0
:10A780000B4B047810780B4A5978127820EA0400B1
:10A7900010435870401A18BF012010BD6FF015000B
:10A7A000FBE700BFE07F0020B4FA0020B2FA0020EF
:10A7B0006E270020B3FA0020044A01231278834058
:10A7C000D8B213401B1A584258417047B4FA0020BF
:10A7D00010B5084B084A1870084B51781C78084B84
:10A7E0001B7823EA040318435070401A18BF012055
:10A7F00010BD00BFB3FA00206E270020B2FA00207F
:10A80000B4FA0020074B00221A70074B074A197848
:10A81000074B50781B7823EA0103181A537018BFAE
:10A8200001207047B3FA0020B2FA00206E27002002
:10A83000B4FA0020074B084A1870084B51781B786F
:10A8400023EA00030648007818435070401A18BFE6
:10A8500001207047B2FA00206E270020B4FA0020D1
:10A86000B3FA0020074B084900221A70074B084A28
:10A870001B78097850780B43181A537018BF0120C1
:10A88000704700BFB2FA0020B3FA0020B4FA0020EB
:10A890006E270020A0F1E003072B03D82030C0B2C0
:10A8A000FFF736BF064B062213F8011F19B1013A14
:10A8B000FAD10020704718700028F8D0F9E700BFDF
:10A8C00070270020A0F1E003072B10B405D820303A
:10A8D0005DF8044BC0B2FFF741BF0023064A19469A
:10A8E00012F8014F0133A04208BF1170062BF7D1B7
:10A8F00000205DF8044B704770270020A0F1E003B2
:10A90000072B03D82030C0B2FFF756BF064A0023FA
:10A9100012F8011F884204D00133062BF8D1002021
:10A9200070470120704700BF70270020024B0022B3
:10A930001A605A60704700BF6F270020B0F5805F33
:10A9400010B510D20949002301EB4302B2F80140CF
:10A9500024B10133062BF7D1002010BDA2F801006D
:10A960000028F6D0F8E76FF08500F6E761270020B1
:10A9700030B50023074C194604EB43020133B2F80B
:10A980000150854204BF51709170062BF4D1002014
:10A9900030BD00BF61270020024B00221A605A60C0
:10A9A0009A60704762270020074A002302EB4301A8
:10A9B000B1F80110814204D00133062BF6D10020FA
:10A9C00070470120704700BF61270020042810D87D
:10A9D000094A52F82030013342F82030074A012357
:10A9E000117883400B43DBB21370054A002053708B
:10A9F00070476FF015007047CC7F0020B1FA00203F
:10AA000057270020042814D80B4A52F82030002B76
:10AA10000FDD013B42F82030084A2BB913780121A1
:10AA2000814023EA01031370054B12785A7000200D
:10AA300070476FF015007047CC7F0020B1FA0020FE
:10AA400057270020014B58809980704757270020D6
:10AA5000014B1881D980704757270020024B0022F4
:10AA60001A605A601A7270475827002000487047D1
:10AA70006E2700200048704761270020004870477B
:10AA8000572700202DE9F0410B4E337883B10B4C52
:10AA9000DFF82C80002542F20F7720464146013531
:10AAA00043F0DAFA0A2D44F8207C04F15804F4D17A
:10AAB00000203070BDE8F081772700207839002031
:10AAC000F7B005002DE9F041C269037ED17D90B059
:10AAD000044609B1032B3DD0023B012B517D07D821
:10AAE000002937D1204610B0BDE8F04130F0D9BA86
:10AAF00021B1937D13B9204630F071FA0AAD1822C6
:10AB00000021284643F013FED4E90467D4F80080FE
:10AB100023798DF838301022002106A8CDE90C6782
:10AB2000CDF82C8043F003FEE3699B680793E3684C
:10AB300008930A4BC3E90267C3F80080012304931A
:10AB400010AB13E90F008DE80F0006A895E80C0084
:10AB50002FF0D5FD10B0BDE8F08100BF000000204F
:10AB60000B4A30B500230446282000FB03F18D1862
:10AB7000515C41B90FCC0FC50FCC0FC594E8030051
:10AB800085E8030030BD0133282BEED1FAE700BF82
:10AB9000183300202DE9F843027E0346002A6ED1C7
:10ABA0003B4D2A6882426AD1D269547D24B119B9D9
:10ABB000BDE8F84330F075BA107D032828D8DFE8E7
:10ABC00000F0020E1F600139042921D8DFE801F0EE
:10ABD0001E0320051E00022119E0032117E00139A0
:10ABE000042915D801A050F821F000BF0DAC0200D7
:10ABF00011AC0200D7AB0200DBAB02000DAC0200CF
:10AC00000429EAD001F0FB01012901D101211976C3
:10AC1000197EA1B3D06900280DDD5C6D611C0AD0DE
:10AC20001C32002152F8046FA64204D00131884240
:10AC3000F8D101221A76002218462A60FFF742FF57
:10AC40002C68E4B9134EDFF85080A14616F8087C52
:10AC5000AFB12B6806F8089C23B14FF4A470002113
:10AC60002EF074FD012F01D0022F03D14146304652
:10AC7000FFF792FB0134282C06F12806E6D1BDE847
:10AC8000F8830229A7D0BFD904390129BED9BFE76B
:10AC900030810020203300204404070082B02DE9D9
:10ACA000F0412F4E06A981E80C000024582202FB37
:10ACB00004F0851931588B424AD12030304443F09A
:10ACC000D9F9EB691968D5E904238A1843EBE173D4
:10ACD00008998A42099A9341804603DA042128465A
:10ACE000FFF758FF582707FB046701212846FFF7A5
:10ACF00051FFFB69DB7D53B13B7E032B07D1284617
:10AD000030F097F9012328463B76FFF7DBFE284613
:10AD100030F08FF9582303FB0463DB695A7D22B1BD
:10AD20009B7D13B1284630F05AF918F1770F4FF098
:10AD300058031DBF5C4342F20F72331903FB0463D7
:10AD400017BF3251012200221A7683F8502002E008
:10AD500001340A2CABD1BDE8F041002002B07047AD
:10AD60005839002082B02DE9F047044608A9406810
:10AD700081E80C002FF06DFC3B4B1D687DB9D4E9D8
:10AD800002C23A4F4FF0580E42F20F780EFB05F612
:10AD9000F419B959414507D001350A2DF6D1BDE85E
:10ADA000F047002002B07047D0F804809DF83010C2
:10ADB000DDF82490DFF8B8E02171C4E902C2DDE9D2
:10ADC0000AC0C4E904C000214FF0FF3247F80690E2
:10ADD00021766265C4F81C80DEE902211C60D8F887
:10ADE000103013EB020A41EBE373D44570EB03031D
:10ADF0000CDBDEF8003099450CD1D8F80C309A18ED
:10AE000041EBE371944570EB010103DA0521204623
:10AE1000FFF7C0FE20460021FFF7BCFE582303FBCE
:10AE20000575D8F8004029690C4443F0A1FA4FF4A5
:10AE30007A72A0FB020302FB0131C30B43EA4143D8
:10AE4000E11A21EAE17140F2E7304FF47A7200230F
:10AE500000EBC1304914FBF7A3F9203602460B463C
:10AE6000B8192EF077F99AE7308100205839002080
:10AE7000000000202DE9F0418AB00446FFF798FB5E
:10AE800000286CD02046FFF793FB524D47680446DC
:10AE9000002642F20F782B689F420CD043450AD01F
:10AEA000EB69DB7D3BB12B7E032B04D102232B7698
:10AEB0002846FFF707FE01360A2E05F15805EAD1AC
:10AEC000454D286808B900202CE0C369227A197E14
:10AED000914204D0426D013204BF6268426501684C
:10AEE00062689142EFD01968D0E904238A1843EBD5
:10AEF000E173D4E90461B2428B4116DB237ADBB102
:10AF00000123214602A88DF800302FF08DFD684600
:10AF1000FFF726FE217A2868C1F10301C9B2FFF7C5
:10AF200039FE02200AB0BDE8F0810421FFF732FEAD
:10AF30002B68002BC7D0E1E76068284A1178002908
:10AF4000C1D0012905D15169884202D1117E002961
:10AF5000D6D10133282B02F12802EFD1B3E72046E6
:10AF600001F0D6FE0028DDD0204601F0D1FE837A24
:10AF700001469BB14368E03B072B02D80378072BBF
:10AF80000CD0174BD1E90402D3E902548542944115
:10AF9000BEBFC3E902024FF000441C600E4B1868AC
:10AFA0000028BFD04B68E03B072B8CD80B78072BD1
:10AFB00089D1C3695B7D13B1007E0028B2D002A89D
:10AFC00002248DF8004030F032FE6846FFF7C8FDDD
:10AFD000A7E700BF58390020308100201833002037
:10AFE000000000202DE9F0410B4E337883B10B4C6B
:10AFF000DFF82C8000254FF0FF3720464146013511
:10B0000043F02AF80A2D44F8207C04F15804F4D1C6
:10B0100000203070BDE8F08178270020E83C002057
:10B020003FB205002DE9F04FA3B001F071FE0446D8
:10B0300000287FD0037A47680293837A03930369D9
:10B0400001930DF1380BA7F1E003B0F80080D0F8C0
:10B0500014A0DFF83491049318AD5E46D9F80020AF
:10B060000023013246F8043B45F8043B37D0D9F8B9
:10B070000C204449D0680592FBF7FCF9059A60B9A9
:10B08000D9F8081088B2B84207D1C1F3074040454B
:10B0900003D1029BB3EB116F21D0039B002B5ED039
:10B0A000927932B1049B072B03D85FFA88F2072A02
:10B0B00015D099F8502092B9D9F854207AB9484659
:10B0C00030F0CCF8D9E9061251EA020035D0019BE4
:10B0D000994272EB0A0230DA484630F0A5F818AB14
:10B0E0009E4209F15809B9D100255BF8040B18B14B
:10B0F000019A534630F0BCF801350A2DF5D10025F0
:10B10000DFF88880284618AF57F8256076B138B93F
:10B11000214606A830F08BFD414606A8FFF71CF932
:10B12000019A5346304630F020F8012001350A2DAF
:10B13000EAD1400023B0BDE8F08FD9F80C20517956
:10B1400009B146F8049C99F8101019B112790AB1A6
:10B1500045F8049C89F85080C9F85470BFE799F805
:10B160001020002ABBD099F850204245B7D1D9F819
:10B170005420BA42B3D1484630F070F845F8049CE8
:10B18000ADE700BF1B990700C83C002090040700F2
:10B1900082B02DE9F041044606A9406881E80C0020
:10B1A000DDE908872FF055FA43682D48079AD3F850
:10B1B0000CC0A6680021044603689A423BD1C368CC
:10B1C000DD68AC4537D18568AE4234D1457C95BB4E
:10B1D00058254D43601990F85020B2BB582202FB0D
:10B1E000014101220A741E6816EB080647F10007A8
:10B1F000C1E9066743F0BCF84FF47A72A0FB020382
:10B2000002FB0131C30B43EA4143F61A002E17DD5E
:10B210004FF4004740F2E73000214FF47A720023E8
:10B22000E6FB0701FAF7BCFF203502460B46601922
:10B230002DF090FF04E001310A2900F15800BBD144
:10B24000BDE8F041002002B07047426D002AC5D031
:10B2500042463B46BDE8F04102B02FF086BF00BF3A
:10B26000C83C002082B02DE9F84F82460AA9406808
:10B270002E4E81E80C00DDE90C452FF0EAF9476815
:10B28000DDF82C90DAF80800D7F80CC0334600221D
:10B29000B0461968894526D1D968C9688C4522D13C
:10B2A000996888421FD1597CE9B94FF0580B0BFBC4
:10B2B000028B58462FF0D2FF22462B4658462FF0DD
:10B2C00054FFDAF8081000233268013201D1727C91
:10B2D0007AB101330A2B06F15806F5D1BDE8F84FD3
:10B2E000002002B0704701320A2A03F15803D0D17E
:10B2F000E7E75820434308EB030048F803904FF07A
:10B3000000084FF00009C0E90217C0E906899DF85E
:10B3100038300371028280F8502042657B79002B1F
:10B32000DCD122462B462FF0A3FFD7E7C83C0020F4
:10B3300010B501F0EDFC08B1837AF3B9002010BD1F
:10B34000192A11D9232AF9D9A3F1E002072AF5D93C
:10B35000DBB22D2B21D1047AFFF7D4F90443A307E4
:10B36000ECD4FFF7CFF9E9E7037A43F00203037265
:10B37000E4E7C9B2072910D1E0E7094C2378002B94
:10B38000DCD0018843680729A3F10402D2B2D7D0E8
:10B39000232AD3D9E03B072BEBD900232370CDE739
:10B3A000B5FA002070B501F0B3FC034608B1827A0B
:10B3B000DAB9002070BD01318842FADD32F8025F4F
:10B3C0001C88A542F7D10B4A03F1180615461868E8
:10B3D0005968144603C40833B3422246F7D1FFF735
:10B3E00091F92B7A18432872E3E7034A0021507839
:10B3F000E2E700BF384000200426002070B54D6809
:10B4000004460E4628462349FBF734F810B920724B
:10B41000012070BD20492846FBF72CF810B9012304
:10B420002372F5E71D492846FBF724F808B90223E3
:10B43000F6E71B492846FBF71DF810B9B3686360AF
:10B44000E6E718492846FBF715F810B9B3682360FA
:10B45000DEE715492846FBF70DF810B90123A37361
:10B46000D6E712492846FBF705F810B90123E37324
:10B47000CEE70F492846FAF7FDFF08B90223EEE7A9
:10B480000C492846FAF7F6FF08B90223EFE7002037
:10B49000BFE700BF57960700619607006D9607004B
:10B4A0007B9607008A9607009A960700AB960700DE
:10B4B000BC960700CD9607002DE9F843D0F804802C
:10B4C0000769D8F80830DFF848903B6200247B8198
:10B4D000BC8108F10C06D8F80830A34211D93146D6
:10B4E0003846FFF78BFF651C70B970684946FAF75C
:10B4F000C1FF48B9ADB27D81D8F808303C625B1B12
:10B50000BB810020BDE8F8832C461036E3E700BF7E
:10B51000DE96070008B5034600690349036342F05D
:10B520009BFD002008BD00BFFDB50200F8B52DED64
:10B53000028B0C46B1F90410054631B99FED2D0A76
:10B5400084ED000ABDEC028BF8BDD4E9027657EA1F
:10B5500006004CD0A888C01946F10006121A63EB09
:10B560000603012A73F1000041DB4FF47A7607EEFF
:10B57000901AA2FB062106FB0311E888D30B43EACD
:10B58000414398424FEAE1314FF000028A41B8EE60
:10B59000E78A14DB98B16A7A8AB107EE100A07EEDF
:10B5A000903AB8EEC70AF8EEE77A07EE102A87EE6F
:10B5B000800AF8EE470AFEF7E3F828EE008A2B7AB5
:10B5C000DFED0D6A07EE103AB8EEC77A27EE087A7B
:10B5D000C7EE267A94ED007A77EE877ABDEEE70A19
:10B5E000B8EEC00A77EEC07AC4ED007AAAE7DFEDC4
:10B5F000017AEFE70000000000007A442DE9F041F5
:10B600002DED028B076B84B07E68044642F0B0FEDD
:10B610000D4602460B46804604F138013046FFF7DE
:10B6200085FF2B46424604F148013046F0EE408A41
:10B63000FFF77CFFFDEEE87AB0EE408A17EE903A15
:10B64000FDEEC07A1BB217EE902A15B2EBB1DFED1A
:10B650002F7A3288F4EEE78AF1EE10FA4CD9DFED5A
:10B660002C7AF4EEE78AF1EE10FA47F6FF7158BF34
:10B670000B4600200021CDE90201B5FA85F1490908
:10B680000091384602211FF025F8DDB1DFED1F7A69
:10B690007288B4EEE78AF1EE10FA2FD9DFED1C7A4A
:10B6A000B4EEE78AF1EE10FA47F6FF7348BF2B4677
:10B6B00000200021CDE9020101210091384602213C
:10B6C0001FF008F8B4F93C3013B9B4F94C30BBB1F1
:10B6D000307AC0034FF47A72002300F2E730002181
:10B6E000FAF75EFD02460B46204604B0BDEC028B25
:10B6F000BDE8F0412DF02EBD064BBAE7054BD7E76C
:10B7000004B0BDEC028BBDE8F08100BF000000C7B3
:10B7100000FEFF460080FFFF2DE9F0478446164EED
:10B72000164FDFF85C8000208A4603464FF001097F
:10B730004FEA531E03F01F0257F82E4009FA02F297
:10B74000144212D0B46CD8F81850D8F81C106519EF
:10B7500041EBE474AC457AEB0404A3BF57F82E40E8
:10B7600024EA020247F82E20013001335D2B06F156
:10B770007406DDD1BDE8F087A407070068870020C4
:10B780001044002070B5094B094D1E7800241C7030
:10B790002EB128462FF0EAF80134B44201DB3046DE
:10B7A00070BD203528462FF0DEF8F5E7B7FA002007
:10B7B000104400202DE9F04F5A488DB042F05AFC59
:10B7C000594B0024C3E900449C60584BB3F9005026
:10B7D00047F6FF739D4200F09080554FB0234FF61F
:10B7E000FF7203FB04F0C619395A91427BD15149CB
:10B7F000002386F8A8300B7801330B704E4B93F87A
:10B8000000904E4BAAB2742101FB02333A52B3F9B5
:10B8100014804B49C845A8BFC846083028EAE872DA
:10B820005201384442F05BFFDFF814E1A6F80280D1
:10B83000C2464FEA481BD14564DC3F4BDFF8FCA011
:10B84000A9EB080983F80090B0235C4306AE07EB30
:10B850000408182200213046D8F8209042F067FFF3
:10B8600005F127030793374B4FEAE972C3E90092CA
:10B87000CDE9089274234FF0FF0B4FF001098DF8CA
:10B8800028B015FB03F5CDF8109008AB0FCB8DE871
:10B890000F0005F1500C96E80C000AEB0C002EF09E
:10B8A0002EFF0AEB05035B6E1BB318220021304606
:10B8B00042F03DFF3B5B8DF828B027330793D8E972
:10B8C0000823CDE90823CDF8109008AB0FCB8DE805
:10B8D0000F00603596E80C000AEB05002EF00FFF14
:10B8E00088F8A89005E00134042C7FF47AAFFFF7C4
:10B8F00049FF0E4B47F6FF721A800DB0BDE8F04FBE
:10B90000FFF740BF0EEB0B0CBCE80F0076460FC6EE
:10B910009CE80F000AF1010A86E80F000EF1200EE4
:10B9200089E700BF20410020688700201C260020F6
:10B9300050410020B6FA0020B7FA0020A407070003
:10B9400010440020100000202DE9F843184B19493D
:10B950001948DFF86C804FF6FF721A80A3F8B02008
:10B96000A3F86021A3F8102242F076FB134A0023CB
:10B9700001274FF00C0E590903F01F05B2F914C04E
:10B98000890007FA05F59146002407E059F8040BF1
:10B990000EFB0080013446582E4346506445F5D3D3
:10B9A00001335D2B02F17402E5D10020BDE8F8837C
:10B9B00050410020E5BA020020410020A407070002
:10B9C000948500202DE9F843404B414E1C78D6E980
:10B9D0000027E4BB02F1004301333B4335D06FF055
:10B9E000004542F0C5FC4FF47A77A0FB070307FB44
:10B9F0000131C30B43EA4143AB424FEAD131A1418C
:10BA000060DA42F0B5FCA0FB070307FB0131C00B75
:10BA100040EA4140281A64EBD131C90341EA504160
:10BA200040F2E733C003C0184FF47A724FF00003BE
:10BA300041F10001FAF7B4FB02460B4625482DF010
:10BA400089FB0028A8BFC6E90054BDE8F88300249C
:10BA50002149DFF88CE06FF0004523464FF00108E4
:10BA600058095EF820C003F01F0008FA00F010EA41
:10BA70000C0F08D0886C4FEAE07CA8427CEB0409EC
:10BA8000BCBF0546644601335D2B01F17401E7D16B
:10BA90001249D1E90631ED1844EB0104BC4208BF5C
:10BAA0009542D2D06FF000439C4208BFB5F1FF3FF2
:10BAB00097D100230022C6E900230648BDE8F843D9
:10BAC00042F0D8BA00221346B8E700BFB7FA002008
:10BAD0001841002020410020A40707001044002046
