:020000022000DC
:1060000070680120619C0300E9B10600359C030023
:10601000359C0300359C0300359C03000000000004
:10602000000000000000000000000000859D03004B
:10603000359C030000000000F19C0300359C030028
:10604000A59F0300D12B0500A59F0300A59F03007A
:10605000A59F0300A59F0300A59F0300A59F030024
:10606000A59F0300A59F0300A59F0300A59F030014
:10607000A59F0300A59F0300A59F0300A59F030004
:10608000A59F0300A59F0300A59F0300A59F0300F4
:10609000A59F0300A59F0300A59F0300A59F0300E4
:1060A000A59F0300A59F0300A59F0300A59F0300D4
:1060B000A59F0300A59F0300A59F0300A59F0300C4
:1060C000A59F0300A59F0300A59F0300A59F0300B4
:1060D000A59F0300A59F0300A59F0300A59F0300A4
:1060E000A59F0300A59F0300A59F0300A59F030094
:1060F000A59F0300A59F0300A59F0300A59F030084
:1061000081F0004102E000BF83F0004330B54FEA68
:1061100041044FEA430594EA050F08BF90EA020FD5
:106120001FBF54EA000C55EA020C7FEA645C7FEA68
:10613000655C00F0E2804FEA5454D4EB5555B8BF8B
:106140006D420CDD2C4480EA020281EA030382EAFC
:10615000000083EA010180EA020281EA0303362D8E
:1061600088BF30BD11F0004F4FEA01314FF4801C61
:106170004CEA113102D0404261EB410113F0004F73
:106180004FEA03334CEA133302D0524263EB43032A
:1061900094EA050F00F0A780A4F10104D5F1200EC8
:1061A0000DDB02FA0EFC22FA05F2801841F1000123
:1061B00003FA0EF2801843FA05F359410EE0A5F1F7
:1061C00020050EF1200E012A03FA0EFC28BF4CF028
:1061D000020C43FA05F3C01851EBE37101F00045DE
:1061E00007D54FF0000EDCF1000C7EEB00006EEBEB
:1061F0000101B1F5801F1BD3B1F5001F0CD3490875
:106200005FEA30004FEA3C0C04F101044FEA4452CB
:1062100012F5800F80F09A80BCF1004F08BF5FEA52
:10622000500C50F1000041EB045141EA050130BD32
:106230005FEA4C0C404141EB0101013C28BFB1F544
:10624000801FE9D291F0000F04BF01460020B1FA8F
:1062500081F308BF2033A3F10B03B3F120020CDA62
:106260000C3208DD02F1140CC2F10C0201FA0CF040
:1062700021FA02F10CE002F11402D8BFC2F1200CA5
:1062800001FA02F120FA0CFCDCBF41EA0C0190405B
:10629000E41AA2BF01EB0451294330BD6FEA0404A4
:1062A0001F3C1CDA0C340EDC04F11404C4F120028F
:1062B00020FA04F001FA02F340EA030021FA04F3A1
:1062C00045EA030130BDC4F10C04C4F1200220FAF8
:1062D00002F001FA04F340EA0300294630BD21FA36
:1062E00004F0294630BD94F0000F83F4801306BFFC
:1062F00081F480110134013D4EE77FEA645C18BFF0
:106300007FEA655C29D094EA050F08BF90EA020F86
:1063100005D054EA000C04BF1946104630BD91EA7E
:10632000030F1EBF0021002030BD5FEA545C05D181
:106330004000494128BF41F0004130BD14F58004C0
:106340003CBF01F5801130BD01F0004545F0FE4134
:1063500041F470014FF0000030BD7FEA645C1ABF69
:10636000194610467FEA655C1CBF0B46024650EAA0
:10637000013406BF52EA033591EA030F41F40021CC
:1063800030BD00BF90F0000F04BF0021704730B552
:106390004FF4806404F132044FF000054FF0000127
:1063A00050E700BF90F0000F04BF0021704730B5E8
:1063B0004FF4806404F1320410F0004548BF4042BD
:1063C0004FF000013EE700BF42004FEAE2014FEA12
:1063D00031014FEA02701FBF12F07F4393F07F4FED
:1063E00081F06051704732F07F4208BF704793F0F0
:1063F0007F4F04BF41F40021704730B54FF4607403
:1064000001F0004521F000411CE700BF50EA010205
:1064100008BF704730B54FF000050AE050EA0102AE
:1064200008BF704730B511F0004502D5404261EB1E
:1064300041014FF4806404F132045FEA915C3FF45F
:10644000D8AE4FF003025FEADC0C18BF03325FEAFC
:10645000DC0C18BF033202EBDC02C2F1200300FAAD
:1064600003FC20FA02F001FA03FE40EA0E0021FAD2
:1064700002F11444BDE600BF4FEA4102B2F1E0432D
:1064800024BFB3F5001CDCF1FE5C0DD901F0004C1B
:106490004FEAC0024CEA5070B2F1004F40EB83006B
:1064A00008BF20F00100704711F0804F21D113F197
:1064B0003872BCBF01F00040704741F480114FEAD0
:1064C0005252C2F11802C2F1200C10FA0CF320FA59
:1064D00002F018BF40F001004FEAC1234FEAD32376
:1064E00003FA0CFC40EA0C0023FA02F34FEA4303E0
:1064F000CCE77FEA625307D150EA01331EBF4FF069
:10650000FE4040F44000704701F0004040F0FE4083
:1065100040F40000704700BF53B94AB9002908BFD2
:1065200000281CBF4FF0FF314FF0FF3000F00CB8D7
:10653000ADF1080C6DE904CE00F008F8DDF804E0D8
:10654000DDE9022304B07047704700BF2DE9F04732
:1065500086468C460846089E154674461946002B0A
:1065600040F0C2808542B2FA82F245D94AB1C2F106
:10657000200300FA02FC2EFA03F3954043EA0C0CC8
:1065800094404FEA154EA8B2BCFBFEF8230C0EFB5C
:1065900018CC08FB00F943EA0C43994528D9EB18BD
:1065A00008F1FF3704D2994502D9A8F102072B441C
:1065B000A3EB0903A4B2B3FBFEFC0EFB1C330CFBE4
:1065C00000F044EA0344A04214D92C190CF1FF3323
:1065D00004D2A04202D9ACF102032C44241A43EAAB
:1065E00007401EB1D440002334607360BDE8F087DB
:1065F0004746DDE76346F1E792BB431B01214FEAC3
:10660000154EAFB2B3FBFEFC200C0EFB1C330CFB93
:1066100007F840EA0343984562D9EB180CF1FF30C4
:1066200004D2984502D9ACF102002B44A3EB080335
:10663000A4B2B3FBFEFC0EFB1C330CFB07F744EAD1
:106640000344A7424ED92C190CF1FF3304D2A742C0
:1066500002D9ACF102032C44E41B43EA0040C0E73A
:10666000C2F1200320FA03F1954090402EFA03F383
:1066700003434FEA154EAFB2B1FBFEFC0EFB1C10FC
:10668000190C0CFB07F841EA0041884504FA02F4B2
:1066900022D969180CF1FF3004D2884502D9ACF137
:1066A00002002944A1EB08019BB2B1FBFEFC0EFBEA
:1066B0001C110CFB07F743EA01439F420ED9EB186C
:1066C0000CF1FF3104D29F4202D9ACF102012B44FC
:1066D000DB1B41EA004192E76046E3E76146F7E7EA
:1066E0006046A3E76346B7E7834206D916B900219F
:1066F00008467BE7C6E900E0F9E7B3FA83F78FB90C
:10670000834201D3724508D8BEEB020460EB030359
:1067100001209C461EB9002168E73846FAE7C6E921
:10672000004CF8E7C7F1200CBB4022FA0CF41C43E4
:106730002EFA0CF120FA0CF3B84001434FEA144949
:106740000EFA07F5B3FBF9F81FFA84FE09FB1830BF
:106750000B0C08FB0EFA43EA00439A4502FA07F2D3
:1067600040D9E31808F1FF3004D29A4502D9A8F1C4
:1067700002002344A3EB0A0389B2B3FBF9F809FB37
:10678000183308FB0EFE41EA03418E452CD96118EF
:1067900008F1FF3304D28E4502D9A8F10203214447
:1067A00043EA0040A0FB0298A1EB0E014145CE4612
:1067B000434602D306D14D4504D2B9EB020E68EB35
:1067C00004030138002EA6D0B5EB0E0261EB0301E5
:1067D00001FA0CFC22FA07F34CEA0303F940C6E97C
:1067E000003198E74046C5E74346D9E710F8012B4A
:1067F00011F8013B012A28BF9A42F7D0D01A7047FE
:10680000034611F8012B03F8012B002AF9D1704738
:10681000034613F8012B002AFBD1181A01387047E0
:106820002DE9F041BE4D88B0D5F85C31996811F082
:10683000010100AF25D107F1080240F6034015F031
:10684000BFFA044600287ED1BC68E3681B78ABB968
:1068500017F0A4F9BFF35B8FD5F8D430BFF35B8F8B
:1068600005F1D40203F00903BFF35B8F52E8001F68
:1068700042E800300028F9D1BFF35B8F20462FF0AB
:10688000B1FC07F10802002141F2030015F098FA6B
:106890000446002857D1BB68A24EDA68D2F801003E
:1068A000D2F8051003C618462FF09CFC214607F1CC
:1068B000080241F2010015F083FA0446002842D193
:1068C000B868C3685A7885F870205A88A5F872208D
:1068D0001A7985F87120B3F80720A5F87420B3F869
:1068E0000530A5F876302FF07DFC214607F108022F
:1068F00041F2020015F064FA044620BBD7F8088084
:10690000D8F80C20531C413218685968344603C427
:10691000083393422646F7D1834844F015FD40469C
:106920002FF060FC95F87C305B0611D47F4BFB6147
:1069300002237F48BB6107F118024FF482516FF0C8
:10694000120444F0F1FD20462037BD46BDE8F08139
:1069500007F10802002142F2030015F031FA044663
:106960000028F0D1BB68734EDA68D2F80100D2F883
:10697000051003C618462FF035FC214607F1080222
:1069800042F2020015F01CFA04460028DBD1BC6874
:10699000E368B3F8012091B249B1D97839B1A5F8CB
:1069A0000421DA78114606F1280051F0DAFE20467B
:1069B0002FF018FC95F87C6016F0200618D1022103
:1069C00040F66D4015F0B6F80446002800F0A580AA
:1069D00002210C3047F04FFB012303704670214623
:1069E000324640F66D4015F0EBF904460028AAD176
:1069F00095F89C301E0713D507F10802002142F2DA
:106A00001C0015F0DDF9044600289CD1B868C36865
:106A1000D3F80120D3F80530C5E938232FF0E2FB85
:106A200095F8D8305C0610D507F10802002142F233
:106A30002A0015F0C5F90446002884D1B868C36857
:106A40005B7885F820312FF0CDFB082142F2010060
:106A500015F070F8044600285FD008210C3047F08C
:106A60000AFB95F8D81011F0400F024640F20223BD
:106A700008BF032388074CBF43F02C0043F00C00F1
:106A80008B0695F8D93048BF40F0400013F0090F4D
:106A900095F8A23018BF40F4006003F00603CE075B
:106AA00048BF40F01000062B08BF40F4C070002122
:106AB00044F049FD2146002242F2010015F080F920
:106AC000044600287FF43FAF95F87C30B5F80411F8
:106AD000980633D4D1B907F1080241F2050015F048
:106AE0006FF9044600287FF42EAFB5F80431BC6876
:106AF0004BB9E368B3F80120A5F804219A880E4841
:106B0000114651F02EFE20462FF06CFB082140F676
:106B1000014015F00FF8044600BB6FF0680412E75F
:106B2000B001002028020020300200208FA20800BF
:106B30007CA3070088020020B80200200029E5D1CC
:106B40006D4BFB6102236D48BB6107F118024FF4E6
:106B5000825144F0E9FC6FF00404F4E608210C30A3
:106B600047F089FA95F8D830D907024653BF4FF05D
:106B700000515FA1D1E90001614844F0E4FC2146E5
:106B8000002240F6014015F01BF9044600287FF46E
:106B9000DAAE01463A1D4FF6014015F011F9D0B1B9
:106BA000584BFB6102235548BB6107F118024FF4B3
:106BB000845144F0B9FC44F0B2FE044600287FF44E
:106BC000C2AE18F039FC044600287FF4BCAE15F0C4
:106BD00005FF0446B7E67B68DC68B4F80130032B98
:106BE00096BF494A494952F823106E468AB06A4610
:106BF0004748D3614FF400731384464BC2E9050143
:106C000042F8103F3D484FF4135144F08DFCB4F866
:106C10000120B4F80330022AB54649D1032B47D8E6
:106C20003D4A52F823106E468AB06A463B48D3610B
:106C30004FF400731384374BC2E9050142F8103F4B
:106C40004FF413512D4844F06FFC637994F806C05B
:106C5000D4F80900032BB54698BF314AB4F8076051
:106C600094BF52F8231029496C468CB06A46DFF86D
:106C7000C0E0C2E9073C4FF400739385294BC2E999
:106C800005E1C2E909604FF4735142F8103F1B4817
:106C900044F04AFCA54678682FF0A4FA3A1D00217A
:106CA0004FF6024015F08CF8044618B11E4B78E7F9
:106CB0001649B8E77868C368B3F80130A5F8C13061
:106CC0002FF090FA95F8C1305B077FF574AF3A1D4D
:106CD00021464FF6034015F073F808B1134B60E7F7
:106CE0007868C3685B7885F8C0302FF07BFA62E77C
:106CF0009088000200800020B3A208007CA3070057
:106D000010880002D6A2080014140800309D080064
:106D1000FAA20800040000010414080013A30800EC
:106D2000F41308000700000158A3080081A308001D
:106D30002BA30800000000002DE9F843D0E90C3532
:106D4000D0F82C805C193034A0450F46164619D86F
:106D50001D4DA3FB05011AA3D3E90023FFF7DCFBBC
:106D60000346A4EB0800A0FB050123F07F4414A315
:106D7000D3E90023FFF7D0FB20F07F403C60306078
:106D8000BDE8F883DFF840900DA3D3E90023A8FB0A
:106D90000901FFF7C1FB044605F1300008A3D3E960
:106DA0000023A0FB0901FFF7B7FB24F07F4420F08C
:106DB0007F403C603060BDE8F88300BFAFF30080E7
:106DC0008D49FD1A0700000000CA9A3B0000000030
:106DD0009FED0D7B124B134A1348144910B483EDF9
:106DE000007B9FED0B7B82ED007B9FED0B7B104BBF
:106DF0004FF0FF34002281ED007B04601A605DF8E3
:106E0000044B21F03FBE00BFFFFFFFFFFF1F00004C
:106E100000000000000000001F0000000000000053
:106E200030030020587F002034E900202803002090
:106E30002CE9002000000000002800F05F812DE90F
:106E4000F04FB54C94F86A2012F001058DB040F077
:106E5000A78194F82500FF2300F0030084F8263072
:106E60002BF096F994F86A00420727D494F8292069
:106E700094F8353004EB820204EB8303D66AD3F82E
:106E8000388086B1A448314623F02CFE33785B0667
:106E900005D506211EF0DEFC002800F083819E4807
:106EA000414623F01FFE337813F00E0F40F0B780F9
:106EB000236A93B10C200DB0BDE8F08F2A4604F18F
:106EC0006B01C0F3C0002BF0FFFAFF2884F8260006
:106ED000CCD028462BF0A2F9C8E720F0B7FE8146B7
:106EE000002800F0718120F0BDFE8246002800F0ED
:106EF000688124F025FA0546002800F06781D0F863
:106F000088004FF6FF732B8505F11C0B002800F05D
:106F10004F8105F1780105F17C021EF0A7FCB5F860
:106F200076307E4A23F4EF6323F0070343F488733B
:106F300043F00103A5F876301346D2F80120C5F8D6
:106F40009B21C5F8A12113F8012B9B88A5F89F313F
:106F5000A5F8A53195F89A3102F0010262F3000319
:106F600062F3410385F89A3195F8393003F03F0315
:106F700063F07F0385F8393095F88E3023F00703EE
:106F800085F88E3095F83C3023F00703002785F80C
:106F90003C304FF4C023C5F888312846C5E9127744
:106FA000C5F88870A5F88C706F86C5F82E7085F8C6
:106FB0003B702F65A5F88E71A5F8847126F066FFE9
:106FC00085F85071C5F8549124F058FC95F8943127
:106FD00060F3020385F8943124F056FC95F894315F
:106FE00060F3C50385F8943195F8803167F3410368
:106FF00085F880310121284625F0A6F805F1D40056
:1070000026F0CCFCC4E9189AC4F820B0C5E905778D
:107010002F70ED612CF08AFB002840F0C58094F8B9
:1070200024300121C3F342030DF12B008DF82B30E6
:107030001EF0BAFD0246002862D098F801103046D2
:1070400023F012FB31233649A360364BB4F8687045
:10705000A0FB01010025C01841F107012CA3D3E9D1
:107060000023C4E9055525706560E560FFF754FA13
:10707000206120F0CDF800F109083FB9357805F01E
:107080000F05A5F10105B5FA85F56D0994F8240001
:10709000236965F3000010F0010584F824004BD04B
:1070A000214A0992002010600225204A204F0493B3
:1070B0000BAE019305920321CDE9020006944346ED
:1070C0000090089607972A460B951FF03FFF314620
:1070D00020F082FEA0B9174905914AF2D8330093F7
:1070E000CDE90300CDE901000797089606944346D1
:1070F000012203210B951FF0F5FE43E023F000BAB7
:10710000236A002B3FF4D6AE23F0B8F9D2E600BFD5
:107110008D49FD1A07000000ECE90020CD9A080017
:1071200000CA9A3B8C49FD1AE0E90020E5A604005C
:10713000A1730400F9A104002B4A2C48049303F224
:1071400047130694029591211360A7FB000301FBEE
:107150000731274B0793274B05934FF6FF7309928F
:10716000022703930BAE1EA3D3E900230B970896C7
:10717000FFF7D2F94346CDE900503A4628460321AD
:107180001FF0E4FE314620F027FE0028B8D194F825
:107190006A3043F0010384F86A3023F0C5FE60B121
:1071A000002088E6122086E623F068F9032082E6B4
:1071B00005F18000C5F88800ABE601202AF0CAFF7F
:1071C000EEE7484620F048FD072074E6504620F0E0
:1071D0004FFD484620F040FDF6E700BFAFF30080CA
:1071E0008D49FD1A07000000E0E90020002AE7842D
:1071F000A1730400E5A6040070B590F824308AB0AD
:10720000C3F342030D46044601210DF12300164647
:107210008DF823301EF0C8FC71780246284623F012
:1072200023FA1F491F4AA0FB0131981841F10701B9
:1072300019A3D3E90023FFF76FF9236998420546A4
:1072400021D21B1A00220192174A0293174BA21A4D
:10725000A3FB02320221920900230A4409AE0991DC
:1072600013490591CDE903330321D2B20696009369
:1072700018461FF0CBFE314620F0AEFD38B925612F
:1072800000200AB070BDFBD9C21A0023DBE70C2036
:107290000AB070BDAFF300808D49FD1A07000000F1
:1072A00000CA9A3B8C49FD1AECE90020898888883D
:1072B000A17304000000000038B5194C9DF810E0DF
:1072C00094F848C01CF0010523D163F3420C40013F
:1072D00094F83230A1874FEACE0E0EF0180E00F06F
:1072E000200040EA0E0023F0380303430D4884F8E1
:1072F00032309121A2FB000384F848C001FB023127
:1073000005A3D3E90023FFF707F9C4E910002846D5
:1073100038BD0C25284638BD8D49FD1A07000000F0
:10732000607F0020002AE78410B504469DF808001D
:1073300022844FEA411CC000A17D00F018000CF02F
:10734000200C4CEA000C0C4821F038014CEA010CEE
:10735000A3FB0002912184F816C001FB032104A3C2
:10736000D3E90023FFF7D8F8606210BDAFF30080C7
:107370008D49FD1A07000000002AE7840000000084
:107380002DE9F047044600F1350190F8480094F8E3
:1073900032305B4DDFF88081C0F3400060F386132C
:1073A0008CB084F832301FF087FF94F83220A38F1E
:1073B0005448E46102F07902002784F832209121D8
:1073C000A3FB0002C4E90577277001FB03214AA350
:1073D000D3E90023FFF7A0F8651B626C4A4B676096
:1073E000AD08A3FB053502F10903984298BF3A4660
:1073F000C5F3470522644FF031028CBF19460146A0
:10740000A26005EB4502E760216148F822100646BC
:107410001FF0FEFE236A00F109074FEA450A002B20
:107420004AD00DF12C09AA4408EB8A030993CDF840
:1074300020900694A38F33484FF00008A3FB00026E
:10744000CDF80C80912101FB0321236904932F4B7C
:1074500007932F4B05934FF0020A27A3D3E900238C
:10746000CDF82CA0FFF758F8104619464FF47A7261
:107470000023FFF751F80435EDB2CDE90160032197
:107480003B462A46CDF8008040461FF05FFD494646
:1074900020F0A2FC60B994F8483043F0010384F86E
:1074A000483023F0F5FA08B300200CB0BDE8F087AF
:1074B0000C200CB0BDE8F0870DF12C09CDE90A33A2
:1074C00021694B460AAA032001F096F90028AAD1A7
:1074D0000B99104808A3D3E90023A1FB0001FFF793
:1074E0001BF80A9B20F07F471F449CE750462AF078
:1074F00031FED9E7AFF300808D49FD1A0700000087
:10750000607F0020002AE784BD86F21AA173040080
:1075100019AD040000CA9A3B7CEA0020000000007C
:107520002DE9F04F05468BB08B46012002219A468B
:1075300014462EF09FFB00220221814601201EF0FE
:10754000E5F93B494FF4D47228461EF06FF9461D09
:10755000F6B2384B00953246012100201FF06EFD37
:1075600010F0FD0F0CD0344A3449354840F62F0353
:1075700041F0EFFC404080F311884FF0030002DF40
:10758000304BA4FB0348204627A3D3E90023414600
:10759000FEF7C2FF2C4B20F07F47A7FB03310722E9
:1075A000E01A02FB071168EB01014FF47A72002325
:1075B000FEF7B2FFCDE90170CDF800B00895069551
:1075C000296995F9394021480491214931EA24017A
:1075D00028BF014605911F4C07944FF6FE71039199
:1075E00053463246012100201FF07CFC10F0FD0FB5
:1075F0000CD0114A1149124840F6440341F0A9FC4D
:10760000404080F311884FF0030002DFB9F1000F12
:1076100002D10BB0BDE8F08F0122022110460BB061
:10762000BDE8F04F1EF072B98D49FD1A0700000049
:10763000B07F0020E9B204008C1F08005020080031
:10764000BC18080000CA9A3B8D49FD1AC5120500F6
:107650006D14050091B204002DE9F043C469228D38
:107660004FF6FF739A428DB000F0888005462046A1
:1076700026F0DEFE95F82830012B00F00F81022B5A
:1076800000F00281002B00F0E18094F85071002F8F
:1076900040F0FD80E68DB4F83080002E71D1AA8CC8
:1076A00008F101060023CDE90A33B6B2002A70D0F2
:1076B00094F93930002BC0F248810023A4F88A31B4
:1076C00095F82630D90740F1EF800023A4F88E31D9
:1076D0000DF127023146204626F014FC743000F0EC
:1076E0004681B4F888312BB1B34240F20D819B1B27
:1076F000A4F88831B4F884312BB1B34240F2FB8056
:107700009B1BA4F88431258E17B9A84500F0EA80A8
:107710000135ADB294F8D13013F001065AD1DDE94C
:107720000A130A46002B40F0ED80002900F0DC80AF
:107730001E461846228DE4690694CDE903570532AA
:10774000A74D0290CDE90016D2B201210020059587
:107750001FF05CFC10F0FD0F10D020F067FB84429E
:107760000CD0A04AA049A14840F2155341F0F1FBCA
:10777000404080F311884FF0030002DF0DB0BDE8F8
:10778000F083AA8C46440023CDE90A33B6B2002A1E
:107790008ED195F82630DA0797D4B4F88A31002BC9
:1077A00000F08280B34240F2FA809B1BA4F88A3139
:1077B000B4F88E31002B8BD09E4280F0DE809B1B74
:1077C0009BB20022062BA4F88E31228600F2AC80F8
:1077D00001277DE794F939206FF30003002A84F82C
:1077E000D13077DB94F87600C0F3C00100F00700D9
:1077F0002BF002FEB4F86E20B4F86C30134403F2A0
:10780000D51303447A4A7B480721E3FB0021104645
:1078100071A3D3E90023FEF77FFEDDE90A1320F010
:107820007F4220692261904235BF161A801A0020DB
:1078300000260A46002B7FF47DAF56EA010C7FF448
:1078400079AF002850D019461E4673E794F88E3061
:1078500003F01803182B7FF418AFA18DB4F886211C
:107860008B1D9A42C4BF931F5B1AB4F88211CCBF20
:107870009BB21346994200F08C80A4F88231A4F8A0
:107880008431A4F8882100E73D2784F850713946F7
:1078900020460DB0BDE8F04324F014B90023A4F84D
:1078A0008831A4F88431F0E6B4F88E31002B83D10E
:1078B000628DB4F88C3140F2E24101FB02F242F2F7
:1078C000107101FB0323013BB3FBF2F39BB2A4F85D
:1078D0008E316FE794F87700012100F007002BF05C
:1078E0008DFD87E73D4615E7002D4BD0002611465C
:1078F000304633461EE70023A4F88431204626F0A4
:10790000A1FB00E7304615E720F0F8F90146002812
:107910003BD00023A4F88831238DC3801B2303713F
:10792000006820F0B5F9E5E694F939309342BFF6E6
:10793000CFAEB8F1000F7FF44BAFD4F878315A08CE
:10794000DB0743D4C4F87821C2E628460AAA0BA96B
:1079500004F1D409FFF7F0F9484626F061F818B3AE
:10796000484626F05DF818B300232386A5E69DF867
:107970002710204624F0A6F800E70821204624F02E
:10798000A1F8FBE6002FB1D1F8E60123A4F8883175
:10799000B0E6B4F8881100297FF477AE6FE73E2196
:1079A000204624F08FF8E9E6FF2024F043F8D7E7DB
:1079B0000246D4E91E011DF071FF0028D4D194F8CD
:1079C0003C30580744BFA38D238676E642F0004240
:1079D000C4F87821FCE600BF8D49FD1A07000000BD
:1079E00051B204008C1F08009C200800BC1808003D
:1079F0008C49FD1A00CA9A3B2DE9F04F87B0CDE9BA
:107A00000432BDF8442003780292BDF84820BDF846
:107A10004080BDF84C50468EB0F82E90B0F814B1AE
:107A2000019104460392002B00F0CB80013EB6B2D8
:107A3000A368D4F80C71721B92B2002B009209DA81
:107A4000E168626823F0004391422CBF7F18BF18A1
:107A5000A360FF1A009A638D13FB02F39BB2B3FB82
:107A6000F8F218FB02F080B283421FFA82FA80F02B
:107A70009780C01A40F2E2425D4902FB00F0A0FB91
:107A8000010159A3D3E90023FEF746FD20F07F4012
:107A90000744D94494F839304D44AD1B554440F265
:107AA000E246DB09E58506FB08F500F08E80226CD6
:107AB0000099A36CDFF838B102FB1133A3642BF0FB
:107AC00087FE814694F87401C0F342002BF082FED9
:107AD000059B814406FB03F305FB09F9236509F5C2
:107AE0007429444B09F23F29A3FB09394FEA994312
:107AF00003FB0AF02364A5EB0309A36C6A080344A3
:107B0000963A934228BF1346C4E911230023C4F8D0
:107B10007C31A0FB0B0134A3D3E90023FEF7FCFC6E
:107B2000049B3F1A3448A0FB0330800A06FB00F098
:107B30002DA3D3E90023A0FB0B01FEF7EDFC20F001
:107B40007F46029BA385039BA4F88C3129462046DF
:107B5000A4F82A8026F012FA284BA18D2B44881D08
:107B6000B3FBF5F39AB29042A4F8862102D2521ADE
:107B7000063A92B2019BA4F8822113B10023A4F823
:107B80008E313B464A4631462046FFF7C9FC94F801
:107B9000803143F0010384F8803107B0BDE8F08FF5
:107BA00008FB1231124840F2E24389B203FB01F1B3
:107BB000A1FB00010CA3D3E90023FEF7ADFC3F1AA3
:107BC00067E74E445E44B6B232E7049B0848A3FB25
:107BD000000105A3D3E90023FEF79EFC20F07F46B9
:107BE000A9460136ADE700BF8D49FD1A0700000028
:107BF00000CA9A3B83DE1B435917B7D17FC3C90123
:107C00002DE9F04F04460B68077F1668D3F800A0F3
:107C1000638CD0F81E0095B015464A7CADF84C3008
:107C2000FF2AC7F3801389460D9212908DF83F30DA
:107C300072D198461A4612AB93E803000DF1400B3F
:107C40001090ADF84410F8090AF1710127680A9103
:107C50005B460C900B9723F01DFE0A99002843D138
:107C600096F89A310C9A0A9068F3410362F3000384
:107C700086F89A311098BBF80430C6F8A101A6F82E
:107C8000A531DAF87130C6F89B318B88A6F89F31A0
:107C9000E38D94F83010A9722B81D4F82A306B60F0
:107CA000D4F83A30AB6105F1180094F83E30037116
:107CB00005211DF079FF6B7F00F03F0060F30503A5
:107CC0006B7794F83F30C3F30401A977A18EE98163
:107CD000012803F01F0389B206D91B3303F01F03E9
:107CE0000B2B01D80A9A59BB0022CAF8142095F828
:107CF00020300B9862F3000385F82030E5680126F8
:107D0000214626711FF0BAFF28682E7129461FF000
:107D1000BFFF15B0BDE8F08F0DF1400B10460DF11F
:107D20003F015A4629F08CFF9DF83F80277F08F1DC
:107D300002085FFA88F88DF83F8008F0010282E7B8
:107D4000D9F800305A60E38E2B82EB8940F2E2488A
:107D500008FB03F71146638E0A93304626F022F99A
:107D600094F83F3096F874215B0963F3430286F878
:107D700074212BF02DFD0C9096F87401C0F3420095
:107D80002BF028FD0C9B184407FB00F0BA4B00F5C4
:107D9000742000F23F20A3FB00307B08800C963B50
:107DA0006862AB6294F8313008FB03F3AB63238F56
:107DB000A6F88C313946304626F0E0F8AF4BB04A91
:107DC000C6F890213B44B3FBF7F39AB2A6F886219C
:107DD000298A881D824204DDC1F57F41FA310A44B7
:107DE00092B2A6F882216B68C6F87831234613F860
:107DF0001C2FC2F34018DA0700F104814FF480739E
:107E0000A3839AF826002AF075FC04F12B030028BE
:107E100000F0EE80626AC4F82B20228D9A800D9BC0
:107E2000FF2B00F0E980BDF84C301298A4F82930FF
:107E3000C4F82500BBF80430A4F8233010989DF84E
:107E40003F30C4F81F00A377EB8963862B8AA38693
:107E5000B6F88C31E38696F87431C3F3420384F8A4
:107E60003830304623F078FAA881E08021460B981C
:107E7000D9F804401FF002FFAB89E3801C23D4F83B
:107E800000B02371B8F1000F40F0D18084F81C805D
:107E9000214658461FF0FCFE95F85B00B5F850806F
:107EA000B5F85240012100F007002BF0A7FA444436
:107EB00004F2D514DFF8D4810444834671480721C5
:107EC000E4FB080131230024B360746068A3D3E9A4
:107ED0000023F460FEF720FB20F07F4030616D6AE4
:107EE0000A9A7D1BD9F80C7040F2E24303FB02773B
:107EF0000221224601201DF009FD504622F0AEFD70
:107F000007F2B2470246A7EB0B07A7FB080117468B
:107F100057A3D3E90023FEF7FFFACDF804A0D9F860
:107F200008305949009120F07F48BA1C3A3BD2B240
:107F30002046434401211FF0C3F8012800F082804D
:107F40009AF82430DB076AD4304623F005FA4F4B09
:107F5000A5FB035A044646A3D3E90023284651460D
:107F6000FEF7DAFAD9F80830494A0792A3F13A093C
:107F7000484B069620F07F47A7FB0331E81A464B93
:107F8000059340F2D113089333694FF0000BCDE90C
:107F900003B34FF0070303FB07116AEB01014FF432
:107FA0007A720023FEF7B8FA0534E4B2CDE9017025
:107FB000CDF800804B462246012158461EF092FF24
:107FC00010F0FD0F0CD0354A354936484FF4E973AF
:107FD00040F0BFFF404080F311884FF0030002DF04
:107FE0000122022110461DF091FC15B0BDE8F08F72
:107FF000C4F82B00988012E70022C4F82520A4F8CA
:10800000292017E7254A28492648F82340F0A1FFF0
:10801000404080F311884FF0030002DFEEE60023BA
:1080200001220093184611461FF008F88CE76B7F79
:1080300043F040036B77281D29F0FAFB4FF001084D
:10804000E88323E71FF0F2FE82453FF479AF134A3D
:108050001649144840F2792340F07BFF404080F3FA
:1080600011884FF0030002DF6AE700BFAFF3008022
:108070008D49FD1A0700000083DE1B437FC3C90141
:10808000404B4C008C49FD1A8912050000CA9A3BEE
:10809000591205008D49FD1AC5120500502508002A
:1080A00050200800BC1808008C1C0800AC250800F3
:1080B0002DE9F04F8DB01F46BDF860300793CDE934
:1080C0000501BDF868309DF85C90BDF864B004937C
:1080D0000020164622F036FF002800F0658109F0E6
:1080E0000108044640461FF0D7F80390B8F1000F8E
:1080F0006DD1169B03993A46404623F0CBFB0028EE
:1081000040F06381236A04F11C020892002B65D0C1
:10811000D4F820A0DAF8005007F0010B9AF85A00C2
:10812000C0F3C00100F007002BF066F9BAF8521056
:10813000BAF8502000F2D5130A441344CC48CD4A73
:108140000721E3FB00211046C7A3D3E90023FEF774
:10815000E3F920F07F40286130462AF03BF894F89C
:1081600033306FF3410384F83330FF2384F8343025
:10817000002E00F01D81A9F10203012B40F229819C
:1081800094F84810089869F3420184F8481094F86C
:1081900033106BF30001DDE9052384F833101699E1
:1081A000096861621699898821850499218600965B
:1081B0000021FFF7B9F860642BF0B8FA002840F00E
:1081C00013812046FFF7DCF80DB0BDE8F08F0621E3
:1081D0001DF040FB00288CD11220F5E71FF036FD82
:1081E0000990002800F0738123F0AAF805460028C2
:1081F00000F06A8120301DF0EBFC05F11C0A00281C
:1082000040F01D81032105F124002AF0A9FF079BFE
:10821000D5F888006B854FF6FF73A5F82CB02B8539
:10822000002800F0198105F17C0205F178011DF0AC
:108230001DFBB5F8763023F4EF6323F0070343F416
:10824000887343F00103A5F8763095F88E304FF02F
:10825000000B23F0070385F88E300121C5F888B0A4
:10826000A5F88CB0284623F06FFFC5F82EB0A5F80E
:1082700032B005F1340029F085FA95F8393060F311
:108280000503012185F839300DF12F002AF068FF30
:10829000049B9DF82F20A5F88C31774B85F83BB0D7
:1082A000A3FB0213DB0803EB4303A2EB830295F865
:1082B0003930A98DA5F88EB103F03F0385F8393028
:1082C00095F83C30A5F884B1053223F0030385F816
:1082D0003A20079A85F83C3040F2E24B674B0BFBA3
:1082E00002FB4FF4C0225B44C5F88821881DB3FB14
:1082F000FBF39AB28242A5F8862102DD063A521AB1
:1083000092B2A5F88221284625F0C0FD594628469C
:1083100025F034FE099BC5F85431002385F850310F
:1083200023F0ACFA95F8942160F3020285F89421C9
:1083300023F0AAFA95F8942160F3C50285F89421F8
:1083400095F88021002363F3410285F8802105F12F
:10835000D40025F023FB95F89A21169907F0010B1C
:108360006BF3410285F89A213122AA600023169A04
:108370006B60EB601268C5F8A12195F89A21898895
:10838000A5F8A51169F30002039985F89A210A68F6
:10839000C5F89B218A88A5F89F21C4F820A0C5E9CB
:1083A00005332B70ED61B9E60C200DB0BDE8F08F00
:1083B0002AF050FB00283FF4DEAE169938463246CC
:1083C0002AF082F884F83400D5E60B200DB0BDE821
:1083D000F08F002029F022FF94F8333043F002039D
:1083E000C14684F83330CBE6256AEB6E63B1244A8C
:1083F0002449254840F21D4340F0ABFD404080F346
:1084000011884FF0030002DF05F1600105F15C0007
:108410001DF030FA064600283AD02F68EE66D7F8ED
:108420005451002D42D028461FF016FC384622F049
:108430008DFF0023032023620DB0BDE8F08F104AAA
:1084400012491148C12340F084FD404080F3118857
:108450004FF0030002DFD5E605F18000C5F8880083
:10846000E1E600BFAFF300808D49FD1A0700000070
:1084700000CA9A3B8C49FD1AABAAAAAA7FC3C901BC
:10848000DC250800801E0800BC1808001819080028
:10849000104A1149114840F21F4340F05AFD404034
:1084A00080F311884FF0030002DFB6E7094A0A495A
:1084B0000A4840F2264340F04CFD404080F31188CA
:1084C0004FF0030002DFAEE709981FF0C5FB07205D
:1084D0007AE600BFDC250800DC1F0800BC18080095
:1084E0002DE9F04F04468DB090F81C80238D406A32
:1084F000ADF82C30E307C8F3C0170E461546C8F395
:1085000040180A9000F10D810023A383B37C707C96
:1085100013F001031CBFD4F81E30C4F82B3004F153
:108520002B0214BF638CC4F82B30FF28938004F116
:10853000250904F11F0240F0E5800023BDF82C104E
:108540000A98C4F82530A9F80430A777C4F81F00AA
:1085500091803368D3F80090EB8963862B8AA386D9
:10856000B9F83030E3862BF031F984F838002F6801
:10857000384622F0F1FE0021A881E080384625F03F
:1085800011FDD6F804A0206821461FF077FBAB89C7
:10859000AAF806301C23DAF800408AF80430B8F153
:1085A000000F40F0CC808AF81C80514620461FF016
:1085B0006FFBBB687A6895F85A00B5F80E80F568CD
:1085C000674C934238BF1346C0F3C00103F1090A58
:1085D00000F0070040F2E24303FB08F82AF00CFF2A
:1085E000002202212D1A01201DF090F9484622F0A8
:1085F0007FFCA5FB044558A3D3E900238346294605
:108600002046FDF789FFCDF80490B36855490091E5
:1086100020F07F490BF10402A3EB0A03D2B24B44D2
:10862000012100201EF04CFD10F0FD0F0CD04E4A31
:108630004E494F4840F23D3340F08BFC404080F3C0
:1086400011884FF0030002DF4FF0000B5B4603225E
:108650000121CDF800B058461EF0F0FC384622F05B
:108660007BFEB36806463E48A3EB0A0AA8FB00015E
:1086700039A3D3E90023FDF74FFF19463D4B08937B
:108680003D4B069340F26D33079709933B69804653
:10869000CDE904B3104600234FF47A72FDF73CFF96
:1086A000364B0722A9FB0331CDE9028002FB0911F9
:1086B000E01A65EB01014FF47A720023FDF72CFFFD
:1086C0000536F6B2CDE900905346324601215846B0
:1086D0001EF024FC10F0FD0F0CD0234A234924483F
:1086E00040F26E3340F035FC404080F311884FF08B
:1086F000030002DF0122022110460DB0BDE8F04F59
:108700001DF004B904F11E0129F09AFAA37FBDF807
:108710002C200A98C4F825000233A377A9F8042076
:1087200017E7114A1649124840F2BD2340F011FCE8
:10873000404080F311884FF0030002DFE4E66B7FD6
:1087400043F040036B77281D29F072F84FF00108C1
:10875000E88328E7AFF300808D49FD1A0700000089
:1087600000CA9A3B39140500DC2508005020080097
:10877000BC1808003D1405006D1405008D49FD1A54
:108780008C1C0800000000000538C3B2052B0CD873
:1087900070B580B20D4622F0E7FD044618B190F99D
:1087A0003930002B03DA002070BD0020704790F8AC
:1087B00076000F4EC0F3C00100F007002AF01CFE47
:1087C0000C4A00F2B5500721E0FB0621104606A333
:1087D000D3E90023FDF7A0FE20F07F40286020466B
:1087E00070BD00BFAFF300808D49FD1A0700000087
:1087F00000CA9A3B8C49FD1A2DE9F04F93B0FF2433
:108800000B930B1D0A930023CDE90E330546164644
:108810008DF837409B464FF0040A1F46994698460C
:1088200010AB0693564B0593564B03930FAB019336
:108830000EAB002000930223109304900290334665
:108840000DF1370229461EF07FFC022815D0109B3F
:10885000CBB9FF2C26D03368BB4223D0BAF1000F2E
:1088600040D00AF1FF3AFF245FFA8AFA8DF83740C8
:10887000D6E7294600201EF0B3FC109B022BF8D04F
:10888000109B002BE5D0404A404941484FF4F77314
:1088900040F05FFB404080F311884FF0030002DF9F
:1088A000FF2CD8D19DF83700FF2829D011A9FFF758
:1088B0006BFF0028B4D0FF2C0E9F119B0AD04146BD
:1088C000384609931EF0A6FC0A9B03EB090290426E
:1088D000099B17D8B8469DF837403768DDF83CB09B
:1088E00099469DE72B49284A29484FF4FB7340F0ED
:1088F00030FB404080F311884FF0030002DFB0E707
:10890000FF2C34D024480721A9FB000301FB0931C7
:1089100019A3D3E90023FDF7FFFD044600B140345D
:108920001E4AABF57423A3F51073934216D81A4868
:108930000721A8FB000301FB08310FA3D3E90023A3
:10894000FDF7EAFD164BA3FB0B2304EB93440B9BB3
:10895000044400201C6013B0BDE8F08F0BF1E87BED
:108960000BF5D43B08F1FF380BF5A57BDFE76FF083
:10897000090013B0BDE8F08F00CA9A3B0000000068
:10898000491705004D170500282608006C26080029
:10899000BC180800742608008D49FD1ABFBDF07F81
:1089A00083DE1B43000000002DE9F043C6684768E2
:1089B00073683D491A68D0F80090A7F57423A3F5B1
:1089C00010738B4283B0804607D907F1E87707F52B
:1089D000D43709F1FF3907F5A57773681169DD8987
:1089E000CDF8049006F1100301AA0220FFF704FF5E
:1089F00000284ED10199A1EB09031B0237D4084688
:108A000049461EF007FC034628480721A3FB000245
:108A100001FB032122A3D3E90023FDF77DFD346987
:108A20000444002C346109DB40F2E24305FB03F30C
:108A3000A3422FD2E41AA342FCD33461D8F8003009
:108A40001A48A3EB0903A3FB0002072101FB032142
:108A500013A3D3E90023FDF75FFD154BA3FB0737F5
:108A6000A0EB97402044306103B0BDE8F083484656
:108A70001EF0D0FB03460D480721A3FB000201FBBB
:108A8000032107A3D3E90023FDF746FD3469241A27
:108A9000C7E73469002CD1D103B0BDE8F08300BF33
:108AA00000CA9A3B00000000BFBDF07F8D49FD1A4F
:108AB00083DE1B430000000010B5334C3349002314
:108AC00004F1FF3C14F83320072A02EB820E05D88C
:108AD00011F83E206FF3451201F83E201CF83320B8
:108AE0006FF300020CF833200133082BEAD1284A37
:108AF000284C002313700A7863F300020A7091F87F
:108B0000282063F3000281F8282091F8502063F3B5
:108B1000000281F8502091F8782063F3000281F878
:108B2000782091F8A02063F3000281F8A02091F84A
:108B3000C82063F3000281F8C82091F8F02063F3A5
:108B4000000281F8F02091F8182163F3000281F807
:108B50001821114A9FED0A7B1370104B83ED007BA7
:108B60000F4B236028B1BDE810400E490E484FF06E
:108B7000BFBEBDE810400C484FF0C8BEAFF3008048
:108B8000FFFFFFFFFFFFFFFFB9FC002078FB002085
:108B90009F15012088FA00209E150120D089002011
:108BA000A0BB0D0009240500A089002000000000E2
:108BB0002DE9F04F8FB00DF137010446DFF8E0A04A
:108BC000DFF8E0800DF136001FF0E0F89DF8363058
:108BD0009DF837B00B931EF01BFBDAF80060A6FB84
:108BE000085629A3D3E900230027814631462846A9
:108BF000FDF792FCCDE90777069420F07F44DAF880
:108C00000400234B0593A0FB08011FA3D3E9002315
:108C1000FDF782FC1F4B20F07F40A4FB03310722AD
:108C200002FB0411CDE90370E81A66EB01014FF471
:108C30007A720023FDF770FC0097CDE901404B46A6
:108C40000B985A4603211EF04DF910F0FD0404D094
:108C50006FF08B000FB0BDE8F08F0F480F4A002374
:108C60003DF0C4F920B9DAF80C000FB0BDE8F08F80
:108C70009DF837209DF836000094234603211EF00E
:108C8000DDF96FF07300E5E78D49FD1A070000007C
:108C9000592B05008D49FD1A2CFD0020447B0B004B
:108CA00044FD002000CA9A3B38B50F4D04461EF023
:108CB000AFFAA9681EF0AEFA696803460B48B3FB29
:108CC000F4F4A1FB00011C4405A3D3E90023FDF744
:108CD00023FC20F07F40844294BF0020012038BD57
:108CE0008D49FD1A0700000044FD002000CA9A3B90
:108CF000F0B5C468636883B00546002B63D12CF0DF
:108D0000FFFA08202CF022FB002108462CF010FB73
:108D10000022252108202CF04FFB454B019301A890
:108D20002CF032FB434940F25B602CF0DDFB237AF0
:108D3000C3F3420262F30613204623722AF068FF4F
:108D400029F088FE58BB637A9B071FD127682E68DD
:108D500038462AF0EFFA06446A6806F10901012054
:108D60002CF01CFD2CF008FE204621F083FE811C17
:108D70003246C9B238462AF0EBFA054670BB2046A7
:108D80002AF072FA88B9002003B0F0BD012029F062
:108D9000D5F94178821C00782CF0A0FCD6E7607AE7
:108DA00010F0030018BF0120F1E7234A23492448AB
:108DB00040F22C4340F0CDF8404080F311884FF052
:108DC000030002DFDFE793F820309A0797D01D48B1
:108DD00021462CF053FA2CF041FBD4E7164A1A49ED
:108DE000174840F2144340F0B4F8184B0721A5FB94
:108DF000030301FB05310CA3D3E90023FDF78CFB32
:108E000013490246134840F0A4F8404080F311880B
:108E10004FF0030002DF104821462CF02FFA2CF00F
:108E20001DFB6FF08B00AFE700CA9A3B000000000B
:108E3000D6BE898E55555500442A0800281A0800C8
:108E4000BC180800D93405003C1908008D49FD1AEA
:108E5000F42A0800C82A0800E137050000000000D5
:108E60002DE9F041C46894F91630002B8CB0C0F2A3
:108E7000FF80636805460E46002B40F0EE80A37D20
:108E80006FF30003A3752CF03BFA08202CF05EFA78
:108E9000002108462CF04CFA0022252108202CF055
:108EA0008BFA01201FF074F80746002800F0C780F5
:108EB00007F11C002CF0AAFA874B0B930BA82CF09F
:108EC00063FA864940F25B602CF00EFBA07DC0F394
:108ED000410025302AF04EFA814821462CF0CEF987
:108EE000A37D9B0603D46368002B00F0A580962029
:108EF0002CF048FC00231A46194618462CF05AFB61
:108F000029F0A8FD002838D1A37D13F0180F59D1FE
:108F1000D4F800802F6840462AF00CFA07446A68AB
:108F200007F1090100202CF039FC2CF025FD2CF074
:108F3000B1FB204621F0EAFF011DC9B240463A4686
:108F40002AF006FA8046002840F0998016B9636A34
:108F5000002B4ED1636843B1624B012202210020F5
:108F60009D601CF009FD002835D120462AF07CF9CF
:108F7000D0B900200CB0BDE8F081A07DC0F3C000E6
:108F800029F0DCF807460DF12B0029F0DBFB79789E
:108F90008046BA1C38782CF0A1FB9DF82B000022EB
:108FA00041462CF0B9FDB3E74F4A5049504840F2D2
:108FB0000B233FF0CEFF404080F311884FF00300B9
:108FC00002DFD6E7012029F0B9F84178821C007849
:108FD0002CF084FB9CE7444A4649454840F206236E
:108FE0003FF0B7FF404080F311884FF0030002DFED
:108FF000BBE7414A0792414A059240F2F3120093BF
:109000000892CDE90366CDE9016606943B463146F8
:1090100003221DF067FF10F0FD0F9BD0324A384944
:1090200033484FF4FA733FF094FF404080F31188C7
:109030004FF0030002DF8DE72CF01CFB60E72A4AAB
:1090400030492B484FF4C5733FF083FF404080F315
:1090500011884FF0030002DF2AE7636893F820309D
:10906000D90705D4636893F820309A077FF507AFD6
:10907000254821462CF002F92CF0F0F979E71A4A3C
:1090800022491B4840F2E5133FF063FF204B0721C4
:10909000A8FB030301FB08310DA3D3E90023FDF76F
:1090A0003BFA1C4902461C483FF053FF404080F306
:1090B00011884FF0030002DF184821462CF0DEF83B
:1090C0002CF0CCF96FF08B0054E700BFAFF30080B9
:1090D00000CA9A3B00000000D6BE898E5555550047
:1090E000C1910200E0210020002B0800281A08008E
:1090F000BC180800301A080059430500F943050060
:10910000CC1D0800902A0800D93405003C1908003D
:109110008D49FD1A4C2B0800C82A0800354205006D
:1091200038B504462BF036F8A37DA27DC3F3410386
:10913000013303F00303032B08BF002363F3420250
:1091400014BF03F125002520A2752AF013F96368E6
:109150000BB123694BB91EF05BF8C11C00202CF049
:1091600091FBBDE838402CF007BC2CF0B9FB05465C
:109170001EF04EF8C11C00202CF084FB2CF0FCFBF0
:109180002CF0AEFB29461EF045F80B4A034607219A
:10919000A0FB020201FB032105A3D3E90023FDF795
:1091A000BBF923691B1A236138BD00BFAFF30080F0
:1091B00000CA9A3B000000008D49FD1A0000000023
:1091C0002DE9F0478AB004462CF07AF9C0B250B9C4
:1091D0002AF028F9C44821462CF050F80AB0BDE81E
:1091E000F0472CF03BB92CF08BF905462CF0AAFA8D
:1091F00007462CF0B1FA81462CF0E8FC06462CF02C
:10920000C7FC82462CF060FAEDB280462CF040FAA2
:109210002AF008F9002DDDD001201EF0B9FE054628
:10922000002800F04D8117F0FF07F6B240F0E38010
:10923000002E40F0DA804FF0FF093A464B463146A7
:1092400020462BF0CDF90028C4D02A7F6168002386
:109250008DF823305FFA88F702F00F03002900F041
:10926000EC80616891F82010880700F1E680072BF8
:10927000B0D0A17D090740F14381002B40F0C480AC
:109280006B7F063B1F2BA5D804201EF081FE002813
:10929000A0D02CF079FB636A074643B9238C40F2D7
:1092A000712202FB03F3B0FBF3F203FB1207236806
:1092B0001A698E4B0721A2FB030301FB023188A32D
:1092C000D3E90023FDF728F96FF44A7C00EB0C0387
:1092D000BB42FFF47FAF2CF0CDF94846636829F01C
:1092E00017FAE37D9907804640F1E581002800F0F8
:1092F000E281824601272CF011F9CDE9027A09AB0F
:10930000049305F11E0301932B7FC3F380130146E1
:10931000074600930022012320462BF07BF93846B4
:109320002CF07AF82CF0C2F8002840F0CA8170487E
:1093300021462BF0A3FF626892F8203043F001032E
:1093400082F82030A37D43F08003A3751EF042FE17
:10935000172202714FF6FF72C28095F81CC0824638
:109360003B46CCF3401C00F11C0207F1200E1D68A7
:1093700058689968DF68D76010337345156050608E
:10938000916002F11002F2D11B6813609AF81C3050
:10939000CAF808406CF345138AF81C302CF0A0FA88
:1093A000002ECAF81000099BCAF8143008BF4FF00D
:1093B000FF098AF81990E37D13F0020303D0B8F196
:1093C000000318BF01239AF81A2063F300028AF8F9
:1093D0001A201EF0FFFDCAF80C00DAF80000514612
:1093E0000AB0BDE8F0471EF023BE5FFA8AF029F00C
:1093F0001DFA814621E7A07D5FFA89F1C0F3C00024
:1094000029F0AAF9814618E7012B40F089806A7F8C
:109410000C2A7FF4DFAE2A7FCDF800901946002396
:109420000193D20905F1240320462BF02DF80028E2
:109430007FF42AAF2B7F03F00F03002B70D16B7FDB
:10944000052B7FF6C7AE252B3FF6C4AEA27D02F0FA
:109450002102202A09D16268002A00F0C180052B70
:109460007FF6B8AE252B3FF6B5AE63682BB12B7FE8
:1094700003F00F03072B7FF4ADAE03209DF823808C
:109480001EF086FD054600283FF4A4AE1EF0A2FDA6
:109490004FF6FF73EB8005232B71002F3CD17F200B
:1094A000AB7E2876002E08BF4FF0FF0968F341031A
:1094B000286885F81990AB7629461EF0B9FD89E633
:1094C0000C4A0D490D4840F2C7233FF042FD404091
:1094D00080F311884FF0030002DFA4E6AFF30080B1
:1094E00000CA9A3B000000004D4205008D49FD1A5C
:1094F0003D440500002B0800902A0800BC18080015
:10950000B9F1FF0F8DF82490C2F380184BD0227E62
:1095100091453FF4B2AE90E72CF0C6F8C0B2BFE779
:10952000062B8CD04521D94011F0010139D1012BF6
:1095300010D16B7F0C2B7FF44DAE2A7FCDF80090BD
:109540000DF123030193D20905F1240320462AF0EB
:109550009BFF08BB2B7F03F00F03042B7FF43AAE75
:109560006B7F063B1F2B3FF635AEA37DDB077FF5F8
:1095700031AE2BF0D3FF2B7F0278C3F38013B3EB14
:10958000D21F7FF427AE0830062205F11E014FF0EE
:10959000DDFE00287FF41EAE6B7F002B7FF465AFED
:1095A00018E66B7F5BE705F11E0A09AA51464046A3
:1095B00029F0F2F900283FF43DAFE37D03F0010309
:1095C00043457FF437AF5146062204F108004FF0BF
:1095D000BDFE00287FF42EAF2B7F03F00F034CE677
:1095E000962007922CF0CEF8079A10462BF09AFF9F
:1095F00003201EF0CDFC804600283FF4EBAD1EF0AA
:10960000E9FC4FF6FF73A8F80630052388F804300C
:10961000002F64D17F23002E88F8183014BF4B46EA
:10962000FF2388F8193098F81A30D8F800006FF343
:10963000410388F81A3041461EF0FAFC2BF06EFF09
:1096400006460322337862F3030333702B7F3278AC
:10965000C3F3801363F3C7120C2332704846737050
:1096600029F056F8E27D92073DD500283BD03178AD
:10967000324641F0400102F8021B0168C6F80210B0
:1096800083889380D5F81E30B3606B8CB3813046ED
:109690002BF0C2FE2BF00AFF002835D12CF06CF91C
:1096A000A37D204843F001032146A3750AB0BDE81D
:1096B000F0472BF0E3BDA77D04F1190AC7F380172B
:1096C00019E6194A19491A4840F2A4433FF041FCEF
:1096D000404080F311884FF0030002DF27E62BF0B3
:1096E000E3FFC3B297E7A37D3278C3F3801363F33C
:1096F0008612334603F8022BD4F81920C6F802204C
:10970000B4F81D209A80BDE7074A084908484FF47D
:10971000A5633FF01EFC404080F311884FF003002A
:1097200002DFBBE761420500002B0800982A080011
:10973000BC180800000000002DE9F041C468A289AF
:109740004FF6FF739A4282B000F0C78005462BF0B7
:1097500065F82B89628AE08A1A4492B21044637FCA
:10976000A28280B2411CE1825E064FF0000161825C
:1097700004F1180100F18C8003F03F000B46A17F3B
:10978000009004F11F0028F00BF80646D4E90B23E3
:109790001344D4E90D0200210244E1626163A16A2D
:1097A000A26394F872208B4228BF0B4612F0040289
:1097B000236377D02BF0A4FD08202BF0C7FD201DDC
:1097C0002BF0E2FD2389A17A40F25B6043EA01417C
:1097D0002BF08AFE304629F0CDFD214658482BF06B
:1097E0004DFD96202BF0CEFF94F85A2094F85B00A4
:1097F000C2F3C003002102F0070200F007002BF0C3
:10980000D9FE20462BF06CF827682E68384629F0E0
:1098100091FD06446A6806F1090100202BF0BEFFA5
:1098200080462CF07DF800202CF094F8236B94F8FF
:109830005B0003F13002A36B00F00700012103EB92
:1098400042052BF0F7FD4544054494F85B0000F019
:109850000700022824D004280CBF4FF4BC7328232F
:1098600001211D442BF0E8FD28442CF04BF8A18980
:1098700005313246C9B2384629F06AFD054698BB23
:10988000204629F0F1FCD0B9002002B0BDE8F081FB
:109890000A4603F03F03E18B27F0CEFF064675E74B
:1098A0001823DDE7D4E917011BF0F8FF002881D168
:1098B00094F8723043F0040384F872307AE7214A56
:1098C0002149224840F255133FF043FB404080F3CA
:1098D00011884FF0030002DFD6E71D4821462BF028
:1098E000CDFC2BF0BBFDCFE7164A1A49174840F2D2
:1098F0004B133FF02EFB184B0721A5FB030301FB85
:1099000005310DA3D3E90023FCF706FE13490246F7
:1099100013483FF01EFB404080F311884FF00300D6
:1099200002DF104821462BF0A9FC2BF097FD6FF0C9
:109930008B00AAE7AFF3008000CA9A3B000000004A
:10994000394B0500CC2B0800281A0800BC18080069
:10995000D93405003C1908008D49FD1A202C080057
:10996000C82A0800B5340500F0B5C468A2894FF6CE
:10997000FF739A4285B000F08B8005462AF04EFFB7
:109980002B89628AE08A1A4492B21044637FA282D1
:1099900080B2411CE1825E064FF00001618204F159
:1099A00018015FD403F03F000B46A17F009004F143
:1099B0001F0027F0F5FE0646204603A92BF05EF8AF
:1099C000039B94F872101A7861F3C3021A70039A19
:1099D00094F872301178C3F3400363F3820111707D
:1099E0002BF08EFC08202BF0B1FC201D2BF0CCFCC2
:1099F0002389A17A40F25B6043EA01412BF074FDB8
:109A0000304629F0B7FC039920462BF00BF821468D
:109A100037482BF033FC96202BF0B4FE94F85B0013
:109A200000F007002BF07EFD27682E68384629F0ED
:109A300081FC06446A6806F1090101202BF0AEFEA4
:109A40002BF09AFFA18905313246C9B2384629F078
:109A50007FFC054618BB204629F006FC50B90020C3
:109A600005B0F0BD0A4603F03F03E18B27F0E4FEAA
:109A70000646A1E71F4A2049204840F203133FF061
:109A800068FA404080F311884FF0030002DFE6E7F8
:109A90001B4821462BF0F2FB2BF0E0FCDFE7154AD8
:109AA00018491648F9233FF054FA174B0721A5FB34
:109AB000030301FB05310CA3D3E90023FCF72CFDC4
:109AC0001249024612483FF044FA404080F31188A0
:109AD0004FF0030002DF0F4821462BF0CFFB2BF0A5
:109AE000BDFC6FF08B00BBE700CA9A3B0000000092
:109AF0006D4905002C2C0800281A0800BC18080025
:109B0000D93405003C1908008D49FD1A7C2C080049
:109B1000C82A0800B53405002DE9F0472DED028B69
:109B20009FED498B4A4E84B004464FF02003EFF37B
:109B3000118783F31288BFF36F8FD4F8C8508DB9A3
:109B4000022104F1E0004EF01CFE002843D1002366
:109B50008DED008B029304F1D00239463D483CF074
:109B600023FFE2E7D4F8CC202B68C4F8C830954234
:109B700008BFC4F8CC30D4F8E03043F00203C4F896
:109B8000E030EB6823F0040343F00103EB606B6803
:109B900087F31188BFF36F8F284698474FF0200353
:109BA000EFF3118983F31288BFF36F8FEB68990786
:109BB00023F0010219D4EA60D4F8E03023F0020364
:109BC000C4F8E03089F31188BFF36F8FDB05ACD4A4
:109BD0003CF0CAFDA9E704F1D8050022012128467E
:109BE0004EF0D5FF0028F8D1B1E7306823F0030329
:109BF000EB600028E0D00027D0F80080BA460028AB
:109C0000DAD04268954201460BD1016897B9726873
:109C10003160824200D1716040F808AB3CF0C0F97D
:109C20003946B8F1000F0BD0D8F8002040460F4657
:109C30009046E4E739607268824208BF7760EBE7DC
:109C40004246F3E7AFF30080FFFFFFFFFFFFFFFF98
:109C500024120120CC160120F8B510EE904A34F001
:109C600000472DED048B10EE103AB0EE609A0DD146
:109C700083F480035B0013F5000F40F2098230EE9D
:109C8000098AB0EE480ABDEC048BF8BD23F0004011
:109C9000B0F1FF4F02D8B7F1FF4F08D9B3F17E5FA3
:109CA000EDD184F48004640014F5000FE5E7002B87
:109CB00001462DDAB7F1974F0CD3B7F1FF4F2AD0F9
:109CC0000225B4F17C5F41D1002BC0F28F80B1EE50
:109CD000C08AD6E7B7F17E5F31D3FA15C2F196029A
:109CE00047FA02F505FA02F2BA423DD1B7F17E5FBA
:109CF0004AD1002C80F2D281B5EE400AF1EE10FA82
:109D000050D1D80FBDEC048BBDE8F8403DF0D4BC79
:109D1000B7F1FF4F3DD1B0F17E5F00F0B98108D9B6
:109D2000DFED977A002CB4BFB0EE678AB0EE498AB7
:109D3000A7E7002C80F2AF81B1EE498AA1E7B4F128
:109D4000804F34D0B4F17C5F5CD0002523F04042DA
:109D5000B2F17E5FB0EEC08A3FD1002CBCBFB7EE3F
:109D6000007A87EE088A29E0B7F17E5FC1D000252E
:109D7000B4F1804FEAD1B0F1BF4F1AD2B0F1D05F49
:109D800029D920EE008A7CE705F00105C5F102051E
:109D9000EEE7B7F17E5FACD0B4F1804F4FF0000535
:109DA000E9D08EE7B7EE007A87EE008A69E70025F2
:109DB000E1E7B0F1FF4FB0EEC08A35D1002BBFF61E
:109DC00060AFA0F17E50284316D1BDEC048BBDE8F6
:109DD000F8403DF07FBCB0EEC08A28BB002C1EDAF4
:109DE000002B8FDA6B1E584258418BE7B0F1FF4FC2
:109DF000B0EEC08A40F05581012D7FF442AFB1EE44
:109E0000488A3EE7B0F1FF4FB0EEC08A3FF439AF69
:109E1000B0F17E5FD9D000283FF433AFD5E7012DF4
:109E200008BFB0EE408A2CE7DE0F013E55EA06027D
:109E3000CBD0B7F19A4F40F24081524B984208D8AC
:109E4000002C0BDA0020BDEC048BBDE8F8403DF09F
:109E500025BC4D4B984208D9002CF3DC0020BDEC0A
:109E6000048BBDE8F8403DF00BBCB7EE007A38EE4D
:109E7000478ADFED467ADFED469A3FA1D1E900013E
:109E800068EE278AFCF7F8FA07EE900AB5EE007A3A
:109E900048EE477AB6EE007A07EEC87A68EE087A9E
:109EA000DFED3C6A27EE277AF0EE687A47EE667AB5
:109EB00068EE299A39EEA77A17EE103A23F47F63F9
:109EC00023F00F0307EE103A77EE699A77EEE97AFE
:109ED000013D24F47F643543B7EE007A24F00F048B
:109EE000BFEE008A18BFB0EE478A07EE104A67EE51
:109EF000890A39EE477A07EE903A47EE270A07EECD
:109F0000104A67EE877A30EEA77A17EE101A00290A
:109F100021F000431ADDB3F1864F09D9B5EEC08AAE
:109F2000F1EE10FA4CBF012000208CE70120E5E0A3
:109F300036D1DFED196A37EE677A70EEA66AF4EE75
:109F4000C76AF1EE10FAE9DC86232DE0134A93424A
:109F500007D9B5EEC08AF1EE10FA4CBF01200020FF
:109F60007DE71DD137EE677AB4EEE07AF1EE10FAB4
:109F7000EADBEEE7AFF30080E13D55555555D53F9F
:109F800000000000F3FF7F3F0700803F70A5EC3624
:109F900000AAB83F3BAAB83F3CAA3833000016439A
:109FA000B3F17C5F6FD9DB157E3B4FF400001841A5
:109FB0000844C0F3C753A04A7F3B1A41024007EE52
:109FC000102AC0F3160040F40000C3F11703184133
:109FD000002977EEC77AB8BF404237EEA07ADFEDAE
:109FE000976ADFED975A9FED976A17EE103A23F4C0
:109FF0007F6323F00F0307EE103A77EE677A67EE80
:10A00000266A70EEE70ADFED907A67EE277A9FED19
:10A010008F7A40EE877AB7EE000A36EEA77A77EEAF
:10A02000666A77EEE67A67EE076A47EE277A16EEFB
:10A03000A56ADFED875A46EE265A9FED866A15EE31
:10A04000A66ADFED855A46EE265AB0EE476A05EE5F
:10A05000E66AF0EE006A67EE065A36EE666AC5EE0C
:10A06000866A76EEE77A77EEC77A30EE670A10EE08
:10A07000103A03EBC053B3F5000F06DA3DF0BAFA1D
:10A0800020EE088AFDE50020A7E700EE103AF7E78A
:10A09000B7EE008AF5E59FED718AF2E5B0EE408AF1
:10A0A000EFE5B0F17E5F3FF48CAE00283FF4B7AE31
:10A0B000002D3FF48AAE0225002613F0FF4F08BFA3
:10A0C0009FED677A674802BF68EE077A6FF0170363
:10A0D00017EE901A4FEAE15218BF00237F3A1A4454
:10A0E000C1F31603834243F07E5106DD5E4883428E
:10A0F0007FF71CAF0132A1F5000100205B4B03EBA1
:10A100008003D3ED005A5A4B06EE101A75EE867A8C
:10A11000F7EE006AC6EEA74A491041F0005101F57A
:10A12000802101EB405136EE657A07EE901A27EE5A
:10A13000245A15EE107A1F4006EE907A06EEE77A62
:10A1400077EEE57ADFED4B5A36EE676A65EE057A13
:10A1500006EE667A9FED486A47EE865A9FED476A9B
:10A1600005EEA76ADFED465A46EE275A9FED456A8F
:10A1700005EEA76ADFED445A46EE275A27EE247A09
:10A1800036EE856A67EEA77A26EE076A05EEA76ABD
:10A1900066EEA64AF0EE085A74EEA57A77EE867A55
:10A1A00017EE901A194007EE901A77EEE55A27EE4F
:10A1B000277A75EEE45A66EEA76A36EE656A06EE11
:10A1C000057A9FED326A76EE877A17EE901A19407B
:10A1D00007EE901A77EEE66A27EE866A37EE667A21
:10A1E000DFED2B6A2B4967EEA67ADFED2B6A47EE8F
:10A1F000267A01EB800191ED007A77EE877A07EEFF
:10A20000102A264A02EB8002D2ED005A76EE276A27
:10A21000B8EEC77A76EEA56A76EE876A16EE902AD1
:10A22000134006EE903A36EEC77A37EE657A37EE8F
:10A23000467A77EEC77A4BE6000080FF0072313F26
:10A240004CBB31330EEADD358CBEBF351872313F61
:10A2500055B38A38610B363BABAA2A3E000000009A
:10A260000000804B71C41C00D6B35D00183C080090
:10A2700000F0FFFF55326C3E42F1533E05A38B3E8A
:10A28000ABAAAA3EB76DDB3E9A99193F0038763FDC
:10A29000A0C39D36083C08004F38763F103C0800AC
:10A2A00001483BF07FBF00BF4804002001483BF05D
:10A2B00079BF00BF3804002007B54EF0A5FC4FF46D
:10A2C0007A72A0FB020302FB0131C00B074A40EA8D
:10A2D0004140106000234FF400420548CDE90023BF
:10A2E0003CF040FD002003B05DF804FBC89E002058
:10A2F000C8280020014B187800F07EBF56130120BB
:10A30000044B1A78824202D01870FFF7F3BF002086
:10A31000704700BF5613012008B54EF075FC4FF48E
:10A320007A72A0FB020302FB0131084AC30B1268D8
:10A3300043EA41439B1A47F23052934204DDBDE8A1
:10A3400008400120FFF7DCBF08BD00BFC89E002009
:10A3500008B54EF059FC4FF47A72A0FB020302FBE1
:10A360000131C00B044A40EA41401060BDE808409A
:10A370000020FFF7C5BF00BFC89E0020014B187822
:10A38000704700BF561301202DE9F04F85B000AF94
:10A390000D4692463C4907F108029B463FF01CFDE2
:10A3A000044608B3B86800286CD007F10C010A22F3
:10A3B0003CF074FEF9680B786E468046CBB18AB0EB
:10A3C000BB686A463148D161C2E90503304B13626C
:10A3D000304B42F8103F4FF422512F483DF0C9F95D
:10A3E000B5466FF01504B54620461437BD46BDE8A6
:10A3F000F08F3F2D0CD988B06A46284BC2E905354D
:10A400004023D361042342F8103F4FF40151E4E7A5
:10A4100005F1080222F00702ADEB020D7B602A462F
:10A4200069465846D047041E7B68E9460EDC88B072
:10A430006A461B4B1848C2E90534032342F8103F13
:10A440004FF4C2513DF095F9CD46CCE70DF80530FB
:10A45000DFF858A0134D5545C3D22B6848461968FC
:10A46000FCF7C4F9044658B90F4B1FFA88F2B3F849
:10A470000080AA80904538BF9046A3F80080B2E7DC
:10A480000835E8E70446AFE72A40080033400800F3
:10A49000000201030400000294A4070060400800C9
:10A4A0009E400800382F00203C12012080310020FF
:10A4B000F0B51D4C1D4E1E4D1E4F91B0B44202D33F
:10A4C000002011B0F0BDA3885BB9206858B91A4BC1
:10A4D0000D931A4802230CAA4FF484510C933DF0BB
:10A4E00048F90834EAE70368002BF0D04DF09DFFEF
:10A4F0000028ECD02A88013292B2A2803946684600
:10A500002A803CF033FD23680D4A1B6820210DEBA7
:10A5100001003CF0FFFC08A8FCF77AF908A9024604
:10A5200068460EF03FFCDCE7382F00208031002029
:10A530003C1201200E410800D540080094A40700F9
:10A54000767E08002DE9F04FDFF880901B4C83B039
:10A55000A4EB0904E40800AF0025A9F10808AC4207
:10A5600004DC00200C37BD46BDE8F08F01352E46D7
:10A5700008EBC50AB442F2D0DAF8002059F83610D8
:10A58000126809687A601046FCF730F97A6890B969
:10A59000EB4688B069460A4B0A48C1E905324FF4D8
:10A5A00000728A830A46084942F8101F4FF4E251AC
:10A5B0003DF0DFF8DD460136DCE700BF705F0900E3
:10A5C0002341080094A4070003000001285D09004E
:10A5D000F8B5044610B900252846F8BD0378002BCD
:10A5E000F9D00F4E0F4FBE420FD30D4EBE42F2D2E6
:10A5F00030684DF01AFF30B1356821462868FCF705
:10A60000F5F80028E8D00836F0E730684DF00DFF87
:10A6100018B135682B68A342DED00836E3E700BFE7
:10A62000285D0900705F090082B02DE9F04F99B0F4
:10A6300006AF07F1700181E80C0015460FC807F15D
:10A64000080484E80F0097F88890D7F8748097F88A
:10A650008060F868FFF7BCFF8246C0B96C4688B0DE
:10A6600006AA564BD561C2E90538042342F8103FCB
:10A6700053484FF402513DF07CF84FF0010BA546D2
:10A6800058464C37BD46BDE8F04F02B07047C7E9A9
:10A690001C5807F1700EBEE80F0007F1180CACE86B
:10A6A0000F0087F880609EE803008CE80300C7E98C
:10A6B000065887F8286007F1180BBBE80F0007F170
:10A6C000300EAEE80F009CE803008EE80300F86847
:10A6D000FFF77EFF8368D3F804B007F1300CBBF1BD
:10A6E000000F1DD007F1480313E90F00C7F804D08D
:10A6F0008DE80F0020469CE80C00D847834678B1CF
:10A7000088B006AA2F4BC2E90530032342F8103F58
:10A710002B484FF4C2513DF02CF8D7F804D0AFE7E6
:10A72000DAF808301B78012B12D0022B2AD0002B2C
:10A7300040D187F88060C7E91C5807F17803CDF84D
:10A7400010900FCB8DE80F0007F170030CCB0FE0DA
:10A75000C7E91C5887F8806007F17803CDF810909E
:10A760000FCB8DE80F00FF2E07F170030CCB03D148
:10A7700020463DF003F803E02146304608F0F4FEA1
:10A7800083467DE7C7E91C5887F8806007F17805A4
:10A79000CDF8109095E80F008DE80F0007F17003D9
:10A7A0000CCB2146002008F0DFFECDF8109095E894
:10A7B0000F00C7E76FF0850B62E700BF4E4108004E
:10A7C00094A40700754108002DE9F84F044600AF36
:10A7D00015460E4600295DD0C2F307484FF0000928
:10A7E000237B042B4FD8DFE803F0034448084100E3
:10A7F0007DBB0020BD46BDE8F88FEA468AB01FFA4F
:10A8000085FB6A46254B53610521254B9361C2E9BF
:10A8100007B8244842F8101F4FF424513CF0A9FF18
:10A82000B8F1070FD54611D0B8F10C0F1AD088B087
:10A830006A461D4BC2E90538032342F8103F194808
:10A840004FF4C4513CF095FFD54602E0BBF1000F38
:10A85000CFD109F10109B14504F11004C0D16FF065
:10A860001500C7E7BBF5805FC3D3F2E7262DC0D93B
:10A87000EFE763689D42BCD0EBE763689D42E8D395
:10A88000A3689D42F3E7EA4688B06A460749C2E9F1
:10A890000513D1E76FF01200ACE700BFB641080026
:10A8A0004542080094A40700D7410800F54108007C
:10A8B0002DE9F0430F4687B01546044640B10368C2
:10A8C00083B100262368B34212D86FF015000CE064
:10A8D000184B05931848022304AA4FF4825104939D
:10A8E0003CF047FF3D4322D1002007B0BDE8F08394
:10A8F0006168330101EB06193A46C958D9F80400DA
:10A90000FFF762FF2A468046D9E90210FFF75CFF95
:10A91000B8F1000F03DA18F1130F06D12FB9002890
:10A92000E2DA133001D1002DDED00136CAE76FF034
:10A930001200DAE70542080094A40700B0B582B01F
:10A94000054600AF4068FFF743FE80B383689A690D
:10A9500052B139469047041E11DBD5E90212384640
:10A96000FFF7A6FF04461EE0DB6933B193E803005E
:10A9700007F1080303E90300EFE76FF012046B68C7
:10A980006D468AB06A460B49D461C2E905134FF49B
:10A9900000731384084B42F8103F08484FF41251DB
:10A9A0003CF0E7FEAD4620460837BD46B0BD6FF02F
:10A9B0001204F8E7224208000400000194A40700F2
:10A9C00070B5054698B94FF6FF7070BD0834B442B3
:10A9D000F9D220684DF029FD0028F7D023682946D8
:10A9E0001868FBF703FF0028F0D1A088EDE7014CC1
:10A9F000014EECE7382F00208031002070B5094C63
:10AA0000094E0546B44201D3002008E020684DF00D
:10AA10000CFD28B1A388AB4202D12368186870BD31
:10AA20000834EFE7382F0020803100201FB50A4C92
:10AA30002468A46884420DD183F00103CDE901129A
:10AA4000039306480022002301A93BF00FF90448B4
:10AA50003BF0A8FB04B010BD789F0020F02A002036
:10AA6000689F00202DE9F04FDFF80081DFF80091AA
:10AA7000384E8DB002AF00220023391D40463BF016
:10AA80004BF9834618B12C37BD46BDE8F08FD9F895
:10AA90000030FC685868D7E901123CF0C6FE2E4B26
:10AAA000002C18BF3346051ED7E9010115DA6C46A4
:10AAB0008AB002AA294DC2E9071340F202439384E7
:10AAC000274BC2E9055042F8103F26485B464FF439
:10AAD00032510CF061FAA546CDE7EA468CB002AAE5
:10AAE000DFF890C0C2F814C09362DFF88CC040F267
:10AAF000046393851C4BC2E906C0C2E9081542F8FD
:10AB0000103F18485B464FF47451B4FA84F40CF0CB
:10AB100043FAFF236409D5463B747D613C764EF0D1
:10AB200073F84FF47A72A0FB020302FB0131C00BF1
:10AB300040EA4140C90BC7E9080107F1280313E9BE
:10AB400003008DE8030007F110030FCB00F06EFB4C
:10AB500091E700BF5D4208005842080063420800C8
:10AB60000500000194A4070007000001F02A00205E
:10AB7000789F002099420800794308001FB5002300
:10AB8000CDE90233044B8DF80C0001A801933CF091
:10AB900075FE05B05DF804FB10A807000268034BC2
:10ABA0009A420CBF08300020704700BF10A8070071
:10ABB000014B036001207047F8A70700014B0360B9
:10ABC00027207047CC9E0020044B1A68044B9A4201
:10ABD00014BF6FF012000020704700BF789F002064
:10ABE000FCA7070008B5074B93F90010002906DB06
:10ABF000FFF7EAFFC0B2401A18BF012008BD0020CD
:10AC0000FCE700BFEE25002007B5FFF7DDFF0DF1E3
:10AC100007018DF80700012202480EF0C3F803B0C7
:10AC20005DF804FBC9420800F8B5054600AF0028EE
:10AC300042D0234E336883423CD053B1986840B130
:10AC400083685B6803B198473368002198680CF00B
:10AC5000AFFC1C491C4B8D4214BFED210021272263
:10AC600000203CF0FCFD041E12DA6D4688B06A46F6
:10AC7000164BC2E90534032342F8103F1448002361
:10AC80004FF4C2510CF088F9AD462046BD46F8BDE0
:10AC9000A868356070B101210CF08AFC33689868AF
:10ACA00083680C491B6898473368986883689B6879
:10ACB00003B198470024E8E76FF01204E5E700BF0E
:10ACC000789F0020FCA70700CC9E0020E3420800EC
:10ACD00094A407002DAA020038B5054648B90648D5
:10ACE000FFF7A2FF041E02DB2846FFF747FF2046BE
:10ACF00038BD6FF01504FAE7FCA70700B0B5104D9A
:10AD0000034600AF0846012229469847041E12DC7C
:10AD10006D4688B06A460B4BC2E90534032342F8FE
:10AD2000103F094800234FF4C2510CF035F9AD46ED
:10AD30002046BD46B0BD2878FFF7CEFF0446F7E7B2
:10AD4000EE2500201843080094A4070073B50E46B2
:10AD500014460A4901AA1D463FF03EF838B1019B4E
:10AD60003BB9012E07D129462046FFF7C7FF02B0A5
:10AD700070BD0020FBE76FF01500F8E7DA4208002D
:10AD80000148FFF751BF00BFFCA7070098B5174C5B
:10AD90001748184900AF4DF067FD20463EF064FEAD
:10ADA000C0B1012120463EF03CFE034690B9216827
:10ADB0006C4688B06A461048C2E905014FF400713C
:10ADC00091830E4942F8101F0D484FF4E4510CF0E6
:10ADD000E3F8A5460B4A002342F8043B0133272B36
:10ADE000FAD1FFF7CDFFBD4698BD00BF64A00700B4
:10ADF000689F002065AA02005E430800030000016E
:10AE000094A40700CC9E00202DE9F843274E284B40
:10AE1000A3EB060800AF81460D4606EBC106C8F35A
:10AE2000C708A84524DD3268D9F800309A420BD112
:10AE300089F80450736848461B68984701280446FF
:10AE400005D0022819D0E8B901350836E9E76C4683
:10AE500088B06A46174B5361174B9361032342F83E
:10AE6000103F164800234FF4C8510CF095F8A54642
:10AE700000242046BD46BDE8F8836C4688B06A468B
:10AE80000F4BE8E76D4688B06A460E4B53610A4B9C
:10AE9000C2E90630042342F8103F084800234FF46B
:10AEA00004510CF079F8AD46E3E700BFAC2A090085
:10AEB000842B0900E04308009A44080094A407008A
:10AEC000FF4308001F44080070B5144B144CE41AEB
:10AED00086B00022C4F3C70494420EDC114B0593E4
:10AEE000022304931048002304AA4FF484510CF069
:10AEF00053F86FF0150006B070BD1E680568AE42CD
:10AF000002F1010208D15D688D4205D1D1B206B0CF
:10AF1000BDE87040FFF778BF0833DDE7AC2A0900D1
:10AF2000842B09004244080094A4070070B5144B18
:10AF3000144AD21A86B00024C2F3C702A2420EDC21
:10AF4000114B0593022304931048002304AA4FF4E5
:10AF500084510CF021F86FF0150006B070BD1E682A
:10AF60000568AE4208D15D688D4205D1E1B206B0F8
:10AF7000BDE87040FFF748BF01340833DEE700BF8B
:10AF8000AC2A0900842B09007144080094A407002E
:10AF900000B58BB0064B074A282168463BF0BAFF44
:10AFA0000549012268460DF0FDFE0BB05DF804FB7B
:10AFB000B8440800C24408005713012008B5074BE5
:10AFC0005A784AB901221A700548002200233BF042
:10AFD00051F9044800F080F8002008BD5713012003
:10AFE000A831002034A007002DE9F047D0F80480F4
:10AFF00000AF054600244FF00109D8F80430A34201
:10B000000ED82B492B484DF073FCAB681B680BB175
:10B0100028469847B8F8081000293CD1002035E0B0
:10B02000D8F8002002EBC40352F834001979DB8809
:10B03000D0F810C0D0F808A0DCF80060DA0754BFE0
:10B0400043F4B01383F4D01323F4801209FA01FE01
:10B05000DB074CBF46EA0E0626EA0E06CCF8006077
:10B06000DAF800309847A0B16D4688B06A46124BB6
:10B07000C2E90534032342F8103F104800234FF47F
:10B08000C2510BF089FF6FF00400AD46BD46BDE82C
:10B09000F0870134B1E740F2E7304FF47A720023D1
:10B0A00000EBC1300021FBF737FA3BF0DFFBB5E7DF
:10B0B00091AF0200A8310020D544080094A40700F5
:10B0C00008B54FF4F012002302483BF007F900EAFC
:10B0D000E07008BDA8310020F8B50669456800AFEA
:10B0E00000246B689C4204D301233370FFF7E8FF10
:10B0F0001BE02B6803EBC40153F8340009790122EB
:10B100003CF0C4FB98B16D4688B06A46094BC2E971
:10B110000534032342F8103F074800234FF4C4517D
:10B120000BF03AFF6FF00400AD46BD46F8BD0134A8
:10B13000D7E700BF0245080094A40700F8B50669E8
:10B14000456800AF00246B689C4204D30023337031
:10B15000FFF7B6FF1BE02B6803EBC40153F8340084
:10B16000097900223CF092FB98B16D4688B06A469E
:10B17000094BC2E90534032342F8103F0748002376
:10B180004FF4C4510BF008FF6FF00400AD46BD460C
:10B19000F8BD0134D7E700BF2945080094A4070093
:10B1A000F7B50C461646114901AA1F463EF014FE9B
:10B1B000B0B1019BA3B9012C15D10D4D22462946F2
:10B1C0003846B047002806DB2B780A486C7023B15C
:10B1D000FFF782FF002003B0F0BDFFF7AFFFF9E7F4
:10B1E0006FF00100F7E76FF01500F4E7B8440800CE
:10B1F0005713012034A007001FB50023CDE9023307
:10B20000044B8DF80C0001A801933CF037FB05B00E
:10B210005DF804FB34A807000268034B9A420CBF98
:10B2200008300020704700BF34A8070084B030B554
:10B2300089B00CAC84E80F00002301930CAD084BDF
:10B2400000930FCD02AC0FC495E8030084E803001F
:10B2500068463CF013FB09B0BDE8304004B07047CD
:10B2600038A807000268034B9A420CBF0830002040
:10B27000704700BF38A8070084B030B58BB00EAC63
:10B2800084E80F00002301930EAD084B00930FCD0F
:10B2900002AC0FC495E80F0084E80F0068463CF04C
:10B2A000EDFA0BB0BDE8304004B070473CA8070091
:10B2B0001FB50023CDE90233044B8DF80C0001A823
:10B2C00001933CF0DBFA05B05DF804FB40A80700F1
:10B2D00080B500AF88B06A46074BC2E9053003234A
:10B2E00042F8103F054800234FF4C2510BF054FEC2
:10B2F0006FF00400BD4680BDE745080094A4070038
:10B3000082B010B502A981E80C0004460C483AF05E
:10B31000E9F928B9A068BDE8104002B0FFF7D8BF2E
:10B32000A368022B06D13CF0F9FA0028CCBF00201C
:10B330000120A060BDE81040002002B0704700BFAF
:10B34000B844080082B0B0B500AF07F1100181E841
:10B350000C0005461F483AF0C5F9AB680446B0B981
:10B360006D4688B06A461C49C2E90513032342F8BA
:10B37000103F4FF4C251034618480BF00DFE6FF01A
:10B380000400AD46BD46BDE8B04002B07047012B99
:10B390000AD0022B03D053B93CF0B9FAF2E73CF0E3
:10B3A000BDFA00282046F7DC3CF0AAFAEAE76C4632
:10B3B00088B06A460A49C2E90513032342F8103FE0
:10B3C000064800234FF4C2510BF0E6FD6FF08500F4
:10B3D000A546D7E7B8440800E745080094A407004D
:10B3E0000F4608002DE9F04F89B002AF0025F86044
:10B3F000884693461E462C46D8F800309D4201D31D
:10B4000000204FE0D8F80430BB6003EB051999F831
:10B410000C30002B41D0DBF8043004F1010A13EBAF
:10B42000C4040DD07379022B38D1F388082B35D89A
:10B43000DFE803F006053434343431342F000234AD
:10B44000C7F804D088B002AA184B5361184B936117
:10B45000FB68D361042342F8103F164800234FF4E1
:10B4600004510BF099FDFB683B742A01BB687C61B9
:10B470009858D7F804D0D9E9012381680C687CB1C9
:10B4800007F1100100913146A04758B901355446E3
:10B49000B2E70434D4E70634D2E7A2460024CFE76B
:10B4A0006FF085001C37BD46BDE8F08F45460800AB
:10B4B0008046080094A407002DE9F04F83B013687C
:10B4C00000AF06460C461546002B5ED000F118086A
:10B4D00001F118024FF0000AF3689A451DD3314676
:10B4E0002B4611F8040B04F11002FFF77BFF002834
:10B4F0004EDA6C4688B06A46604BC2E905300323D9
:10B5000042F8103F5E4800234FF4C2510BF044FD57
:10B51000A5460C37BD46BDE8F08F58F8089C4FF0A3
:10B52000000BB9F1000F05D10AF1010A08F110086A
:10B530000832D1E719F0010F04D14FEA59090BF194
:10B54000010BEEE75FFA8BF07A6004F003FB7A6898
:10B550000028F2D030782B464146FFF743FF002801
:10B56000C7DB18F8043C7A68002BE6D16B79012B15
:10B5700059D0022B15D1EB88082B12D8DFE803F045
:10B580000B3E111111114C1145006FF01200B0E784
:10B590000128EBD1BDE701232370AB686288134417
:10B5A00063802B79002BB4D0A379012B05D1B4F99A
:10B5B0000A10B4F9080000F09DFC2378012B05D196
:10B5C000B4F90410B4F9020000F074FC237B002BE2
:10B5D0003CD1637B002B45D103F0AAFD0021084636
:10B5E00000F088FC0021084600F064FC0023A380E2
:10B5F00063802370A371A360A3818AE70123237072
:10B60000AB68A2881344A380CBE70123A371AB6886
:10B61000628913446381C4E70123A371AB68228963
:10B6200013442381BDE7EA88A2F580710429B8D8C4
:10B6300052B29340AA68002ACCBF227B627BDBB265
:10B64000CBBF1343134323736373AAE70025237B04
:10B65000EB40DA0702D5A8B200F068FB0135052DF2
:10B66000F5D1B6E70025637BEB40DB0702D5A8B236
:10B6700000F0A6FB0135052DF5D1ADE75C460800CD
:10B6800094A40700024602490248FFF715BF00BF15
:10B69000949F00203CA90700024602490248FFF798
:10B6A0000BBF00BF7C9F00202CA907000246024967
:10B6B0000248FFF701BF00BF90040020DCA807008C
:10B6C000024602490248FFF7F7BE00BF68040020A7
:10B6D0008CA807002DE9F0410E46114642687479A6
:10B6E000107800AF8442BD692FD15468901D0022AC
:10B6F000A2422AD030F802EFB6F806C0E64544D19F
:10B70000B06810FB01F4A2B20FFA83FE24B205BBAD
:10B7100094FBFEF424B2E8468CB06A46DFF874C0AD
:10B72000C2F814C0DFF870C0C2E908130823C2E9E8
:10B7300006C0C2E90A4542F8103F154800234FF4FD
:10B7400082410BF029FCC546B4600020BD46BDE82F
:10B75000F081D5F804C0BCF1000F12D0BCF8000095
:10B76000024410B290FBFEF004B213FB00F0121A78
:10B77000ACF80020B0686D68002DCCD0B5F9005051
:10B78000C9E794FBFEF424B2F5E70132B0E700BF4D
:10B7900094A407008D460800BE4608002DE9F04F2E
:10B7A0008DB044684A7923899A4206AF0D4604D188
:10B7B00063684FF0000A9A4501D1002055E0E26825
:10B7C00032F81A10EA88914253D1182200213846E3
:10B7D0004DF005FC3B6C26781B784FF0040B9A3338
:10B7E0001BFB06364DF010FA4FF47A72A0FB0203F1
:10B7F00002FB0131FF233B742369C00B03EB0A13E7
:10B8000040EA41400AFA0BF9C90BEA468CB0C7E995
:10B8100002015B6806AA184951611849C2E906137A
:10B8200040F201331385164BC2E9086B42F8103F12
:10B83000144800234FF454510BF0AEFBAB6824695D
:10B840007E60003BD54618BF0123049307F118031F
:10B8500013E90F008DE80F0004EB0900D7E900237E
:10B86000FEF7E2FE0028A8BF01201C37BD46BDE858
:10B87000F08F0AF1010A9EE7E84608002F4708000A
:10B880000600000194A40700014B1878704700BF20
:10B890005C1301202DE9F041214A52F8203000AF1D
:10B8A0000133E8468AB042F8203006466A461D4C0D
:10B8B0001D4D13621D4951610523C2E906404FF435
:10B8C000245142F8103F28463CF037F8184A01232B
:10B8D0001178B3400B43DBB21370164A164E127840
:10B8E00023EA0203154A1278C546134388B096F836
:10B8F000018073706A461249D3610423C2E90514BA
:10B90000284642F8103F4FF404513CF016F8707886
:10B91000B0EB080018BF0120BD46BDE8F08100BFB4
:10B92000C09F0020EE49080094A407006347080068
:10B930005C1301205A130120062600205B1301200E
:10B940007C4708002DE9F041DFF8FC8058F82030F2
:10B95000002B00AF044613DC6D4688B06A46314BBD
:10B96000C2E905300323304842F8103F4FF4C2517A
:10B970003BF0E3FF6FF01500AD46BD46BDE8F0813A
:10B98000013B6E468AB048F820306A46274D136264
:10B99000274951610523C2E906504FF4245142F86A
:10B9A000103F21483BF0C9FF58F82430DFF89C8055
:10B9B000B546B3B988B06A461E4BD461C2E90535B5
:10B9C000042342F8103F18484FF404513BF0B5FFF0
:10B9D000012298F80030A24023EA0203B54688F815
:10B9E0000030154B154E1A7898F80030747823EA19
:10B9F0000203134A1278E846134388B073706A460C
:10BA00001049D3610423C2E90515074842F8103FE5
:10BA10004FF404513BF091FF7078001BC54618BFEE
:10BA20000120AAE79847080094A40700D749080016
:10BA3000C2470800DC4708005A13012006260020F0
:10BA40005B1301207C470800C09F00205C1301208D
:10BA5000044A012312788340D8B213401B1A58427B
:10BA6000584170475C130120B0B5114B114C187050
:10BA7000114B65781A78114B1B7823EA020300AF4B
:10BA8000184388B060706A460D4B53610D4BC2E994
:10BA90000630042342F8103F0B484FF404513BF0AA
:10BAA0004CFF6078401B18BF0120BD46B0BD00BFF1
:10BAB0005B130120062600205A1301205C1301208D
:10BAC0007C470800B649080094A40700B0B5114BA4
:10BAD000114C00221A70114B65781A78104B1B78A4
