:020000022000DC
:1060000068C8002045E102003178050019E102006E
:1060100019E1020019E1020019E10200000000008C
:1060200000000000000000000000000069E2020023
:1060300019E1020000000000D5E1020019E10200B0
:1060400089E40200952A040089E4020089E4020040
:1060500089E4020089E4020089E4020089E4020084
:1060600089E4020089E4020089E4020089E4020074
:1060700089E4020089E4020089E4020089E4020064
:1060800089E4020089E4020089E4020089E4020054
:1060900089E4020089E4020089E4020089E4020044
:1060A00089E4020089E4020089E4020089E4020034
:1060B00089E4020089E4020089E4020089E4020024
:1060C00089E4020089E4020089E4020089E4020014
:1060D00089E4020089E4020089E4020089E4020004
:1060E00089E4020089E4020089E4020089E40200F4
:1060F00089E4020089E4020089E4020089E40200E4
:1061000053B94AB9002908BF00281CBF4FF0FF311E
:106110004FF0FF3000F00CB8ADF1080C6DE904CE83
:1061200000F008F8DDF804E0DDE9022304B0704770
:10613000704700BF2DE9F04786468C460846089E0A
:10614000154674461946002B40F0C2808542B2FACB
:1061500082F245D94AB1C2F1200300FA02FC2EFABC
:1061600003F3954043EA0C0C94404FEA154EA8B255
:10617000BCFBFEF8230C0EFB18CC08FB00F943EA2D
:106180000C43994528D9EB1808F1FF3704D29945FB
:1061900002D9A8F102072B44A3EB0903A4B2B3FB75
:1061A000FEFC0EFB1C330CFB00F044EA0344A0424F
:1061B00014D92C190CF1FF3304D2A04202D9ACF14E
:1061C00002032C44241A43EA07401EB1D4400023A2
:1061D00034607360BDE8F0874746DDE76346F1E76A
:1061E00092BB431B01214FEA154EAFB2B3FBFEFC3D
:1061F000200C0EFB1C330CFB07F840EA03439845C8
:1062000062D9EB180CF1FF3004D2984502D9ACF1F9
:1062100002002B44A3EB0803A4B2B3FBFEFC0EFB6D
:106220001C330CFB07F744EA0344A7424ED92C1950
:106230000CF1FF3304D2A74202D9ACF102032C4483
:10624000E41B43EA0040C0E7C2F1200320FA03F157
:10625000954090402EFA03F303434FEA154EAFB238
:10626000B1FBFEFC0EFB1C10190C0CFB07F841EAFD
:106270000041884504FA02F422D969180CF1FF3074
:1062800004D2884502D9ACF102002944A1EB0801EF
:106290009BB2B1FBFEFC0EFB1C110CFB07F743EAA3
:1062A00001439F420ED9EB180CF1FF3104D29F42FB
:1062B00002D9ACF102012B44DB1B41EA004192E719
:1062C0006046E3E76146F7E76046A3E76346B7E762
:1062D000834206D916B9002108467BE7C6E900E0EB
:1062E000F9E7B3FA83F78FB9834201D3724508D82F
:1062F000BEEB020460EB030301209C461EB90021A3
:1063000068E73846FAE7C6E9004CF8E7C7F1200C21
:10631000BB4022FA0CF41C432EFA0CF120FA0CF3C9
:10632000B84001434FEA14490EFA07F5B3FBF9F8F8
:106330001FFA84FE09FB18300B0C08FB0EFA43EA27
:1063400000439A4502FA07F240D9E31808F1FF30FA
:1063500004D29A4502D9A8F102002344A3EB0A0310
:1063600089B2B3FBF9F809FB183308FB0EFE41EACA
:1063700003418E452CD9611808F1FF3304D28E45B4
:1063800002D9A8F10203214443EA0040A0FB02988D
:10639000A1EB0E014145CE46434602D306D14D4501
:1063A00004D2B9EB020E68EB04030138002EA6D02C
:1063B000B5EB0E0261EB030101FA0CFC22FA07F3C4
:1063C0004CEA0303F940C6E9003198E74046C5E7C7
:1063D0004346D9E710F8012B11F8013B012A28BFE9
:1063E0009A42F7D0D01A7047034611F8012B03F8F0
:1063F000012B002AF9D17047034613F8012B002A1C
:10640000FBD1181A013870472DE9F041494D88B089
:10641000D5F85C31996811F0010100AF22D107F184
:10642000080240F6034009F079FC044600287BD1BD
:10643000B868C3681B789BB9BFF35B8FD5F8D430BD
:10644000BFF35B8F05F1D40203F00903BFF35B8F49
:1064500052E8001F42E80034002CF9D1BFF35B8FF3
:106460001FF044FA07F10802002141F2030009F08D
:1064700055FC0446002857D1BB682F4EDA68D2F885
:106480000100D2F8051003C618461FF02FFA214666
:1064900007F1080241F2010009F040FC044600281F
:1064A00042D1B868C3685A7885F870205A88A5F830
:1064B00072201A7985F87120B3F80720A5F87420A6
:1064C000B3F80530A5F876301FF010FA214607F131
:1064D000080241F2020009F021FC044620BBD7F873
:1064E0000880D8F80C20531C41321868596834468B
:1064F00003C4083393422646F7D1104831F037FAE7
:1065000040461FF0F3F995F87C305A061CD40C4B2A
:10651000FB6102230B48BB6107F118024FF4825163
:106520006FF0120431F00EFB20462037BD46BDE867
:10653000F08100BFB00000202801002030010020C1
:10654000D29406007443060007F10802002142F2CB
:10655000030009F0E3FB04460028E5D1BB68AC4E1C
:10656000DA68D2F80100D2F8051003C618461FF009
:10657000BDF9214607F1080242F2020009F0CEFB04
:1065800004460028D0D1BC68E368B3F8012091B27A
:1065900049B1D97839B1A5F80421DA78114606F164
:1065A00028003CF00EFE20461FF0A0F995F87C6014
:1065B00016F0200618D1022140F66D4009F068FA65
:1065C0000446002800F0CD8002210C3033F01CFB83
:1065D0000123037046702146324640F66D4009F0B3
:1065E0009DFB044600289FD195F89C301B0713D5CE
:1065F00007F10802002142F21C0009F08FFB04465B
:10660000002891D1B868C368D3F80120D3F80530C9
:10661000C5E938231FF06AF995F8D8309E0622D5CF
:10662000391DB81C09F0FCFB044600287FF47CAF40
:10663000042142F2240009F02BFA0646002800F05B
:10664000908004210C3033F0DFFA7B880380BB8814
:1066500043802246314642F2240009F05FFB0446A3
:1066600000287FF461AF95F8D8305C0611D507F1AA
:106670000802002142F22A0009F050FB04460028DB
:106680007FF452AFB868C3685B7885F820311FF09B
:106690002DF9082142F2010009F0FAF90446002818
:1066A0005FD008210C3033F0AFFA95F8D81011F014
:1066B000400F024640F2022308BF032388074CBF65
:1066C00043F02C0043F00C008B0695F8D93048BFFE
:1066D00040F0400013F0090F95F8A23018BF40F4C5
:1066E000006003F00603CE0748BF40F01000062B01
:1066F00008BF40F4C070002131F033FA2146002277
:1067000042F2010009F00AFB044600287FF40CAFB6
:1067100095F87C30B5F80411980625D4D1B907F165
:10672000080241F2050009F0F9FA044600287FF456
:10673000FBAEB5F80431BC684BB9E368B3F801208F
:10674000A5F804219A88334811463CF03AFD2046CA
:106750001FF0CCF8082140F6014009F099F90446F1
:1067600090B96FF06804DFE60029F3D12A4BFB6192
:1067700002232A48BB6107F118024FF4825131F01D
:10678000E1F96FF00404CFE608210C3033F03CFA55
:1067900095F8D830D907024653BF4FF000511AA1DF
:1067A000D1E900011E4831F0DCF92146002240F613
:1067B000014009F0B3FA044600287FF4B5AE014663
:1067C0003A1D4FF6014009F0A9FA68B3154BFB6179
:1067D00002231248BB6107F118024FF4845131F0D3
:1067E000B1F931F0C3FB044600287FF49DAE0CF0F4
:1067F00051F8044600287FF497AE09F0E3FF044601
:1068000092E600BFAFF30080908800020080002075
:1068100088010020B8010020F694060074430600A9
:1068200010880002199506007B68DC68B4F8013016
:10683000032B96BF434A444952F823106D468AB051
:106840006A464248D3614FF400731384404BC2E957
:10685000050142F8103F3F484FF4135131F072F9EF
:10686000B4F80120B4F80330022AAD4648D1032B16
:1068700046D8394A52F823106D468AB06A463748DE
:10688000D3614FF400731384314BC2E9050142F820
:10689000103F4FF413512F4831F054F96379A67922
:1068A000D4F80900032BAD4698BF2D4AB4F8075021
:1068B00094BF52F8231024496C468CB06A46DFF826
:1068C000B4C0C2E907364FF400739385254BC2E983
:1068D00005C1C2E909504FF4735142F8103F1D48F9
:1068E00031F030F9A54678681FF000F83A1D002114
:1068F0004FF6024009F012FA044618B11A4B66E747
:106900001149B9E77868194DC368B3F80130A5F8A3
:10691000C1301EF0EBFF95F8C1305B077FF561AF2A
:106920003A1D21464FF6034009F0F8F908B1104B23
:106930004DE77868C3685B7885F8C0301EF0D6FFF5
:106940004FE700BF504C0600558F06003D950600EE
:106950000400000174430600404C060056950600F2
:10696000304C0600070000019B950600B000002097
:10697000C49506006E9506002DE9F843D0E90C3564
:10698000D0F82C805C193034A0450F46164619D833
:106990001D4DA3FB05011AA3D3E90023FFF7B0FBAC
:1069A0000346A4EB0800A0FB050123F07F4414A3D9
:1069B000D3E90023FFF7A4FB20F07F403C60306068
:1069C000BDE8F883DFF840900DA3D3E90023A8FBCE
:1069D0000901FFF795FB044605F1300008A3D3E950
:1069E0000023A0FB0901FFF78BFB24F07F4420F07C
:1069F0007F403C603060BDE8F88300BFAFF30080AB
:106A00008D49FD1A0700000000CA9A3B00000000F3
:106A10009FED097B0E4B0F4A0F4983ED007B9FEDE5
:106A2000087B82ED007B9FED087B0C4B002281ED03
:106A3000007B1A6013F082BCFFFFFFFFFF1F000006
:106A400000000000000000001F0000000000000027
:106A5000300200203040002028020020D4680020AE
:106A6000002800F046812DE9F04FC94C94F86A20C7
:106A700012F001058DB040F0788194F82500FF23D5
:106A800000F0030084F826301BF0EEFB94F86A0057
:106A9000420727D494F8292094F8353004EB820279
:106AA00004EB8303D66AD3F8388086B1B848314600
:106AB00015F0A0FA33785B0605D5062110F082FCAC
:106AC000002800F05481B248414615F093FA33781B
:106AD00013F00E0F40F09E80236A93B10C200DB08E
:106AE000BDE8F08F2A4604F16B01C0F3C0001BF033
:106AF0002BFDFF2884F82600CCD028461BF0CEFBC7
:106B0000C8E712F01FFD8146002800F0548112F002
:106B100025FD8246002800F04B8115F059FD054601
:106B2000002800F04A81D0F888004FF6FF732B85CB
:106B300005F11C0B002800F0208105F17C0205F115
:106B4000780110F04BFCB5F8763023F4EF6323F0B6
:106B5000070343F4887343F00103A5F8763095F8F2
:106B6000393003F03F0363F07F0385F8393095F83F
:106B70008E3023F0070385F88E3095F83C3023F0F3
:106B80000703002785F83C304FF4C023C5F888314F
:106B90002846C5E91277C5F88870A5F88C706F860D
:106BA000C5F82E7085F83B702F65A5F88E71A5F895
:106BB000847117F05BFE85F85071C5F8549115F09B
:106BC00073FF95F8943160F3020385F8943115F062
:106BD00071FF95F8943160F3C50385F8943195F809
:106BE000803167F3410385F880310121284616F092
:106BF0007DFB05F1D40017F0F3FBC4E9189AC4F843
:106C000020B0C5E905772F70ED611CF0E3FC00288A
:106C100040F0AF8094F824300121C3F342030DF11A
:106C20002B008DF82B3010F077FD0246002862D043
:106C300098F80110304614F09FFF31235549A360A6
:106C4000554BB4F86870A0FB01010025C01841F154
:106C500007014DA3D3E90023C4E9055525706560FC
:106C6000E560FFF74DFA206111F068FF00F10908B7
:106C70003FB9357805F00F05A5F10105B5FA85F5A1
:106C80006D0994F82400236965F3000010F00105F4
:106C900084F8240036D0414A099200201060022571
:106CA0003F4A404F04930BAE019305920321CDE977
:106CB0000200069443460090089607972A460B95D3
:106CC00011F03EFE314612F003FDA0B936490591A0
:106CD0004AF2D8330093CDE90300CDE901000797CC
:106CE000089606944346012203210B9511F00CFEF1
:106CF0002EE014F091BE236A002B3FF4EFAE14F0A7
:106D000049FEEBE6254A2948049303F2471306940B
:106D1000029591211360A7FB000301FB0731214B72
:106D200007931F4B05934FF6FF73099202270393B6
:106D30000BAE15A3D3E900230B970896FFF7E0F9F4
:106D40004346CDE900503A462846032111F0F8FDAC
:106D5000314612F0BDFC0028CDD194F86A300120F4
:106D6000034384F86A301BF061FA0020B7E6122072
:106D7000B5E614F00FFE0320B1E605F18000C5F87A
:106D80008800DAE6AFF300808D49FD1A07000000A5
:106D90000C69002000CA9A3B8C49FD1A006900204A
:106DA000F5BB0300958C030011B70300002AE784AC
:106DB000484612F0CDFB072091E6504612F0D4FB76
:106DC000484612F0C5FBF6E770B590F824308AB05B
:106DD000C3F342030D46044601210DF1230016467C
:106DE0008DF8233010F098FC71780246284614F094
:106DF000C3FE1F491F4AA0FB0131981841F107014A
:106E000019A3D3E90023FFF77BF9236998420546CC
:106E100021D21B1A00220192174A0293174BA21A81
:106E2000A3FB02320221920900230A4409AE099110
:106E300013490591CDE903330321D2B2069600939D
:106E4000184611F0DDFD314612F042FC38B92561DB
:106E500000200AB070BDFBD9C21A0023DBE70C206A
:106E60000AB070BDAFF300808D49FD1A0700000025
:106E700000CA9A3B8C49FD1A0C69002009CB3D8D54
:106E8000958C0300000000002DE9F04F05468BB003
:106E90008B46012002219A4614461EF085FA0022F4
:106EA00002218146012010F0E9FA39494FF4D072ED
:106EB000284610F073FAC61CF6B2364B00953246DF
:106EC0000121002011F0B4FD10F0FD0F0CD0324A6A
:106ED0003249334840F62F032EF09FFB404080F3A9
:106EE00011884FF0030002DF2E4BA4FB034820461D
:106EF00025A3D3E900234146FFF702F9089506953B
:106F00002B690493284B20F07F47A7FB0331E01A3D
:106F1000264B07934FF00702254B059302FB071101
:106F20004FF6FE7368EB010103934FF47A7200236E
:106F3000FFF7E6F8CDF800B0CDE9017053463246D0
:106F40000121002011F0E0FC10F0FD0F0CD0124ADE
:106F50001249134840F644032EF05FFB404080F393
:106F600011884FF0030002DFB9F1000F02D10BB01E
:106F7000BDE8F08F0122022110460BB0BDE8F04FB2
:106F800010F07CBAAFF300808D49FD1A07000000B5
:106F90003840002079C50300A45606006857060053
:106FA0007050060000CA9A3B8D49FD1A21C50300A6
:106FB00095170400000000002DE9F043C469228DFC
:106FC0004FF6FF739A428DB000F088800546204648
:106FD00017F0A8FE95F82830012B00F00F81022B46
:106FE00000F00281002B00F0E18094F85071002F36
:106FF00040F0FD80E68DB4F83080002E71D1AA8C6F
:1070000008F101060023CDE90A33B6B2002A70D098
:1070100094F93930002BC0F248810023A4F88A315A
:1070200095F82630D90740F1EF800023A4F88E317F
:107030000DF127023146204617F054FC743000F061
:107040004681B4F888312BB1B34240F20D819B1BCD
:10705000A4F88831B4F884312BB1B34240F2FB80FC
:107060009B1BA4F88431258E17B9A84500F0EA804F
:107070000135ADB294F8D13013F001065AD1DDE9F3
:107080000A130A46002B40F0ED80002900F0DC8056
:107090001E461846228DE4690694CDE90357033253
:1070A000A74D0290CDE90016D2B20121002005952E
:1070B00011F0A6FC10F0FD0F10D012F033FB84424B
:1070C0000CD0A04AA049A14840F215532EF0A5FAD1
:1070D000404080F311884FF0030002DF0DB0BDE89F
:1070E000F083AA8C46440023CDE90A33B6B2002AC5
:1070F0008ED195F82630DA0797D4B4F88A31002B70
:1071000000F08280B34240F2FA809B1BA4F88A31DF
:10711000B4F88E31002B8BD09E4280F0DE809B1B1A
:107120009BB20022062BA4F88E31228600F2AC809E
:1071300001277DE794F939206FF30003002A84F8D2
:10714000D13077DB94F87600C0F3C00100F007007F
:107150001CF0A6F8B4F86E20B4F86C30134403F2B7
:10716000D51303447A4A7B480721E3FB00211046EC
:1071700071A3D3E90023FEF7C3FFDDE90A1320F072
:107180007F4220692261904235BF161A801A002082
:1071900000260A46002B7FF47DAF56EA010C7FF4EF
:1071A00079AF002850D019461E4673E794F88E3008
:1071B00003F01803182B7FF418AFA18DB4F88621C3
:1071C0008B1D9A42C4BF931F5B1AB4F88211CCBFC7
:1071D0009BB21346994200F08C80A4F88231A4F847
:1071E0008431A4F8882100E73D2784F8507139469E
:1071F00020460DB0BDE8F04315F038BD0023A4F8DB
:107200008831A4F88431F0E6B4F88E31002B83D1B4
:10721000628DB4F88C3140F2E24101FB02F242F29D
:10722000107101FB0323013BB3FBF2F39BB2A4F803
:107230008E316FE794F87700012100F007001CF011
:1072400031F887E73D4615E7002D4BD00026114663
:10725000304633461EE70023A4F88431204617F059
:10726000E1FB00E7304615E712F0C4F901460028BB
:107270003BD00023A4F88831238DC3801B230371E6
:10728000006812F081F9E5E694F939309342BFF6CF
:10729000CFAEB8F1000F7FF44BAFD4F878315A0875
:1072A000DB0743D4C4F87821C2E628460AAA0BA912
:1072B00004F1D409FFF760FB484617F0D3F818B380
:1072C000484617F0CFF818B300232386A5E69DF8AB
:1072D0002710204615F0CAFC00E70821204615F0CB
:1072E000C5FCFBE6002FB1D1F8E60123A4F88831F4
:1072F000B0E6B4F8881100297FF477AE6FE73E213D
:10730000204615F0B3FCE9E6FF2015F06FFCD7E747
:107310000246D4E91E0110F079F80028D4D194F87F
:107320003C30580744BFA38D238676E642F00042E6
:10733000C4F87821FCE600BF8D49FD1A0700000063
:10734000E1C40300A4560600CC57060070500600A6
:107350008C49FD1A00CA9A3B2DE9F04F87B0CDE960
:107360000423BDF8442003780292BDF84820BDF8FC
:107370004080BDF84C50468EB0F82E90B0F814B155
:10738000019104460392002B00F08E80013EB6B2BC
:10739000A368D4F80C71721B92B2002B009209DA28
:1073A000E168626823F0004391422CBF7F18BF1848
:1073B000A360FF1A009A638D13FB02F39BB2B3FB29
:1073C000F8F218FB02F080B283421FFA82FA5AD216
:1073D000C01A40F2E2425E4902FB00F0A0FB01014C
:1073E00059A3D3E90023FEF78BFE20F07F4007442A
:1073F000D94494F839304D44AD1B554440F2E2462F
:10740000DB09E58506FB08F552D1524A524953483B
:1074100040F6BA032EF001F9404080F311884FF096
:10742000030002DF0026A946029BA385039BA4F864
:107430008C3129462046A4F82A8017F08FFA484B51
:10744000A18D2B44881DB3FBF5F39AB29042A4F8AA
:10745000862102D2521A063A92B2019BA4F88221E6
:1074600013B10023A4F88E313B464A4631462046EC
:10747000FFF70AFD94F8803143F0010384F880316E
:1074800007B0BDE8F08F08FB1231314840F2E2430B
:1074900089B203FB01F1A1FB00012BA3D3E9002377
:1074A000FEF72EFE3F1AA3E74E445E44B6B26FE7E6
:1074B000226C0099A36CDFF898B002FB1133A3642F
:1074C0001CF0D8F8814694F87401C0F342001CF017
:1074D000D3F8049B814406FB03F305FB09F92365FC
:1074E00009F574291F4B09F23F29A3FB09394FEA1B
:1074F000994303FB0AF02364A5EB0309A36C6A0814
:107500000344963A934228BF1346C4E9112300234B
:10751000C4F87C31A0FB0B010BA3D3E90023FEF7D9
:10752000EFFD114B059A3F1AA3FB0230800A06FBC0
:1075300000F005A3D3E90023A0FB0B01FEF7E0FD5B
:1075400020F07F4670E700BF8D49FD1A070000005C
:1075500000CA9A3BA4560600F05006007050060080
:107560007FC3C90183DE1B435917B7D10000000058
:107570002DE9F04F0B6891F81180D3F80090037F4C
:10758000176895B00446C3F38013D0F81E008DF839
:107590003F30B8F1FF0F638C12900E461546ADF8E0
:1075A0004C300DF1480A49D19AE803001090ADF82B
:1075B00044102346E28D53F82EBB9B78AB722A8190
:1075C000D4F82A306B60D4F83A30AB6105F118007A
:1075D00094F83E300371052110F09EF86B7F00F0A7
:1075E0003F0060F305036B7794F83F30C3F3040268
:1075F000AA77A28EEA81012803F01F0392B205D96F
:107600001B3303F01F030B2B00D81ABB0022C9F851
:10761000142095F8203062F3000385F82030E568E7
:10762000012658462146267111F0A4FF28682E71C4
:10763000294611F0A9FF15B0BDE8F08F10AA0DF191
:107640003F0140461AF09EFB9DF83F3002338DF813
:107650003F30AEE7336800215960E38EEA892B8220
:1076600040F2E24303FB02F20B92628E0D92384627
:1076700017F088F994F83F2097F87411520962F3D3
:10768000430187F874111BF0F5FF0C9097F8740113
:10769000C0F342001BF0F0FF0C9A0B99104401FB61
:1076A00000F0B94A00F5742000F23F20A2FB002050
:1076B0004A08800C963A6862AA6294F8312040F237
:1076C000E24302FB03F3AB63238FA7F88C31384608
:1076D00017F044F90B99AD4BAD4AC7F890210B4414
:1076E000B3FBF1F39AB2A7F88621298A881D82425A
:1076F00004DDC1F57F41FA310A4492B2A7F8822134
:107700006B68C7F87831234613F81C2FC2F3401278
:107710000C92DA0700F113814FF48073A38399F878
:1077200026001BF025F804F12B03002800F0EB8065
:10773000626AC4F82B20228D9A80B8F1FF0F00F006
:10774000E680BAF804301298A4F82930C4F825006D
:107750009DF83F30A3771098BDF84430C4F81F005F
:10776000A4F82330EB8963862B8AA386B7F88C3183
:10777000E38697F87431C3F3420384F8383038460F
:1077800014F032FFA881E08021465846746811F059
:10779000F1FEAB89E3801C2323710C9BD4F800809D
:1077A000002B40F0BA800C9B23772146404611F015
:1077B000EBFE95F85B00B5F85080B5F8524001211A
:1077C00000F007001BF06EFD444404F2D514DFF80E
:1077D000CC81044482466F480721E4FB0801312331
:1077E0000024BB607C6066A3D3E90023FC60FEF745
:1077F00087FC20F07F4038610B9B6D6A0D995D1B03
:10780000F36840F2E24202FB013303F2B241A1EB22
:107810000A0A2246022101200FF030FE484614F0E9
:10782000A5FB0246AAFB0801924655A3D3E9002313
:10783000FEF766FCCDF80490B3685749009120F03C
:107840007F480AF102023A3BD2B22046434401216A
:1078500011F030F901287FD099F82430DB0766D485
:10786000384614F0C1FE4D4BA5FB03A9044644A3C2
:10787000D3E9002350464946FEF742FC484BB66820
:10788000484A079220F07F45A5FB0331BAEB03007D
:10789000454B059340F2D113069708933B694FF08F
:1078A000000BCDE903B34FF0070303FB051169EBB0
:1078B00001014FF47A720023FEF722FC03343A3EB2
:1078C000E4B2CDE90150CDF80080334622460121D3
:1078D000584611F019F810F0FD0F0CD0334A344916
:1078E00034484FF4E9732DF098FE404080F311883E
:1078F0004FF0030002DF0122022110460FF0BEFD0F
:1079000015B0BDE8F08FC4F82B00988015E7002271
:10791000C4F82520A4F829201AE76B7F43F0400320
:107920006B77281D1AF038F80123E8833CE7002321
:10793000012200931846114611F07AF890E71B4A8D
:107940001D491C48F8232DF068FE404080F3118843
:107950004FF0030002DFDFE611F0E4FE81453FF463
:107960007BAF124A1549134840F279232DF055FE9A
:10797000404080F311884FF0030002DF6CE700BF46
:107980008D49FD1A0700000083DE1B437FC3C90138
:10799000404B4C008C49FD1A5917040000CA9A3B11
:1079A0008D49FD1A2917040095170400685C06002C
:1079B000685706007050060018540600C45C0600A4
:1079C00010B5334C3349002304F1FF3C14F8332045
:1079D000072A02EB820E05D811F83E206FF34512FC
:1079E00001F83E201CF833206FF300020CF833201E
:1079F0000133082BEAD1284A284C002313700A7857
:107A000063F300020A7091F8282063F3000281F802
:107A1000282091F8502063F3000281F8502091F85B
:107A2000782063F3000281F8782091F8A02063F3B6
:107A3000000281F8A02091F8C82063F3000281F8C9
:107A4000C82091F8F02063F3000281F8F02091F84B
:107A5000182163F3000281F81821114A9FED0A7B77
:107A60001370104B83ED007B0F4B236028B1BDE8F2
:107A700010400E490E483BF06BBCBDE810400C486E
:107A80003BF074BCAFF30080FFFFFFFFFFFFFFFF81
:107A9000B174002070730020F08B002080720020F1
:107AA000EF8B002008420020A0BB0D0089240400B9
:107AB000D8410020000000002DE9F04F8FB00DF1FB
:107AC00037010446DFF8E0A0DFF8E0800DF1360072
:107AD00011F0D8FD9DF836309DF837B00B9311F0BA
:107AE0002DF8DAF80060A6FB085629A3D3E9002395
:107AF0000027814631462846FEF702FBCDE907778D
:107B0000069420F07F44DAF80400234B0593A0FB91
:107B100008011FA3D3E90023FEF7F2FA1F4B20F060
:107B20007F40A4FB0331072202FB0411CDE903705F
:107B3000E81A66EB01014FF47A720023FEF7E0FACF
:107B40000097CDE901404B460B985A46032110F0AF
:107B5000DBFE10F0FD0404D06FF08B000FB0BDE829
:107B6000F08F0F480F4A00232BF0FEFC20B9DAF803
:107B70000C000FB0BDE8F08F9DF837209DF836005F
:107B800000942346032110F053FF6FF07300E5E7E4
:107B90008D49FD1A070000001D2A04008D49FD1AB9
:107BA00024750020447B0B003C75002000CA9A3BE2
:107BB00038B50F4D044610F0C1FFA96810F0C0FFA2
:107BC000696803460B48B3FBF4F4A1FB00011C44B5
:107BD00005A3D3E90023FEF793FA20F07F40844207
:107BE00094BF0020012038BD8D49FD1A0700000018
:107BF0003C75002000CA9A3BF0B5C468636883B046
:107C00000546002B63D11CF05BFF08201CF07EFFB3
:107C1000002108461CF06CFF0022252108201CF0E2
:107C2000ABFF454B019301A81CF08EFF434940F286
:107C30005B601DF033F8237AC3F3420262F306134C
:107C4000204623721BF036FF1AF066FE58BB637A9B
:107C50009B071FD127682E6838461BF0BFFA0644E1
:107C60006A6806F1090101201DF060F91DF01EFA95
:107C7000204614F087F9811C3246C9B238461BF001
:107C8000BBFA054670BB20461BF050FA88B90020AD
:107C900003B0F0BD01201AF0BDFA4178821C0078D3
:107CA0001DF0E4F8D6E7607A10F0030018BF012059
:107CB000F1E7234A2349244840F22C432DF0ADFC40
:107CC000404080F311884FF0030002DFDFE793F8B4
:107CD00020309A0797D01D4821461CF0AFFE1CF0BB
:107CE00097FFD4E7164A1A49174840F214432DF07B
:107CF00094FC184B0721A5FB030301FB05310CA3E2
:107D0000D3E90023FEF7FCF91349024613482DF08E
:107D100084FC404080F311884FF0030002DF1048DC
:107D200021461CF08BFE1CF073FF6FF08B00AFE759
:107D300000CA9A3B00000000D6BE898E55555500FA
:107D4000BC600600DC510600705006008133040060
:107D5000F05006008D49FD1A6C6106004061060076
:107D600085360400000000002DE9F041C468A289B6
:107D70004FF6FF739A4282B000F0C78005461CF0B0
:107D8000C1F92B89628AE08A1A4492B21044637F57
:107D9000A28280B2411CE1825E064FF00001618246
:107DA00004F1180100F18C8003F03F000B46A17F25
:107DB000009004F11F0019F0A7FD0646D4E90B233B
:107DC0001344D4E90D0200210244E1626163A16A17
:107DD000A26394F872208B4228BF0B4612F0040273
:107DE000236377D01CF06CFE08201CF08FFE201D52
:107DF0001CF0AAFE2389A17A40F25B6043EA0141AC
:107E00001CF04CFF30461BF009FA214658481CF084
:107E100015FE96201DF07EF894F85A2094F85B0029
:107E2000C2F3C003002102F0070200F007001CF0BB
:107E30009BFF20461CF0C8F927682E6838461BF0C7
:107E4000CDF906446A6806F1090100201DF06EF8BC
:107E500080461DF0FFF800201DF016F9236B94F802
:107E60005B0003F13002A36B00F00700012103EB7C
:107E700042051CF0BFFE4544054494F85B0000F049
:107E80000700022824D004280CBF4FF4BC73282319
:107E900001211D441CF0B0FE28441DF0CDF8A1893D
:107EA00003313246C9B238461BF0A6F9054698BBE5
:107EB00020461BF03BF9D0B9002002B0BDE8F081AC
:107EC0000A4603F03F03E18B19F06AFD064675E7A9
:107ED0001823DDE7D4E917010FF098FA002881D1C3
:107EE00094F8723043F0040384F872307AE7214A40
:107EF0002149224840F255132DF08FFB404080F37A
:107F000011884FF0030002DFD6E71D4821461CF020
:107F100095FD1CF07DFECFE7164A1A49174840F23E
:107F20004B132DF07AFB184B0721A5FB030301FB34
:107F300005310DA3D3E90023FEF7E2F81349024609
:107F400013482DF06AFB404080F311884FF0030086
:107F500002DF104821461CF071FD1CF059FE6FF045
:107F60008B00AAE7AFF3008000CA9A3B0000000034
:107F700021440400E4610600DC5106007050060054
:107F800081330400F05006008D49FD1A3862060066
:107F9000406106005D3304002DE9F0472DED028BB2
:107FA0009FED498B4A4E84B004464FF02003EFF317
:107FB000118783F31288BFF36F8FD4F8C8508DB93F
:107FC000022104F1E0003BF00CF9002843D100232A
:107FD0008DED008B029304F1D00239463D482BF021
:107FE000A1FFE2E7D4F8CC202B68C4F8C830954252
:107FF00008BFC4F8CC30D4F8E03043F00203C4F832
:10800000E030EB6823F0040343F00103EB606B689E
:1080100087F31188BFF36F8F284698474FF02003EE
:10802000EFF3118983F31288BFF36F8FEB68990721
:1080300023F0010219D4EA60D4F8E03023F00203FF
:10804000C4F8E03089F31188BFF36F8FDB05ACD43F
:108050002BF048FEA9E704F1D805002201212846AB
:108060003BF0C5FA0028F8D1B1E7306823F00303EC
:10807000EB600028E0D00027D0F80080BA46002846
:10808000DAD04268954201460BD1016897B972680F
:108090003160824200D1716040F808AB2BF03EFAAB
:1080A0003946B8F1000F0BD0D8F8002040460F46F3
:1080B0009046E4E739607268824208BF7760EBE778
:1080C0004246F3E7AFF30080FFFFFFFFFFFFFFFF34
:1080D000E8890020148D002001482BF021BB00BF4F
:1080E0003803002007B53BF0BFFA4FF47A72A0FBCB
:1080F000020302FB0131C00B074A40EA4140106015
:1081000000234FF400420548CDE900232CF0E8F8A5
:10811000002003B05DF804FB78560020A810002072
:10812000014B187800F0D0BB5E8A0020044B1A780F
:10813000824202D01870FFF7F3BF0020704700BFE3
:108140005E8A002008B53BF08FFA4FF47A72A0FBEC
:10815000020302FB0131084AC30B126843EA4143A0
:108160009B1A47F23052934204DDBDE808400120DB
:10817000FFF7DCBF08BD00BF7856002008B53BF014
:1081800073FA4FF47A72A0FB020302FB0131C00BB9
:10819000044A40EA41401060BDE808400020FFF773
:1081A000C5BF00BF78560020014B1878704700BF4C
:1081B0005E8A00202DE9F04F1C4D1D4CDFF878A0A1
:1081C000DFF878B083B0641BA40800AF0026A9468E
:1081D000B44204DC00200C37BD46BDE8F08F013608
:1081E000B046444501D10435F2E72B6859F8282000
:1081F0001B6811687B601846FEF7ECF87B6890B945
:10820000C7F804D088B06A46C2E905A34FF40073EA
:10821000938342F810BF4FF4E2510346054803F040
:108220009FF9D7F804D008F10108DAE72C2A0700F3
:10823000382A07006C440600C874060003000001D9
:10824000F8B5044610B900252846F8BD0378002B80
:10825000F9D00F4E0F4FBE420FD30D4EBE42F2D299
:1082600030683AF012FE30B1356821462868FEF7D2
:10827000B1F80028E8D00436F0E730683AF005FE9F
:1082800018B135682B68A342DED00436E3E700BF9F
:108290002C2A0700382A07001FB50A4C2468A46856
:1082A00084420DD183F00103CDE901120393064806
:1082B0000022002301A92AF097FF04482BF030FA8E
:1082C00004B010BD2857002040120020185700208D
:1082D0002DE9F04FDFF80081DFF80091384E8DB0C6
:1082E00002AF00220023391D40462AF0D3FF834607
:1082F00018B12C37BD46BDE8F08FD9F80030FC68C6
:108300005868D7E901122CF0B4FB2E4B002C18BF93
:108310003346051ED7E9010115DA6C468AB002AA78
:10832000294DC2E9071340F202439384274BC2E967
:10833000055042F8103F26485B464FF4325103F097
:108340000FF9A546CDE7EA468CB002AADFF890C047
:10835000C2F814C09362DFF88CC040F204639385C6
:108360001C4BC2E906C0C2E9081542F8103F184884
:108370005B464FF47451B4FA84F403F0F1F8FF2330
:108380006409D5463B747D613C763BF06DF94FF452
:108390007A72A0FB020302FB0131C00B40EA4140AC
:1083A000C90BC7E9080107F1280313E903008DE8A9
:1083B000030007F110030FCB00F0A0FA91E700BF14
:1083C000F8740600F3740600FE7406000500000150
:1083D0006C440600070000014012002028570020CE
:1083E00034750600E87506001FB50023CDE9023399
:1083F000044B8DF80C0001A801932CF061FB05B033
:108400005DF804FBFC460600044B1A68044B9A42D4
:1084100014BF6FF012000020704700BF28570020E3
:10842000E8460600F8B5054600AF002838D01E4ED5
:108430003368834232D02BB1986818B183685B6887
:1084400003B1984719491A4B8D4214BFED21002101
:10845000272200202CF027FB041E12DA6D4688B07C
:108460006A46144BC2E90534032342F8103F124810
:1084700000234FF4C25103F073F8AD462046BD46C9
:10848000F8BDA868356048B183680C491B689847F7
:108490003368986883689B6803B198470024EDE7C8
:1084A0006FF01204EAE700BF28570020E8460600F4
:1084B0007C560020647506006C4406009982020018
:1084C00038B5054648B90648FFF7ACFF041E02DB85
:1084D0002846FFF789FF204638BD6FF01504FAE7FC
:1084E000E8460600B0B5104D034600AF084601222D
:1084F00029469847041E12DC6D4688B06A460B4B2D
:10850000C2E90534032342F8103F094800234FF421
:10851000C25103F025F8AD462046BD46B0BD2878CF
:10852000FFF7CEFF0446F7E7A80F00209975060075
:108530006C44060073B50E4614460A4901AA1D464E
:108540002DF06EFF38B1019B3BB9012E07D12946B2
:108550002046FFF7C7FF02B070BD0020FBE76FF0B9
:108560001500F8E7DF7506000148FFF75BBF00BFA5
:10857000E846060008B5074907483AF0A5FE074A4D
:10858000002342F8043B0133272BFAD1BDE8084011
:10859000FFF7EABFD1820200185700207C56002066
:1085A0002DE9F843274E284BA3EB060800AF814680
:1085B0000D4606EBC106C8F3C708A84524DD32689E
:1085C000D9F800309A420BD189F8045073684846B4
:1085D0001B6898470128044605D0022819D0E8B93D
:1085E00001350836E9E76C4688B06A46174B536197
:1085F000174B9361032342F8103F164800234FF4B2
:10860000C85102F0ADFFA54600242046BD46BDE896
:10861000F8836C4688B06A460F4BE8E76D4688B031
:108620006A460E4B53610A4BC2E90630042342F8F6
:10863000103F084800234FF4045102F091FFAD466B
:10864000E3E700BF00150700481507004F76060056
:10865000B17606006C4406006E7606008E76060043
:1086600000B58BB0064B074A282168462BF010FF57
:1086700005490122684604F007FE0BB05DF804FBD3
:10868000CF760600D97606005F8A002008B5074B32
:108690005A784AB901221A700548002200232BF0AB
:1086A000A7F8044800F080F8002008BD5F8A002089
:1086B000E81400209C4006002DE9F047D0F8048023
:1086C00000AF054600244FF00109D8F80430A3425A
:1086D0000ED82B492B483AF03BFEAB681B680BB118
:1086E00028469847B8F8081000293CD1002035E00A
:1086F000D8F8002002EBC40352F834001979DB8863
:10870000D0F810C0D0F808A0DCF80060DA0754BF39
:1087100043F4B01383F4D01323F4801209FA01FE5A
:10872000DB074CBF46EA0E0626EA0E06CCF80060D0
:10873000DAF800309847A0B16D4688B06A46124B0F
:10874000C2E90534032342F8103F104800234FF4D8
:10875000C25102F005FF6FF00400AD46BD46BDE812
:10876000F0870134B1E740F2E7304FF47A7200232A
:1087700000EBC1300021FDF7C3FC2BF035FBB5E762
:1087800061860200E8140020EC7606006C440600C6
:1087900008B54FF4F012002302482BF05DF800EA10
:1087A000E07008BDE8140020F8B50669456800AF20
:1087B00000246B689C4204D301233370FFF7E8FF69
:1087C0001BE02B6803EBC40153F834000979012244
:1087D0002CF079F998B16D4688B06A46094BC2E928
:1087E0000534032342F8103F074800234FF4C451D7
:1087F00002F0B6FE6FF00400AD46BD46F8BD013490
:10880000D7E700BF197706006C440600F8B5066983
:10881000456800AF00246B689C4204D3002333708A
:10882000FFF7B6FF1BE02B6803EBC40153F83400DD
:10883000097900222CF047F998B16D4688B06A4654
:10884000094BC2E90534032342F8103F07480023CF
:108850004FF4C45102F084FE6FF00400AD46BD46F3
:10886000F8BD0134D7E700BF407706006C4406002E
:10887000F7B50C461646114901AA1F462DF0D0FD4A
:10888000B0B1019BA3B9012C15D10D4D224629464B
:108890003846B047002806DB2B780A486C7023B1B5
:1088A000FFF782FF002003B0F0BDFFF7AFFFF9E74D
:1088B0006FF00100F7E76FF01500F4E7CF760600E0
:1088C0005F8A00209C4006001FB50023CDE90233DB
:1088D000044B8DF80C0001A801932CF0F1F805B0C1
:1088E0005DF804FB204706000268034B9A420CBF68
:1088F00008300020704700BF2047060084B030B524
:1089000089B00CAC84E80F00002301930CAD084B38
:1089100000930FCD02AC0FC495E8030084E8030078
:1089200068462CF0CDF809B0BDE8304004B070477F
:10893000244706000268034B9A420CBF083000200F
:10894000704700BF244706001FB50023CDE902335E
:10895000044B8DF80C0001A801932CF0B1F805B080
:108960005DF804FB2C47060080B500AF88B06A466E
:10897000074BC2E90530032342F8103F05480023A6
:108980004FF4C25102F0ECFD6FF00400BD4680BD13
:10899000ED7706006C44060082B010B502A981E8AC
:1089A0000C0004460C482AF05BF928B96068BDE861
:1089B000104002B0FFF7D8BF6368022B06D12CF03D
:1089C000AFF80028CCBF002001206060BDE8104057
:1089D000002002B0704700BFCF76060082B0B0B56D
:1089E00000AF07F1100181E80C0005461F482AF08E
:1089F00037F96B680446B0B96D4688B06A461C49C1
:108A0000C2E90513032342F8103F4FF4C251034655
:108A1000184802F0A5FD6FF00400AD46BD46BDE864
:108A2000B04002B07047012B0AD0022B03D053B9DB
:108A30002CF06FF8F2E72CF073F800282046F7DCF2
:108A40002CF060F8EAE76C4688B06A460A49C2E949
:108A50000513032342F8103F064800234FF4C25188
:108A600002F07EFD6FF08500A546D7E7CF760600C1
:108A7000ED7706006C440600157806001FB500234C
:108A8000CDE90233044B8DF80C0001A801932CF0C2
:108A900017F805B05DF804FB6C4706000268034B4D
:108AA0009A420CBF08300020704700BF6C47060098
:108AB00008B500F0DFFFBDE8084001493AF031BCDD
:108AC0004803002007B508483AF0DFF948B14FF4F1
:108AD000F0120023CDE900230448002200232BF0EC
:108AE000FFFB03B05DF804FBEC400600E010002043
:108AF00008B5FFF7F9FE10B96FF0850008BDFFF764
:108B000053FB38B10138C0B20128F5D803483AF018
:108B1000FEFD01E0FFF7D6FF0020EFE7E0100020A8
:108B200080B50C4B00AF88B01B686A460A49C2E9A1
:108B300005134FF400739383084B42F8103F084825
:108B400000234FF4E25102F00BFD6FF01200BD461E
:108B500080BD00BFEC4006007B78060003000001EA
:108B60006C44060008B506483AF08FF918B9BDE81C
:108B70000840FFF7D5BFFFF7A5FF002008BD00BFE5
:108B8000EC400600F0B583B000AF364DAE682D2145
:108B9000F36828469847044620B36D4688B06A4675
:108BA000314B5361314BC2E90634042342F8103F84
:108BB00000234FF404512E4802F0D2FCAD466D461E
:108BC00088B06A462B4B53612B4BC2E90634042311
:108BD00042F8103F264800234FF4045102F0C0FC35
:108BE000AD463BE02D2133693A4628469847044676
:108BF00020B16D4688B06A46204BD2E7204E3B68D4
:108C000032789A422AD06D4688B033706A461D4940
:108C10005161DBB2D36115499161042342F8103FE1
:108C20004FF404510346124802F09AFCAD463078E6
:108C300004F002FB044658B188B06A46124BC2E900
:108C40000530032342F8103F00234FF4C451B2E72C
:108C50003078FFF713FF04460028B0D10C37BD462B
:108C6000F0BD00BFEC4006009C780600717906005C
:108C70006C4406004979060084790600C378060032
:108C8000618A0020F17806001B790600014B1878F4
:108C9000704700BF618A00201FB50023CDE9023371
:108CA000044B8DF80C0001A801932BF009FF05B0CF
:108CB0005DF804FB7447060008B5BDF808101944B8
:108CC000012908DC3BB1054B127805481A702AF0DF
:108CD00027FD012008BD6FF00600FBE7628A002037
:108CE000980300201FB510240294044C0194BDF891
:108CF0001840009430F086FA04B010BD778A002046
:108D000007B5064B00930649064805234FF43E720B
:108D10002AF00CFD002003B05DF804FB7847060044
:108D2000188D0020181500202DE9F04F91B006AFE6
:108D30006E46B7F850B0CC680BEB03098AB0924688
:108D40001D461FFA89F906AA504BDFF8608153616E
:108D50000523C2E9068B15624D4842F8103F4FF4D7
:108D600024512BF017FFB9F1140FB54600F28A8099
:108D700014202A46514600FB0B403AF038FEB9F168
:108D80000B0F7AD9A14419F8011C002975D12022B2
:108D9000781D3AF054FE01233B71D4F80330C7F834
:108DA0001530D4F80730C7F819302378C7F81D30CC
:108DB000A37887F822300B3410222146781D2BF03F
:108DC00040FE0F2811D98AB006AA324B3048C2E9BA
:108DD00005347B1DD361304B1362304B42F8103F9A
:108DE0004FF421512BF0D6FEB5466E468CB0D7F825
:108DF0001500D7F8191097F822E006AA7B1DC2E9E2
:108E00000730DFF8ACC0224840F201339385244B91
:108E1000C2E905C8C2E9091E42F8103F4FF4745177
:108E20002BF0B8FEB54600F093FB07F1100E81461B
:108E3000BEE80F00EC46ACE80F009EE803004CF8DB
:108E4000040B07F104088CF8001098E80E0048465F
:108E500000F054FC88B18AB006AA124BD061C2E976
:108E600005344FF4007313840F4B42F8103F084849
:108E70004FF411512BF08EFEB54628462C37BD46D7
:108E8000BDE8F08F6FF00605F7E700BFB97906007F
:108E90006C440600CE7906000002010304000002C3
:108EA000070000013A7A0600040000019D7B0600DD
:108EB000147A060080B500AF88B06A46074B53614C
:108EC000074B0848C2E90631042342F8103F4FF42B
:108ED00004512BF05FFEBD4680BD00BF5B7A0600EB
:108EE000857B06006C440600B0B50C4C00AF6D46A7
:108EF00088B023786A460A4951610A490A48C2E99A
:108F00000613042342F8103F4FF404512BF042FEA5
:108F1000AD462078FFF7D4FABD46B0BD628A002086
:108F2000687A0600B47B06006C440600F0B5184D64
:108F3000184E8BB000AF00220023394628462AF095
:108F4000A9F9044610B12C37BD46F0BD21461822C0
:108F500007F110003AF073FD1023F9182046C7E915
:108F60000567BB830CF0E2F90028E4D06C4688B0BA
:108F70006A46094B5361094BC2E90630042342F8A3
:108F8000103F07484FF404512BF004FEA546D2E7EA
:108F900070120020944706009D7A0600687B060048
:108FA0006C440600B0B586B000AF1C491C4840F6C2
:108FB000CD4200232AF018F9044650B310F10B0FEC
:108FC00017D1184B7B61022317483B6107F1100250
:108FD0004FF484512BF0DEFD002200233946104867
:108FE0002AF058F9FFF7DEFF044620461837BD4641
:108FF000B0BD6D4688B06A460C4BC2E9053003230C
:1090000042F8103F08484FF4C4512BF0C3FDAD4661
:10901000EBE7074907483AF084F9E6E7778A00204A
:1090200070120020B47A06006C440600007B060033
:109030005803002018150020B0B5037800AF9BB18D
:10904000032B20D06C4688B06A4612491248C2E908
:109050000513032342F8103F4FF4C4512BF09AFD3F
:109060006FF08500A5460FE042780C4D02F0070135
:10907000D40801228A4081782B5DD2B231B11343EA
:109080002B55FFF78FFF0020BD46B0BD23EA02033A
:10909000F6E700BF2C7B06006C440600778A0020B0
:1090A000014B1970704700BF8A8A0020014B18607D
:1090B000002070472C570020084A094B12781B7873
:1090C000002062F30700074A12785B0062F30F206A
:1090D000DBB282B063F3174002B07047878A00208A
:1090E0008B8A0020888A002013B50C4B1C6894B131
:1090F000FFF7E2FF8DF80400C0F30723C0F3074039
:109100008DF805308DF8060001990548234602B018
:10911000BDE81040184702B010BD00BF2C5700201A
:10912000382A070010B5084809F0D4F9074809F0B3
:109130009DFB074B074800241C70074B01221A7047
:109140002AF0EEFA204610BDE0030020D0030020F4
:10915000898A0020C0030020878A00200B4BB1FAC7
:1091600081F010B540090C461870FFF795FD3C2CB6
:109170000AD1074B1B783BB1064B074801221A70F6
:10918000BDE810402AF0CCBA10BD00BF8B8A002089
:10919000888A0020898A00200004002070B50378A6
:1091A0008AB004460E4607AD032B20D8DFE803F053
:1091B00002191B1D11492846FDF716F9059563781C
:1091C0000493A3780393E37802932379019363795B
:1091D0000093A3790A4A1E2130462BF059F90AB0B0
:1091E00070BD0849E7E70849E5E70849E3E7084AA9
:1091F0000A2128462BF04CF9E0E700BFDA7B060095
:10920000FC7B0600E17B0600E87B0600F27B0600A3
:1092100072A70600B0B588B000AF0C462FF0E4F896
:109220003946FFF7BBFF6D468AB06A46114B536162
:10923000114B1462C2E9063740F2013393840F4B9D
:1092400042F8103F0E4800234FF4345102F088F9E1
:109250000C4B0024AD4620461C70FFF71DFD0A4B49
:109260001B7823B1094B0A481C702AF059FA2037A1
:10927000BD46B0BD1F7C06003F7D06000500000115
:109280006C4406008B8A0020888A0020898A00208E
:109290000004002038B507220C46064905463AF07E
:1092A00081FD28B12B682360AB88A380AB79A371C3
:1092B00038BD00BF328D0600F0B5294E294B2A4932
:1092C0008BB002AF3068B2881C7878603D1DB379EE
:1092D0003A8100202A46AB710DF0C6FD31460722C7
:1092E00028463AF05FFD214B064660B33CBB0320A5
:1092F0002246214601241C700023C7E90402C7E965
:109300000615BB81BB731A460093194607F10C0082
:1093100008F03AF900280FDA6C4688B002AA144B1C
:10932000C2E90530032342F8103F124800234FF4EE
:10933000C25102F015F9A5462437BD46F0BD1320F1
:10934000A022F021D6E70C4D18700FCD07F10C04C8
:109350000FC42B6823600949009633460322D5E7E2
:10936000328D0600898A0020959202008A8A0020A8
:10937000487C06006C440600304506004448060060
:10938000B0B582B000AF0120194900243A1D7C60BD
:1093900008F072FF7868A0B113212EF09DFF00281D
:1093A0000FDA6D4688B06A46124BC2E905300323D6
:1093B00042F8103F104823464FF4C45102F0D0F851
:1093C000AD4608F013F900280FDA6C4688B06A46FB
:1093D0000A4BC2E90530032342F8103F0648002338
:1093E0004FF4C45102F0BCF8A5460837BD46B0BDE5
:1093F0009B4B0500697C06006C440600997C0600C6
:1094000008B5054B187020B104482AF089F90020EE
:1094100008BDFFF7B5FFFAE7888A002000040020A6
:10942000B0B5002000AF07F0F9F9044690B16D46E1
:1094300088B06A46094BC2E90530032342F8103F61
:10944000074800234FF4C25102F08AF8AD46204687
:10945000BD46B0BD034803F0A7FFF8E7B97C06009E
:109460006C440600A8030020F0B589B000AF0D469B
:1094700014462EF0B9FF3946FFF790FE6E46BCB990
:109480008AB06A46134B5361134B1562C2E9063723
:1094900040F201339384114B42F8103F4FF43451A2
:1094A00023460F4802F05CF82437B546BD46F0BDB0
:1094B0008AB06A460B4BC2E905374FF400739384B8
:1094C000064BC2E9075442F8103F00234FF43151D4
:1094D000E7E700BFCF7C06005D7D060005000001C8
:1094E0006C440600F17C0600F0B589B000AF0E4672
:1094F00015461C462EF078FF3946FFF74FFE8CB01C
:1095000068460C4B43610C4B8462C0E90637024647
:1095100040F201338385094BC0E9086542F8103FEA
:10952000074800234FF4745102F01AF82437BD465F
:10953000F0BD00BF157D06004C7D06000700000150
:109540006C440600014B1878704700BF8B8A0020DE
:1095500000487047382A07007FB5074B0593074836
:10956000022304AA4FF4845104932BF01AFB6FF0EA
:10957000120007B05DF804FB7D7D06006C44060018
:10958000F0B5284C284E83B000AFB442254602D334
:109590006FF0120018E02B689B680434BBB9234CB1
:1095A0002368AB421FD16C4688B06A46204B53619A
:1095B000204B9361032342F8103F1F484FF4C851DA
:1095C0002BF0EFFAA54600200C37BD46F0BD9847BA
:1095D000C0F3072338717B71C0F30743C0B2BB717E
:1095E0000028D2D0DBE7ABB11B685B6893B10020E9
:1095F000984700280EDA6E4688B06A460F4BC2E9DB
:109600000530032342F8103F0B484FF4C4512BF0B0
:10961000C8FAB5462B6825605B68002BD3D00120C3
:109620009847D1E7382A07003C2A07003057002026
:10963000B17D0600C87E06006C440600E47D06008D
:1096400070B5094C094D0A4EAC42234603D3BDE820
:109650007040FFF795BF1B68DB680434002BF3D024
:1096600030469847F0E700BF382A07003C2A070039
:1096700075960200F0B51C4B83B01B6800AF8342A7
:109680007960C1F307442BD16D468CB07879397974
:109690006A46164E5661164E9462C2E90663072367
:1096A000C2E9080142F8103F12484FF464512BF010
:1096B00078FAAD461CB100200C37BD46F0BD88B02D
:1096C0006A460D4B0B48C2E90536032342F8103FAA
:1096D0004FF4C8512BF065FAAD46FFF751FFEBE7A9
:1096E000FFF74EFFE7E700BF305700201D7E060062
:1096F000E97E06006C4406006B7E060084B02DE90E
:10970000F0439BB004AF07F17C006C4688B080E862
:109710000E0004AA654B5361654D9561032342F821
:10972000103F64484FF4C8512BF03BFA97F87C3057
:10973000012BA54640F0A380D7F88D10D7F89130C3
:1097400097F89A60B96007F17D008CB07860FB6093
:1097500004AADFF874C1C2E9093640F201339385E7
:10976000554BC2E905C5C2E9070142F8103F51480F
:109770004FF474512BF015FA1822A546002107F179
:1097800010003AF05CF9D7F8959039F06DFF4FF47E
:109790007A73A0FB030C03FB01CCC40B97F89A303F
:1097A00044EA4C444FEADC3CC7E9059407F1400821
:1097B000C7F81CC0002B37D007F110060FCE07F1F9
:1097C00028050FC596E8030085E80300C7E90B9458
:1097D000C7F834C007F128060FCE44460FC495E8F9
:1097E000030084E8030078682BF041F9B0B96FF00A
:1097F00015006C468AB07B6804AA3049D061C2E982
:1098000005134FF4007313842D4B42F8103F294881
:109810004FF411512BF0C5F9A54630E083689C68E0
:109820000CBB6FF08500E4E707F110050FCD07F1E1
:1098300028060FC695E8030086E80300C7E90B94E5
:10984000C7F834C007F128040FCC45460FC596E889
:10985000030085E8030078682BF009F90028C6D0DA
:109860008368DC68DCE707F1580313E90F008DE833
:109870000F00381D98E80C00A0470028B9D188B027
:1098800097F87C3004AA0F490A48C2E9051303235C
:1098900042F8103F4FF4C4512BF083F96FF085006C
:1098A0005C37BD46BDE8F04304B070478F7E0600CC
:1098B000057F06006C440600070000013A7A0600A6
:1098C00004000001947E0600147A0600044B1B6815
:1098D0001BB11B680BB11B680BB9FFF73DBE1847E6
:1098E00030570020B0B584B06C4600AF88B0054654
:1098F0006A461A4B53611A4B9361032342F8103F97
:1099000018484FF4C8512BF04CF92846A546FFF7EC
:1099100011F8044658B10D22002138463AF08FF86C
:1099200063687B70237ABB703846FFF7CFFF284609
:10993000FFF7B4F868B10023C7F80130C7F8053065
:10994000C7F8093003233B7003787B703846FFF774
:10995000BDFF00201037BD46B0BD00BF8F7E0600A2
:10996000AE7E06006C4406007FB5084B05930223CB
:1099700004930748002304AA4FF4825101F0F0FD3C
:109980006FF0150007B05DF804FB00BF347F0600E0
:109990006C44060008B5044802F0F0FD18B1BDE8BB
:1099A0000840FFF7E1BF08BD0D9A0200B0B5134CA7
:1099B00000AF6D4688B023786A461149516111495C
:1099C000C2E90613042342F8103F0F4800234FF466
:1099D000045101F0C5FD23780B2BAD464FF001007B
:1099E00008D8984010F4CD6F06D110F4016F0CBF69
:1099F00001200020BD46B0BD0220FBE7341000204E
:109A0000497F0600577F06006C4406000A2810B5FF
:109A100014D00B4C2070FFF7C9FF0228094A0BD164
:109A200021781378032908BF43F001031370BDE8C0
:109A30001040054829F074BE0023F7E710BD00BFB1
:109A4000341000208C8A00201004002007B5064B3B
:109A50000093064906480A234FF4407229F066FE37
:109A6000002003B05DF804FB604806001090002061
:109A70000016002000487047001600207FB50A4BF2
:109A8000059302230493002304AA4FF48651074848
:109A900001F066FD03F09EFD2CF0BBFC00F0C4F865
:109AA000002007B05DF804FB867F06006C440600CA
:109AB0000149024839F035BC50040020E816002066
:109AC00007B5074883685B6898474FF4A472002382
:109AD0000448CDE900232AF003FC03B05DF804FB41
:109AE000B04006001811002010B5044839F00FFEF0
:109AF00003488368BDE810401B6818471811002010
:109B0000B040060098B500AFFEF7EEFE00B3037854
:109B1000ABB15A1E012A19D96C4688B06A460E4963
:109B2000C2E90513032342F8103F0C4800234FF409
:109B3000C45101F015FD6FF01500A54604E0084979
:109B4000084839F0EEFB0020BD4698BD0649F7E70E
:109B50006FF08500F8E700BF9B7F06006C440600AD
:109B600030040020E816002040040020B0B586B084
:109B70006D4600AF88B004466A461D4B53611D4BCD
:109B80009361032342F8103F1B4800234FF4C85150
:109B900001F0E6FCAD46194839F077F9034668B99B
:109BA000174A7A6102223A61134807F110024FF412
:109BB000825101F0D5FC1837BD46B0BD114B0122D2
:109BC0001A7027F025FA104A0021054626F0E0FE1B
:109BD0000E4B4361A86000F057F8034608B90C4AE1
:109BE000DFE730F00CFE2046FFF76AFFE3E700BF37
:109BF0008F7E0600018006006C440600B04006001F
:109C0000B87F06008D8A0020086B0600AC65060050
:109C1000D67F060000487047E8160020014B1878F0
:109C2000704700BF8D8A0020B0B5114D114982B038
:109C30000024052302AF00944FF40062284629F067
:109C400075FD0D49284639F06CFB88B002AA0B4B14
:109C500053610B4B9361032342F8103F094823469D
:109C60004FF4C85101F07CFC2046BD46B0BD00BF9A
:109C7000E816002010930020200400208F7E0600AC
:109C8000F07F06006C44060038B5002021F064FC2B
:109C90000E4D04460146284600F0B8F828462AF042
:109CA0008CFF0B4D00231A46032131F072FE214632
:109CB000284600F043F928462AF081FF00231A467F
:109CC000012131F066FE204638BD00BF3C57002020
:109CD0003457002010B504460E484FF0FF324FF0C5
:109CE000FF3329F031FB2046FEF7D8FE68B1047837
:109CF000FFF75CFE084B003818BF01201C7058703D
:109D00000448BDE8104029F099BBFEF7BFFF0446A8
:109D1000EEE700BFE81100208E8A002010B504464F
:109D2000FFF77CFF38B12046FFF7D4FFFFF772FF43
:109D3000024939F0F6FA002010BD00BF600400208F
:109D40002DE9F0431B4B1C4E1C681C4FDFF87C8038
:109D500087B0ADF8040014B907B0BDE8F0839DF8F2
:109D60000520D4F804909DF804500023CDE9033376
:109D70008DF814301AB1314603A8FCF735FB5F2D7E
:109D80004FF0090209D90E4903A839F0F3FF03A9DE
:109D9000484638F05CFE2468DDE7412D01D90949C9
:109DA000F2E7232D01D90849EEE7052D8CBF414686
:109DB0003946E9E744570020148006002980060050
:109DC000198006001D8006002180060025800600FF
:109DD00073B50C4C4FF0FF324FF0FF33204629F0A3
:109DE000B3FA094B1E785D78204629F027FB8DF8E1
:109DF00004608DF80550019802B0BDE87040FFF78F
:109E00009FBF00BFE81100208E8A002010B50446D5
:109E1000084627F0B7FF00232360084B60605A68AC
:109E20004AB9C3E900440020FFF754FF0020FFF7C0
:109E3000CFFF002010BD14605C60F4E744570020A1
:109E400010B5084C4FF0FF324FF0FF33204629F099
:109E50007BFAFFF777FB044B18702046BDE81040F3
:109E600029F0ECBAFC110020908A002008B5FFF719
:109E7000D5FE30B1FFF7E4FFFFF7CCFE024939F021
:109E800050FA002008BD00BF700400202DE9F04FFB
:109E900083B000AF4FF0FF324FF0FF331C4829F082
:109EA00053FA1C4B1D781A48DFF88480DFF8849041
:109EB000DFF884A0184E29F0C1FA184B1C68184B23
:109EC000002D184D08BF1D46174B08BF1E461CB974
:109ED0000C37BD46BDE8F08FC7F804D08AB0D4F87F
:109EE00004B06A4640F20133C2E90589D5611384A2
:109EF00042F810AF0D4800234FF4145101F030FB2D
:109F00003146D7F804D0584638F0A1FD2468DEE782
:109F1000FC110020908A00202D8006004C57002064
:109F2000F8740600F3740600358006006C440600E1
:109F30003D8006004F8006000400000110B5044675
:109F4000084627F01FFF00232360084B60605A6813
:109F500042B9C3E90044FFF773FF0020FFF796FF03
:109F6000002010BD14605C60F5E700BF4C57002076
:109F700010B5094C0A44914200D110BD11F8013BC3
:109F8000584003090001E35CC0B2434018091B01BB
:109F9000205CDBB25840EEE7618006002DE9F04F0F
:109FA00091B08407009302F004030293C2F3C2034A
:109FB00003F10103DDF86890039205460E46059310
:109FC00040F0BA81041D30B1072909D86FF01B0099
:109FD00011B0BDE8F08F01F00706341DC6F1080688
:109FE000009B4FF00008591E4FF0040A4FF0FF335A
:109FF0000193CDF810804746C34653460DB10098F3
:10A0000020600598002800F3E8809848009A824272
:10A0100003D397488242C0F0E080039AA4EB050E78
:10A0200092074FEA9E0000F103810F2F00F2B180EA
:10A03000002D00F0058107F140020DEB020C019AA2
:10A040000CF8200C0CF8102C049801300490E7E078
:10A050007A285DD84B280ED8472859D829282DD8DA
:10A06000252852D054D820287AD02338D0F1000B9C
:10A070004BEB000B74E04C382E2849D8DFE800F099
:10A080007048484848484848484848484B48484825
:10A09000484848484859484B4B595959704B6D48A6
:10A0A0007048184B184848827F4B48484B487F00FF
:10A0B00000204FF0000B4FF0040A38E02A38C0B2FD
:10A0C000012202FA00F010EA0E0F49D110F0625C92
:10A0D0002FD110EA020B43D06046013C5444B4FB3C
:10A0E000FAF40AFB04F4002D61D0A3EB050CA444A0
:10A0F0006645FFF46BAF002868D1042B47D159F8AF
:10A10000043B2360043404232AE0019A013A0192BB
:10A110004FF0000B24E011F8010C6C2834D111F839
:10A12000023C00206C2B8346C5D14FF0080A5346F1
:10A13000D3E709F1070929F007090734F9E802AB69
:10A1400024F0070435B106982044B0423FF63EAFF4
:10A15000C4E900AB08344FF0000B4FF0080A534637
:10A1600011F8010F002878D0BBF1000F7FF470AF19
:10A170002528F5D1019B013301934FF0010B4FF0DE
:10A18000040AECE7584694E700208346A5E7082B2D
:10A1900002D06FF015001BE709F1070929F0070944
:10A1A000B9EC027B84ED007B08340823D8E768B95A
:10A1B000042B02D109F10409A4E7082BE9D109F124
:10A1C000070929F0070909F10809EDE705980138A1
:10A1D000059059F8040B009010E7039A900720D5DA
:10A1E000A4EB050E4FEA9E004FF0010CBEF5007F78
:10A1F000CFD20F2FCDD8F5B107F140020DEB020EF3
:10A20000C0B2019A0EF8200C0EF8102CBCF1000F11
:10A210003FF41AAF60F07F000EF8200C08F101083F
:10A220000137C5F10802043406924FF6DA7E97E74B
:10A230004FF0000CDAE7BCF1000F01D00136EFE778
:10A24000029A0236002AEBD10098CDE90631FCF7DC
:10A25000D3F8DDE906310644E2E7631BB3F5806F0E
:10A2600097D23DB9A6F10804E018B1E65C3E0600BD
:10A2700048150700029A28609B082B709DF8103043
:10A28000C2B1EB7085F80280B8F1000F05D008A8C4
:10A290000022C5F1010C97420ED1C5F101030DF169
:10A2A00020094FF0000A01930DF1300B574512D1F0
:10A2B000601B8DE66B70E5E710F8013B190608D5C9
:10A2C00004EB0C0E764503F07F03FFF47FAE04F839
:10A2D000013B0132DFE7B8F1000F03D099F900200C
:10A2E000002A17DB029BD3B11AF80B2004F8012BCC
:10A2F0000022019B981820448642FFF467AE99F82B
:10A30000000004F8010B00990392204639F06FFB1E
:10A31000039A14440AF1010A09F10109C6E799F800
:10A32000002055F822300093029B45F82230009817
:10A33000FCF762F8421CDCE76FF00D0048E600BF56
:10A340002DE9F04F95B000AF90F802B0BB61BB6F44
:10A350007A62C3F3C00304463B618A4641B945783B
:10A3600000780BEB80002044554517D8A0EB040A79
:10A37000E3787B61BBF1000F02D0BB6FD80716D426
:10A380007B6953BB7B6A1BB1BA695146204698472B
:10A39000554628465437BD46BDE8F08F461C30462A
:10A3A000FCF72AF8013030440AF1010ADCE723788F
:10A3B0003B629B00FB603B6A6268FA6104EB8309C5
:10A3C0007B6A002B40F0FE805546C84609EB0B0A1D
:10A3D0000026D04551D1D94413E0BB6F9907D1D5A0
:10A3E00023783B6299469B00FB606368FB617B6A54
:10A3F00004EB8909002B7AD15546BBF1000F4FD1F0
:10A400005E46BB6F13F0050F7B6909EB430ABB6F18
:10A4100003F002030CBF4FF0020B4FF0010B7B6205
:10A42000D145B6D019F8021B19F8013C54F8238025
:10A43000AA4B984502D3AA4B984538D33B69002BC9
:10A4400042D0F8692AF0EEFB00283DD0E8468AB0F9
:10A450006A46A44B5361FB69C2E906314FF40073AD
:10A460001384A14B42F8103FA04800234FF412512F
:10A4700001F076F8023DC546D2E718F8013B54F8E2
:10A480002300FBF7B9FFFB6F01303BB1D7F88030F9
:10A490009E423EBFFB6F23F816000136054498E745
:10A4A000BB6F13F004061CBF7E6AD944A9E73B6961
:10A4B00023B1F8692AF0B6FB0028C7D1BB6FDA07D1
:10A4C00005D4A5EB0B05ABE77B6A002BA8D0404673
:10A4D000FBF792FFFB6F43B1D7F880309E423FBF3E
:10A4E000FA6F431C22F816300136054498E7BBF199
:10A4F000000F6DD0BB6F13F004066CD0D846002659
:10A5000007F140005A46494639F071FA7B695B0011
:10A510007B607B69D94409EB4303BB60BB6F03F0ED
:10A5200002033B60BB684B4557D1B96F6378B86F86
:10A53000890706EB030254BF4FEA58010021C50703
:10A54000D2B200F19A8010F0040F14BF40460020F0
:10A55000FB616270A070E170BA69F9687B6A20469D
:10A560009847051EFFF615AF3B6A2370FB696370C1
:10A570007B69E3704146BA697B6A84F802B007F1EF
:10A5800040009847B0F10008C0F2A480FB68BA69A7
:10A59000AAEB0B01C91A7B684846C91A7B6A98471F
:10A5A0000028C0F29980A84408EB00054FF0000B8A
:10A5B00007F1300AB34562D30021BA697B6A0846C5
:10A5C0009847E6E65E464FF0000807F1300099E74D
:10A5D0005E46D8469AE7B04698E719F8021B3F4B0B
:10A5E00019F8015C54F82500984202D33C4B98427C
:10A5F0001DD33B6923B1F8692AF014FB002891D1DF
:10A600003B68FBB908F1280307F1280208F10100B3
:10A6100003EB020C07F1500353FA80F008F1020833
:10A620000CF8101C5FFA88F800F8105C7AE73B69B8
:10A630002BB1F8692AF0F6FA00287FF473AFBB6FEC
:10A64000DB0709D506F1280307F12802711C9E18C3
:10A6500006F8205CCEB265E7BB6F58077FF562AFA6
:10A6600008F1280307F1280208F1010103EB0208B1
:10A6700008F8105C5FFA81F854E7002068E71BF8DF
:10A680000A3087F82F3054F82390FB6FFBB133F872
:10A690001B80BA697B6A012107F12F0098470028C7
:10A6A0001ADB0544B8F1000F06D14846FBF7A4FEBB
:10A6B00000F101081FFA88F8BA697B6A41464846EA
:10A6C0009847002808DB05440BF1010B72E7D7F827
:10A6D0007C80DEE745465CE605465AE65C3E0600C1
:10A6E000481507007180060004000001B44306000D
:10A6F000014B1860704700BF8004002080B50546FC
:10A700000E461746984629F0A3FB034639F09CFBFA
:10A71000DFF81890044649F8003042463046394682
:10A72000A84754F8090003F025FD00BF0800000009
:10A730002DE9F047058B04462807904611D40229DD
:10A7400005F0070540F0CD8020462AF094FD78B151
:10A750000138218B042811D8DFE800F0C3106D8583
:10A76000950001290CBF45F0100545F02005258313
:10A7700088F31188BFF36F8FBDE8F08701F0070AF7
:10A78000AA4500F0A6800027B9463E46A368002BE4
:10A7900000F0BD8041F00801218388F31188BFF3E8
:10A7A0006F8FA168002900F0BB800D68002900F0C0
:10A7B000B780D1F80480334652462046C047002D6A
:10A7C00076D02B6829461D46F0E701F007035A1F93
:10A7D000012A1BD8002221F00701062B276889B225
:10A7E000C4E9002209D13B4603E0628B0132628357
:10A7F0001B68002BF9D141F00201218320462AF089
:10A800003AFD00287BD041F0200177E0042B0AD1EB
:10A8100021F0070189B2218320462AF02CFD10B1D6
:10A8200041F020012183218B01F0070AAA4550D075
:10A830000027B946AAE7236921F0070141F0060184
:10A84000062DD3F8009021832DD1B9F1000F40D00F
:10A8500041F00801218388F31188BFF36F8F3A49D3
:10A860002046C84729E021F00701236941F004018F
:10A8700089B2042DD3F804902183E6D000273E4608
:10A880004FF0040A82E721F00701236941F0050136
:10A8900089B2052DD3F808902183D6D000273E46F3
:10A8A0004FF0050A72E700273E464FF0060A6DE7B3
:10A8B0002B4687E7B9F1000FD1D14FF02003EFF31A
:10A8C000118883F31288BFF36F8F238B23F0080363
:10A8D0002383258BEA062ED525F01003238305F06C
:10A8E00007056669218B002EBFF66FAF002327682E
:10A8F000C4E9003321F0070141F001012183218BDC
:10A9000001F0070AAA454FF000097FF43FAF002F7E
:10A910009BD041F00801218388F31188BFF36F8F2A
:10A92000002FC7D03D6839463346524620462AF0AC
:10A93000CEFC2F46F4E7AB067FF51AAF25F02003D7
:10A94000238305F00705FFE6FB52050008B5044622
:10A950004FF02002EFF3118382F31288BFF36F8F61
:10A960001DF05EFF204603F05FFF03482AF0FAF96E
:10A9700003F070FDFCE700BF258106001DF07ABFE3
:10A980002DE9F7430F4606460821C06ADFF85090CC
:10A990002BF035F93C68241A80463C6004EA09052E
:10A9A000AC4203D8002003B0BDE8F08308236A4618
:10A9B000214630462BF093F80028F4D16946304602
:10A9C0002BF027F940B1BDF80230BDF804203C60FF
:10A9D00005EA090513441D44A4EB0804E0E700BFA1
:10A9E0000000FFFF2DE9F04F8FB0044600AF00F1EB
:10A9F0001408404638F027FBA06A8368DB68984754
:10AA0000E06288B98D4B7B6302238D483B6307F17D
:10AA100030024FF482516FF015052BF0EDF8284607
:10AA20003C37BD46BDE8F08FA06A8368DB68984775
:10AA30000368013B1F2B01D9824BE4E7A06A216820
:10AA400007F114022FF00EFB08B17F4BDBE7A5895D
:10AA50002DB1BB69B5FBF3F203FB12550DB17B4B76
:10AA6000D1E7E389012B01D8794BCCE7E36A3D605C
:10AA700093F804A04FF0FF334FF0FF32404628F028
:10AA800063FCE06A08212BF0BAF8A9460646E38980
:10AA90001FFA85FB5B4508D8E3894B4523D1404627
:10AAA00028F0CCFC6FF02C05B9E7A1892B04891B99
:10AAB00013FA81F152460823204639602BF05DF8E5
:10AAC00078B1394620462BF018F809F101093968A8
:10AAD0000823524620461FFA89F92BF04EF8002829
:10AAE000DAD00135D3E75B450BD1396808235246EC
:10AAF000891B20462BF041F818B9394620462AF028
:10AB0000FCFF39462046FFF73BFF054618B140469B
:10AB100028F094FC83E73B6863604FEA13494FEAEF
:10AB20000949C4F80890D4E9011399420FD30823C6
:10AB30003A1D20462AF0D3FF05460028E7D13B1DE9
:10AB400013F8012B924544D10135082DF8D16368E3
:10AB50001B0C1B04394620463B602AF0CEFFA3891C
:10AB60003968524620462BF008F8051ECFDB636893
:10AB700000F0828006EB03094FF6FF7AA389C7F83D
:10AB800000901FFA89F29B1B9A423CD3314B7B63A6
:10AB900002232B483B6307F130024FF486512BF020
:10ABA0002BF8204661682BF00DF805460028AED141
:10ABB0006368294AA18913400B44A3EB46036360F1
:10ABC0001340A36020462BF008F90546002D6FD0F6
:10ABD0009DE7391D20462BF01CF8626810B9921BC6
:10ABE0006260A0E73D89F988E06AC4F808902944CA
:10ABF0002BF005F848449042A060F0D1002DEED033
:10AC00006FF01C059CE0082307F10C024946204622
:10AC10002AF065FF054600287FF479AF07F10C01A3
:10AC200020462AF0F6FF30B1BB89534503D13B8A59
:10AC3000002B00F08B80B144A0E700BF62810600CA
:10AC4000CC43060084810600A1810600B98106007C
:10AC5000CD8106002A8206000000FFFF5B1A5246E3
:10AC600020462AF08AFF051EFFF651AF08D0E26A9F
:10AC7000A36812681344A360D4E901318B42EDD874
:10AC80006168A38901EB46029A429FD1DFF80091E7
:10AC9000A36801EA0902934298D020462AF092FF65
:10ACA000054600287FF433AF636803EA0903A36015
:10ACB000A389A288A3EB46039A423DD0404628F0E0
:10ACC000BDFB0123E84688B02374E289A3896D4661
:10ACD0002A49EB612E464FF00409C5E9051246F8F2
:10ACE000109F274832464FF403512AF085FFC5468E
:10ACF0006368AD46234A6A611A0C9BB2AA61EB6194
:10AD00001F48C5F8109032464FF403512AF074FFE3
:10AD1000C546A368AD461C4A6A611A0C9BB2AA617B
:10AD2000EB61C5F81090164832464FF403512AF0F3
:10AD300063FF0025C54672E620462BF037F805462E
:10AD4000404628F07BFB002DBBD068E60F4B7B63B1
:10AD500002233B6307F1300209484FF486512AF081
:10AD60004BFF63681B0C1B04394620463B602AF0EE
:10AD7000C4FE396820462AF025FF26E7F081060048
:10AD8000CC430600078206001982060051820600A5
:10AD90000000FFFF2DE9F04F1D46037C8DB00446F7
:10ADA000894690467BB9674B0B93674802230AAAF2
:10ADB0004FF482516FF00C060A932AF01DFF3046C3
:10ADC0000DB0BDE8F08FC26A082110462AF017FFC7
:10ADD0002946824610462AF012FFA389A3EB8A0374
:10ADE000AB420746C0F0AA801DB1B8F1000F00F0D9
:10ADF000A5806368039304AA03A92046DDF80CB07C
:10AE00002AF03FFF06460028D9D1BDF810304B4547
:10AE100005D06268039B9A42EDD1E5B9CFE704A95A
:10AE200020462AF0F6FE0028F3D0BDF81200BDF847
:10AE3000143075B1AB420ED14FEA1B4109040144F5
:10AE40002B46424620462AF065FE002803DC0646D3
:10AE5000B5E7002BB3D0002F3DD104F114030193CB
:10AE60004FF0FF320198DFF8E4B04FF0FF3328F0E5
:10AE70006BFAE3899E425ED0D4E90123F9188A4235
:10AE80002CD3ADF81A3006A8FF238DF81E30ADF88C
:10AE90001890ADF81C502AF067FEA1682B46424678
:10AEA00020462AF038FF29468246E06A2AF0A7FEAB
:10AEB000A2680244A260BAF1000F07D106A9204699
:10AEC0002AF063FF002814BF8246AA46019828F0A2
:10AED000B5FA564673E75744BFB2BEE7E06A0821A9
:10AEE0002AF08DFE4FF6FF73ADF8183000218DF873
:10AEF0001E30A389ADF81C10111802EA0B021A4487
:10AF0000101A606006A8ADF81A102AF02DFE06A9E6
:10AF100020462AF03AFF211D20462AF0EEFD636804
:10AF200003EA0B03A36020462AF057FF824600285D
:10AF3000CCD101369DE76FF01B0AC7E76FF015060D
:10AF40003DE700BF4E810600CC4306000000FFFF36
:10AF50002DE9F0471E4688B0037CBDF840900446BA
:10AF60000F46904673B92F4B2F48079306AA02232A
:10AF70004FF4825106932AF03FFE6FF00C0008B0A8
:10AF8000BDE8F087C06A08212AF039FEA389A3EB47
:10AF90004003B34243D3D4F804A0CDF804A0002565
:10AFA0004D455146DDF804A009D9636853451ED1CB
:10AFB000BDF80830BB421AD06FF00100DFE702AAEB
:10AFC00001A920462AF05DFE0028D8D1BDF808303E
:10AFD000BB4206D102A920462AF01BFE08B101356A
:10AFE000ADB26268019B9A42DAD15146E0E7BDF802
:10AFF0000C30002BE0D0A945DED8BDF80A00090CC2
:10B00000B3424FEA014128BF33460144424620463D
:10B010002AF065FD0028B2D1BDF80C00AFE76FF053
:10B020001500ACE74E810600CC4306002DE9F04741
:10B03000DFF85880044607464FF0010914B9384636
:10B04000BDE8F08794FAA4F5B5FA85F509FA05F399
:10B050002E0108EB05156FEA030A24EA03042B7B93
:10B06000002BEBD058F806301B694BB9464404223C
:10B0700073682846196807EA0A0700F05DFADDE7F9
:10B08000284698470028D9D1F0E700BF744406004D
:10B0900030B51049104889B0002238F02CFB0F4D14
:10B0A0000F494FF400420023CDE9062300240E236C
:10B0B000CDE90334CDE901440A4B00944FF44072CA
:10B0C000284628F019F80849284637F0A1FF2046FD
:10B0D00009B030BDEDB00200A0380020D01700202C
:10B0E000109B0020DDB302006D820600014828F0AD
:10B0F00015BA00BFA01200202DE9F04780461F4876
:10B100000F462AF056FF0646002830D00025284674
:10B11000BDE8F087237B73B12368DB680BB1204661
:10B12000984723681B69D3B96368042219682046CD
:10B1300000F002FA013610344C45EBD3B8F1000FA1
:10B14000E5D0002DE2D02846FFF770FF0546002F1E
:10B15000F7D000214FF4A47028F046FEF1E7204616
:10B1600098470028E0D00AFA06F31D43E2E7044CB2
:10B17000DFF8109005464FF0010ADDE76457002024
:10B180007444060084440600014B53F820007047C5
:10B190008848060008B5034608462BB1044A1360E8
:10B1A00000F080FC002008BD6FF01500FBE700BF39
:10B1B0008404002010B5044C237813B9034828F008
:10B1C000ADF90123237010BD918A0020A012002048
:10B1D00010B5044608482AF0ECFE5CB1BFF35B8F63
:10B1E000064B53E8001F013943E80012002AF8D14A
:10B1F000BFF35B8F10BD00BF5C570020605700207D
:10B200000020064BBFF35B8F014653E8000F43E875
:10B210000012002AF9D1BFF35B8F70475C57002002
:10B2200070B5FFF7EDFF084C084E0546B44200D359
:10B2300070BD63685B792BB123685B6813B12946E5
:10B24000204698471034F1E7744406008444060011
:10B2500010B5044C044920462AF0E6FA034B1C6062
:10B2600010BD00BF64100020744806005457002031
:10B27000084A094808B500231370084A1360084AB1
:10B280004FF400411360FFF785FFBDE80840FFF76A
:10B29000DFBF00BF928A0020AF5F05005C5700202F
:10B2A0006057002001460022014800232AF0DDBA41
:10B2B0006410002001482AF076BB00BF6410002013
:10B2C000024B014618682AF0C0BB00BF545700204B
:10B2D00001482AF0F6BB00BF6410002070B5284B6F
:10B2E000187800284BD0FFF7E5FF054690B1BFF373
:10B2F0005B8F244B53E8001F013943E80012002AFA
:10B30000F8D1BFF35B8F204C204EB4422DD328469A
:10B31000FFF7D6FF1E4B1F4C1B68002B19DD38F0C2
:10B32000A3F94FF47A72A0FB020302FB0131C30BB5
:10B33000D4E9002043EA41439B1A4FEAD13140F25D
:10B34000E93261EB0001934271F1000101D3FFF793
:10B3500067FFD4E9003213F57A7342F10002C4E9C1
:10B360000032BDE87040FFF7B3BF63685B7923B17B
:10B37000236829461B68204698471034C5E770BDEE
:10B38000918A00206057002074440600844406001F
:10B390005C5700209838002070B50D4D297861B9B0
:10B3A0000120FFF7A9FE0B4C0B4EB44206D3FFF76A
:10B3B00095FF0028FBD101232B7070BD63685B797A
:10B3C0001BB1236820469B6898471034EDE700BF07
:10B3D000928A0020744406008444060000212DE96E
:10B3E000F0470846FFF788FE044658B340F2676806
:10B3F0004FF0000938F028FD1B4B1C4A1B58136006
:10B4000033B11B4B1B68092B02DD1A4828F086F864
:10B41000194FDFF860A0002544B12046FFF706FE73
:10B42000044618B94FF0FF384FF0FF39FFF756FFC9
:10B43000064628B9B5B942464B46504628F094F81E
:10B440003546E9E74FF0FF384FF0FF39D2E72B6878
:10B450009B691BB100221146284698471035BD4212
:10B46000F5D3E8E7054DFAE708000000585700203B
:10B4700060570020A0120020844406007444060097
:10B4800013B518482AF095FD174B1B787BB14FF088
:10B490002003EFF3118483F31288BFF36F8FFFF75C
:10B4A0001DFF84F31188BFF36F8F02B010BD0F4BE7
:10B4B0001B68002BF9D050B900220023CDE90023EE
:10B4C0000B4840F6CD42002328F00AFFEDE709289B
:10B4D000EBD1074838F01BF9064802B0BDE8104030
:10B4E00028F01CB860570020928A0020585700208E
:10B4F000A0380020A012002010B5064B1B6804469F
:10B5000098472146A06004482AF02DFABDE8104073
:10B51000FFF7B6BF8404002064100020044A054BE6
:10B520009B1AB1EBD30F34BF52F8310000207047A3
:10B53000FC42060074440600084BC31A10B41B11E9
:10B5400044680133237143689A7143681960436802
:10B5500001225A715DF8044BFFF72CBE74440600BB
:10B560002DE9F04F8FB004AFC1F34A28B8600D4603
:10B5700091467B600C0DB8F1000F63D0002607F1F7
:10B5800014034FF0040B4FF00A0AC7F80C80C7E908
:10B5900007667E620193CDF808B0CDF800A007F1F0
:10B5A0001C03F96832464846FEF7CAFEB0F5006F44
:10B5B00003461CD36C468AB0D9F8041004AB264865
:10B5C000C3E9050140F2FF71D9611A464FF40071D9
:10B5D0001984224B42F8103F214833464FF4125150
:10B5E000FFF7BEFFA5462C37BD46BDE8F08FC0F380
:10B5F0000A0804F11700184420F0070080083B6097
:10B60000FFF750FE68F35325044690B13B68154A96
:10B61000C7E9083600F1100107F11403F961CDE91B
:10B6200000A3CDF808B0F96807F11C034846FEF7FF
:10B6300087FE68F353257B68B9682A4620462AF0BE
:10B64000EEFCD0E704F1170020F007008008FFF7B8
:10B6500029FE0446EDE700BF8282060004000001D7
:10B66000EC430600F35F05002DE9F04F87B0DDE9FC
:10B670001269DDE9105A04460F4693469846A6B370
:10B680001021CDF80090334652460020CDF814909A
:10B69000FEF784FC014605F117000844144B0391A2
:10B6A00004F007040BF0070BE40020F0070003EAA6
:10B6B000412344EA8B1480081C43FFF7F3FD44EA5E
:10B6C0000554054640B13EB10399CDF8009033468C
:10B6D00052461030FEF762FC434622463946284661
:10B6E00007B0BDE8F04F2AF09ABC3146D3E700BF5F
:10B6F00000FE0F000EB403B503AB014653F8042B54
:10B700000448019303F034F802B05DF804EB03B091
:10B71000704700BF85600500CA0605D48B064CBF84
:10B7200002490349FFF7E6BF704700BFC282060027
:10B73000C18206002DE9F04F8BB09A46DDE9167301
:10B740009DF854B00693189B199E089204460D4626
:10B750000593BBF1000F00F0858006F0010309930B
:10B7600006F0080307932AF042FC06F0020902469D
:10B77000002847D084492046FFF7BCFF8046B9F136
:10B78000000F08D016F0440F3ED180492A462046CB
:10B79000FFF7B0FF8044099B53B17D4B7D4953F8BF
:10B7A0002B207D4B2046002A08BF1A46FFF7A2FF38
:10B7B000079B002B54D0794B794953F82B20204616
:10B7C000FFF798FF0546089B2BB176491A4620469D
:10B7D000FFF790FF0544BAF1000F05D072495246B9
:10B7E0002046FFF787FF05444544002F48D1059BBD
:10B7F000002B4ED1F30700F1C08031462046FFF701
:10B800008BFFB4E08046BAE7684B18680028C1D0C7
:10B81000674B4FF47A791B68B5FBF3F54FF4616120
:10B82000B5FBF0F300FB135509FB05F54FF03C0C9D
:10B83000B3FBF1F201FB1231B5FBF0FEB1FBFCF3FF
:10B8400000FB1E550CFB131109FB05F50091B5FB20
:10B85000F0F55849CDE901E52046FFF74BFF99E7A0
:10B86000079DB0E7BAF1010F06D1002F65D1059B06
:10B87000002B7CD000250CE0002FF8D04E485DE076
:10B880004E484F493B46224629F09BF9059B002B29
:10B8900069D0DFF84081DFF84091059F3146102FD5
:10B8A000204628BF1027FFF737FF4FF0000A554505
:10B8B00046DC069B49461A782046FFF71BFF4FF0EF
:10B8C000010A1AF0070F03D141462046FFF712FF85
:10B8D00057453CD9069B494613F80A202046FFF7F6
:10B8E00009FF0AF1010ABAF1100FEAD135492046E1
:10B8F0004FF0000AFFF7FEFE5246069B9A5C324B61
:10B90000995C11F0970F08BF2E2230492046FFF7AF
:10B91000F1FE0AF1010ABAF1100F1DD01AF0070F5B
:10B9200003D141462046FFF7E5FE57455246E4D88D
:10B9300041462046FFF7DEFEEBE720485D46A0E7E4
:10B9400041462046FFF7D6FE0AF1010AAFE720493B
:10B950002046FFF7CFFEC4E7069B3B440693059BBA
:10B96000DB1B059399D1BBF1000F7FF443AF204659
:10B970000BB0BDE8F04F2AF078BB074A05492046D6
:10B98000FFF7B8FE39E700BFC9820600CD82060086
:10B99000984806003D940600C4820600AC480600A4
:10B9A000F2820600F88206008F7E06006C570020A7
:10B9B00068570020D6820600BB6005008560050040
:10B9C00071E7020006830600CE1307000883060015
:10B9D0000283060004830600FC8206002DE9F04184
:10B9E0000F884B688E6886B005460C469046C7F3B4
:10B9F00082175BB1144A9B1A43F3CF01002920DB65
:10BA00002078C0F3C200FFF789FD03462146608815
:10BA100051F8102B0197C2F34A22002A01EB0204CD
:10BA2000C0F30B1008BF00210022CDE90408CDE9C6
:10BA30000214009231462846FFF77CFE06B0BDE8AE
:10BA4000F0810023E2E700BFFC42060073B542F23A
:10BA50000F738B4228BF0B4605680F4A0446052129
:10BA6000684628F015FD63680C495B6806460B22A2
:10BA700028462AF0EDFA63683246694628465B6834
:10BA80002AF0E6FA636806495B681B2228462AF01A
:10BA9000DFFA02B070BD00BF241207002783060042
:10BAA0000B830600074A00210123904206D8064A6C
:10BAB00001B901231360054B1860704740085B0013
:10BAC0000121F2E740420F00685700206C57002028
:10BAD000014B00201960704784570020024B034837
